:10000000000001200D110000351100003711000023
:10001000391100003B1100003D11000000000000FC
:100020000000000000000000000000003F11000080
:1000300041110000000000004311000045110000C4
:10004000A10D000047110000190E0000471100002B
:100050004711000047110000471100004711000040
:100060004711000047110000471100004711000030
:100070004711000047110000471100004711000020
:10008000471100004D060000471100004711000015
:100090001107000047110000471100004711000040
:1000A00047110000471100004711000047110000F0
:1000B0004711000047110000000000000000000090
:1000C00047110000471100004711000047110000D0
:1000D0004711000047110000471100000000000018
:1000E0000000000000000000000000000000000010
:1000F0000000000000000000000000000000000000
:1001000000000000000000000000000000000000EF
:1001100000000000000000000000000000000000DF
:1004000010B5054C237833B9044B13B10448AFF34E
:1004100000800123237010BD700000200000000048
:10042000581400000C4B43B10C480D4910B5AFF304
:1004300000800C48036823B910BD0A48036833B92B
:100440007047094B002BF7D0BDE810401847064B0A
:10045000002BF5D0184700BF000000005814000022
:10046000740000206C00002000000000154B002BE1
:1004700008BF134B9D46A3F5803A00218B460F46DB
:100480001348144A121A00F063F80F4B002B00D0E7
:1004900098470E4B002B00D0984700200021040005
:1004A0000D000D48002802D00C48AFF3008000F08A
:1004B0002BF82000290000F055F800F011F800BFDB
:1004C0000000080000000120000000000000000003
:1004D00070000020E4000020000000000000000088
:1004E00008B5074B044613B10021AFF30080054B5C
:1004F0001868836A03B19847204600F031F800BFBE
:10050000000000005014000070B50D4E0D4CA41BEF
:10051000A4100025A54209D10B4E0C4C00F08CFF15
:10052000A41BA4100025A54205D170BD56F82530A6
:1005300098470135EEE756F8253098470135F2E740
:100540006400002064000020640000206800002097
:1005500002440346934200D1704703F8011BF9E7B8
:10056000FEE700BFF8B500F0FDFB244F244E254DFB
:100570000024204600F0E4FB3A682B4600BF00BF91
:1005800000BF00BF00BF00BF00BF00BFB2422FD0FE
:1005900000BF00BF00BF00BF00BF00BF00BF00BF63
:1005A00000BF00BF00BF00BF00BF00BF00BF00BF53
:1005B00000BF00BF00BF00BF00BF00BF00BF00BF43
:1005C00000BF00BF00BF00BF00BF00BF00BF00BF33
:1005D00000BF00BF00BF00BF00BF00BF00BF00BF23
:1005E00000BF00BF00BF00BF00BF00BF00BF00BF13
:1005F000013BC3D10134042CBBD1B9E7600000201A
:100600000024F40020A1070000B585B0002303906A
:10061000194601AA44F20100ADF80430029300F03B
:1006200003F805B05DF804FBBFF34F8F0549064B97
:10063000CA6802F4E0621343CB60BFF34F8F00BF80
:10064000FDE700BF00ED00E00400FA052DE9F843E6
:10065000274A284B0025C2F84051C2F84451C2F83D
:100660004851C2F84C51C2F80051C2F804511B68FD
:100670001BB32149D2F804450A68204FA41A1A680E
:1006800024F07F44A242A84609D8197CDE69A41A46
:100690001544A1B91EB133461A68A242F5D91849CA
:1006A000184A0B7812789A421BD01749174A41F81A
:1006B00023504FF48013C2F80031BDE8F883D3F81B
:1006C000149083F810803A689B69484619462AB10D
:1006D00090470028DED0FFF797FFDBE71846C847B2
:1006E000D8E7531CDBB2022B08BF00230B70DCE7FA
:1006F00000100140AC000020A80000208C00002069
:10070000A5000020A40000209C00002000E100E0E3
:100710002DE9F04FA34AA44913780978A3489942D8
:1007200089B0D0F800B000F0E5800133DBB2022BD5
:1007300008BF002313709E4A52F823609B4A0BEBBC
:10074000060323F07F43136001230593994B93F82D
:100750000090994BD3F800A0964B5C785B680393AC
:10076000944B9B780293954B1B7804938F4B0027F7
:100770001B680693CC465546D646B84601973B467D
:100780000097A44523D00CEB4C020398029F10F86D
:1007900032100CF1010C5FFA8CFCBC4508BF4FF025
:1007A000000C022900EBC2027BD00329E9D1BEF183
:1007B000000FE6D0DEF81C208EF810309646002A96
:1007C000F8D11546A4454FF001020092DBD1019B00
:1007D000009F002B40F0A380B8F1000F02D0734BB4
:1007E000069A1A600FB1744B1D60059B002B40F0F8
:1007F000C281BAEB0E0318BF012305930025002325
:10080000019304931F466D4BDFF8B4B11B78069338
:10081000664BD3F80080684B1B68009376464FF018
:10082000010A35B36A68A9682B46ED69A2EB080096
:1008300020F07F40584577D8014419605F609F6081
:1008400083F810A0DF61002E00F08E8030688842AF
:1008500080F08280344603E0106888426DD21446EE
:10086000E269091A002AF7D11960DA61E361002D03
:10087000D8D1039909EB490309F10102CC4501EBF9
:10088000C3045FFA82F900F09D8011F83300029BE7
:100890004B4508BF4FF0000901286AD0012304939B
:1008A000E8E75068BEF1000F3FF46BAF704571464A
:1008B00017D0009F02E0904205D01146CA69002A75
:1008C000F9D100975DE7884200970BD0C2690068B4
:1008D000CA61002A3FF455AF116801441160AE4669
:1008E0004FE77046DEF81C20964632B115460122CD
:1008F0000092EBE70026059628E702F1804202F518
:1009000088324FF00108C2F808807546CDF818E02B
:10091000CDF80080CDF80480CDF81080D6E7274BC5
:100920009DF810201A7057E7A8EB020222F07F42D0
:100930008A4208D2891A196080E7401A106019604B
:10094000DA61E36193E71F605F609F6083F810A046
:10095000DF614EB130680021411A31600093DE61E1
:100960001E46012301935CE700931E460123019379
:1009700057E763681A7C0492002A7FF47BAFA26871
:100980005A60E168996007902069D86064699C6149
:10099000069C002C00F0EC80049A5A60049400221B
:1009A00044E700BFA4000020A5000020A80000200C
:1009B0009C00002090000020AC0000209800002047
:1009C000FEFF7F00049B002B40F0A681019B13B12A
:1009D000804B009A1A60764500F0C080002E00F02F
:1009E00007817D4A7D49D2F804050C783668A0EB72
:1009F000080323F07F430333002C50D1784CDFF8F9
:100A0000E8E1784F4FF48035C2F84453C2F80453FC
:100A10004FF40035C4F88051256001241460DEF8DD
:100A200000502F2200BF00BF00BF00BF00BF00BFAB
:100A300000BF00BFBD422FD000BF00BF00BF00BF3E
:100A400000BF00BF00BF00BF00BF00BF00BF00BFAE
:100A500000BF00BF00BF00BF00BF00BF00BF00BF9E
:100A600000BF00BF00BF00BF00BF00BF00BF00BF8E
:100A700000BF00BF00BF00BF00BF00BF00BF00BF7E
:100A800000BF00BF00BF00BF00BF00BF00BF00BF6E
:100A900000BF00BF00BF00BF013AC3D10C709E422F
:100AA0002CBF08EB060343444B4923F07F43C1F8B6
:100AB0004035D1F80425121A1B1A22F07F4223F088
:100AC0007F4303329A424DD9D1F80435464AC1F8E2
:100AD0004035126843492F2300BF00BF00BF00BF4D
:100AE00000BF00BF00BF00BF8A422FD000BF00BFC1
:100AF00000BF00BF00BF00BF00BF00BF00BF00BFFE
:100B000000BF00BF00BF00BF00BF00BF00BF00BFED
:100B100000BF00BF00BF00BF00BF00BF00BF00BFDD
:100B200000BF00BF00BF00BF00BF00BF00BF00BFCD
:100B300000BF00BF00BF00BF00BF00BF00BF00BFBD
:100B400000BF00BF00BF00BF00BF00BF013BC3D15B
:100B5000234B4FF40032C3F8002103E0059B002B28
:100B60007FF43CAF214A0023137009B0BDE8F08F39
:100B7000079804905AE6174B0024774625462146ED
:100B800020461B68DDF814E0A7B13A68B24218D8D5
:100B9000FC683860B61A1144FB693CB10BEB0102EA
:100BA00022F07F42FD61BC607A603D461F4674467C
:100BB000002FEAD1BE46002C3FF421AE054A136057
:100BC0001DE6BE46002C40F0A480921BCEF800200B
:100BD00015E600BFAC000020001001409900002085
:100BE00000E100E00024F4006000002098000020F4
:100BF0004B4A4C4B4C4D4D484FF480314FF400372D
:100C00000124C3F88070C2F848132F23C2F80813D8
:100C1000546029681D4600BF00BF00BF00BF00BF71
:100C200000BF00BF00BF81422FD000BF00BF00BF88
:100C300000BF00BF00BF00BF00BF00BF00BF00BFBC
:100C400000BF00BF00BF00BF00BF00BF00BF00BFAC
:100C500000BF00BF00BF00BF00BF00BF00BF00BF9C
:100C600000BF00BF00BF00BF00BF00BF00BF00BF8C
:100C700000BF00BF00BF00BF00BF00BF00BF00BF7C
:100C800000BF00BF00BF00BF00BF013DC3D19460E3
:100C9000274A166000BF00BF00BF00BF00BF00BFF3
:100CA00000BF00BF81422FD000BF00BF00BF00BF08
:100CB00000BF00BF00BF00BF00BF00BF00BF00BF3C
:100CC00000BF00BF00BF00BF00BF00BF00BF00BF2C
:100CD00000BF00BF00BF00BF00BF00BF00BF00BF1C
:100CE00000BF00BF00BF00BF00BF00BF00BF00BF0C
:100CF00000BF00BF00BF00BF00BF00BF00BF00BFFC
:100D000000BF00BF00BF00BF013BC3D1094B1E7035
:100D100028E709490B6058E7084B83F800C055E6FF
:100D20000010014000E100E0600000200024F40019
:100D3000A800002099000020AC00002090000020B6
:100D4000074B4FF0A041185CD1F8043501228240D6
:100D500022EA03001340C1F80805C1F80C357047BA
:100D60005414000030B44FF0A04303224FF4003578
:100D70004FF480244FF400204FF48011C3F844272F
:100D8000C3F84827C3F84C27C3F85027C3F80855C1
:100D9000C3F80845C3F80805C3F8081530BC704708
:100DA00010B51A4B1A6882B0A2B100221A601B68F3
:100DB00000934FF080430122154C0099C3F808239B
:100DC000A368627033B10CCB0020A2609847A3687F
:100DD000002BF8D10F4B1A68AAB100221A601B68C9
:100DE00001934FF080430222094C0199C3F8082374
:100DF00023690122A27033B10CCB012022619847F4
:100E00002369002BF8D102B010BD00BF00010040E3
:100E1000B00000200401004070B5A54C237F8EB0C7
:100E2000002B73D1A34AD2F80413890546D4A14BF1
:100E3000D3F80423520704D5D3F80821002A40F040
:100E4000C9809C4BD3F81C21BAB1A28AA17D92B271
:100E50008A424FF00002C3F81C2180F0A880D3F82A
:100E60001C210692069AA18AA28AA06889B2013240
:100E7000415C92B2A282C3F81C158E4BD3F8442178
:100E8000D2B10022C3F84421D3F84411A27E0491C8
:100E90000499002A40F08880E37D6BB10023617ED5
:100EA000E268E37501238DF830108DF828300B923D
:100EB00094E80A000AA898470EB070BDD2F8241131
:100EC0000029B4D0C2F82431D2F82411A37E0791AE
:100ED0004FF401710798C2F808130BB9012353604E
:100EE000744A02238DF82830D2F88034C2F8803456
:100EF000E07DE2680D9300238DF83000E3752376E2
:100F000021680B9263680AA898479AE7694BD3F85F
:100F10002421002A40F09280D3F8101161B1C3F867
:100F20001021D3F8101103910399D3F83C15E07DFB
:100F3000C9B2884200F0A4805E4BD3F84421B2B11C
:100F40000022C3F84421D3F84401E17D01900198C7
:100F500069B1D3F83C35E1688DF8303001230B914D
:100F60008DF82830E27594E80A000AA89847514B9A
:100F7000D3F82021002A9FD00022C3F82021D3F8E3
:100F80002001A17D00900098002995D0D3F84C1540
:100F9000A3688DF830100B938DF82820A27594E883
:100FA0000A000AA8984787E701221A6074E7D3F875
:100FB0001C310593059B00293FF45FAFA3688DF8B2
:100FC00030100B938DF82820A27594E80A000AA827
:100FD000984752E7E27D002A6ED00022C3F808212C
:100FE000D3F808210892089AE168627ED3F8183590
:100FF0008B54637EE27D0133DBB26376637E934282
:101000007FF41FAF237E002B6CD1A37E13B9294B35
:1010100001225A60274AE06863684FF40171C2F800
:101020000813627E8DF83020002501220B90216884
:10103000E5758DF828200AA8984702E70022C3F832
:101040002421D3F82411029102218DF8281002994D
:10105000D3F88014C3F880140D91D3F83C15E368DD
:10106000E27522768DF830100B93216863680AA828
:101070009847104BD3F84421002A3FF478AF5FE73C
:10108000217E11B3D3F80062E568E17526F02006F1
:10109000C3F8006226698DF8300001238DF82830EE
:1010A000227621680B95E66063680AA8984743E7B3
:1010B000C400002000200040C3F80821D3F8081124
:1010C00009910999D3F8183598E7E268E175012389
:1010D0008DF830008DF828300B9294E80A000AA8A9
:1010E000984729E7607EE5682169E37501220023BE
:1010F0008DF83000E160237663760B958DF828201B
:1011000094E80A000AA898479BE600BF0649074AE8
:10111000074B9B1A03DD043BC858D050FBDC00F0A2
:1011200013F8FFF7A3F9000064140000000000208A
:1011300070000020FEE7FEE7FEE7FEE7FEE7FEE7C1
:10114000FEE7FEE7FEE7FEE7F0B4A64B1B78062BB2
:101150001BD0A54AD2F8883043F47003C2F8883017
:10116000BFF34F8FBFF36F8F4FF01023D3F80022E0
:10117000002AC0F20581D3F80432002BC0F20081AE
:101180009A4B9B4A1A60F0BC70479A4B1B681E072B
:10119000DFD1994B1B6803F0F003302B02D1974B42
:1011A000974A1A60944B1B6803F0F002302A00F053
:1011B000D68003F0E003402B00F0D1808E4B1B68FB
:1011C00003F0F003302B00F0BB808B4B1B6803F067
:1011D000F002302A00F0A08003F0E003402B00F082
:1011E0009B80854B1B6803F0F003302B00F086805A
:1011F000814B1B6803F0F003302B68D07E4B1B68DB
:1012000003F0F003502B10D07B4B1B6803F0F0026F
:10121000302A03D003F0E003402B9AD1794B7A4A6D
:101220001B6803F04F03136093E74FF08052774B36
:10123000D2F80414C3F82015D2F80814C3F8241502
:10124000D2F80C14C3F82815D2F81014C3F82C15D2
:10125000D2F81414C3F83015D2F81814C3F83415A2
:10126000D2F81C14C3F84015D2F82014C3F8441562
:10127000D2F82414C3F84815D2F82814C3F84C1532
:10128000D2F82C14C3F85015D2F83014C3F8541502
:10129000D2F83414C3F86015D2F83814C3F86415C2
:1012A000D2F83C14C3F86815D2F84014C3F86C1592
:1012B000D2F844244B49C3F870250A78062A7FF4F3
:1012C00048AF4C4B1B681B077FF443AF9CE7454B73
:1012D0004F491B784F4D5048504A05270F60012653
:1012E00000243F21062B2E60046011607FF431AF93
:1012F000404B1B681A077FF42CAF7FE7394B484AF5
:101300001B780321062B11607FF423AF394B1B6838
:1013100019077FF41EAF6BE7324B1B784FF080420A
:101320000021062BC2F80C11C2F81011C2F83815B2
:101330007FF40FAF2F4B1B6818077FF40AAF50E7FD
:101340003849284ACB68127823F08073062ACB608C
:10135000B4D1284B1B681C077FF4FBAE35E7324A3B
:10136000204B12681B783149C2F34232062B0A60C7
:101370007FF4EFAE1F4B1B681D077FF4EAAE1DE73D
:101380002B4B0122C3F80425D3F80024002AFBD0FC
:101390004FF0102315222649C3F80022D1F800345B
:1013A000002BFBD04FF010221521214BC2F8041264
:1013B000D3F80024002AFBD000221D49C3F80425DD
:1013C000D1F80034002BFBD0BFF34F8F0649194BE7
:1013D000CA6802F4E0621343CB60BFF34F8F00BFD3
:1013E000FDE700BFE00F00F000ED00E0600000202E
:1013F0000090D003E40F00F0E80F00F074C0074045
:101400000DF0ADBA58020010E40E004000C00040DC
:1014100010560040885600401856004014560040B0
:10142000A0050040F0ED00E0440200103C05004043
:1014300000E001400400FA05F8B500BFF8BC08BCA4
:101440009E467047F8B500BFF8BC08BC9E46704782
:0C14500000000020111213140000000026
:08145C0010F0FF7F0100000009
:101464000000000000000000000000000000000078
:101474000000000000000000000000000000000068
:101484000000000000000000000000000000000058
:101494000000000000000000000000000000000048
:1014A4000000000000000000000000000000000038
:1014B4000000000000000000000000000000000028
:1014C4000090D00325040000010400000000000087
:040000030000110DDB
:00000001FF
