:020000021000EC
:10F00000000001202D1F0200551F0200571F0200A3
:10F01000591F02005B1F02005D1F0200000000007C
:10F020000000000000000000000000005F1F020060
:10F03000611F020000000000631F0200651F020044
:10F040005D060200671F020021100200671F020018
:10F05000671F0200671F0200F90A0200671F020013
:10F06000671F0200671F0200671F0200671F020080
:10F07000671F0200671F0200671F0200671F020070
:10F08000671F020071FB0100671F0200671F02007B
:10F0900035FC0100671F02004D260200671F0200B9
:10F0A000671F0200671F0200671F0200671F020040
:10F0B000671F0200671F0200000000000000000040
:10F0C000671F0200671F0200671F0200671F020020
:10F0D000671F0200671F0200671F02000000000098
:10F0E0000000000000000000000000000000000020
:10F0F0000000000000000000000000000000000010
:10F1000000000000000000000000000000000000FF
:10F1100000000000000000000000000000000000EF
:10F4000010B5054C237833B9044B13B10448AFF35E
:10F4100000800123237010BDA42100200000000003
:10F42000402702000C4B43B10C480D4910B5AFF317
:10F4300000800C48036823B910BD0A48036833B93B
:10F440007047094B002BF7D0BDE810401847064B1A
:10F45000002BF5D0184700BF000000004027020035
:10F46000A8210020A021002000000000154B002B47
:10F4700008BF134B9D46A3F5803A00218B460F46EB
:10F480001348144A121A00F063F80F4B002B00D0F7
:10F4900098470E4B002B00D0984700200021040015
:10F4A0000D000D48002802D00C48AFF3008000F09A
:10F4B0002BF82000290000F04DF900F011F800BFF2
:10F4C0000000080000000120000000000000000013
:10F4D000A4210020FC230020000000000000000008
:10F4E00008B5074B044613B10021AFF30080054B6C
:10F4F0001868836A03B19847204600F031F800BFCE
:10F50000000000000C27020070B50D4E0D4CA41B2E
:10F51000A4100025A54209D10B4E0C4C03F0EAF8CB
:10F52000A41BA4100025A54205D170BD56F82530B6
:10F5300098470135EEE756F8253098470135F2E750
:10F540009821002098210020982100209C21002053
:10F5500002440346934200D1704703F8011BF9E7C8
:10F56000FEE700BF73DF704776DF70477ADF7047D2
:10F570007CDF70477FDF7047A8DF7047A9DF7047E7
:10F58000ADDF704767DF70473EDF704700F0CEBAEF
:10F59000022009B901F038B801F02AB808B503789B
:10F5A00003B108BD054B3B211888FFF7DDFF00289C
:10F5B000F7D0BDE8084000F0B9BA00BF90210020A4
:10F5C0000D280ED108B5084802F05CFF30F00802A3
:10F5D00009D043F20202904205D0BDE8084000F095
:10F5E000A5BA00F0A3BA08BD8822002010B5038890
:10F5F000023B84B00446542B4FD8DFE803F0924E10
:10F600004E4E4E4E4E4E4E4E4E4E4E4E992B4E60E0
:10F610004E4E4E4E4E4E4E4E4E4E4E4E4E4E4E4E0A
:10F620004E4E4E4E4E4E4E4E4E4E4E4E4E4E4E4EFA
:10F630004E4E4E4E4E4E4E574E4E4E4E4E4E4E4EE1
:10F640004E4E4E4E4E4E4E4E4E4E4E4E4E6A814E8B
:10F650004E8B5700012000F0D7FF3C4B4FF6FF7256
:10F660001A8000F049FA08B100F060FA10226846EA
:10F670000021FFF76DFF0023402268468DF800301F
:10F6800001938DF80830CDF80A20FFF76BFF08B121
:10F6900000F04CFA002000F0ABFF204602F0E6FB41
:10F6A00021462B4802F0E0FD04B010BD13218088F4
:10F6B000FFF75AFF0028F0D000F038FAEDE7234AB0
:10F6C0000023108885211A46FFF754FF0028E4D054
:10F6D000F2E78379002BE0D0827B043A022ADCD85F
:10F6E000022B18BF01234FF4C172694680888DF840
:10F6F0000030ADF80420FFF73FFF0028CDD0DBE756
:10F70000124A0023108819461A46FFF737FF0028CF
:10F71000C3D0D1E717218088FFF732FF0028BCD083
:10F72000CAE700218088FFF72DFF0028B5D0C3E786
:10F73000012000F05DFF002000F066FF034BA2886F
:10F740001A8000F0C3F90028A7D0B5E79021002067
:10F750008822002070B5A0B000F062FF0023184698
:10F76000604A052100F07EFD08B100F0DFF940F2AB
:10F77000666201215C4800F04FF908B100F0D6F94B
:10F780005A4B5B4918680290002302A8502202F0ED
:10F7900009FF08B100F0CAF911AA0121002002F006
:10F7A0006DFF08B100F0C2F9172311A8ADF854306D
:10F7B00002F07CFF08B100F0B9F94E4802F03CFFBE
:10F7C00008B100F0B3F99DF808304B48012262F30C
:10F7D000030362F307138DF8083002F082FF4649F5
:10F7E00082B202A8FFF7C4FE08B100F09FF9082218
:10F7F000002111A8FFF7ACFE404B119311A84FF068
:10F80000C8731293FFF7B2FE08B100F08FF93C4BBA
:10F810003C48119311A902F049FD08B100F086F9A6
:10F82000384A927C8DF8062041F223533C22002175
:10F8300002A8ADF804300124FFF78AFE0225062352
:10F8400000213C2211A88DF80B308DF808508DF85E
:10F850000A40FFF77DFE01AB02A811A9ADF85440A4
:10F86000169301F0CFFF08B100F060F91C220021CF
:10F8700011A8FFF76DFE4FF4202600234FF420352A
:10F8800003242149214A119311A8ADF852308DF873
:10F890005430129613958DF850401691179202F03D
:10F8A000ABFA08B100F042F91022002111A8FFF7CD
:10F8B0004FFE0023402211A88DF8443012938DF89A
:10F8C0004C30CDF84E20FFF74DFE08B100F02EF978
:10F8D000002000F08DFEFFF757FE0028FBD000F05F
:10F8E00025F9F8E7C0210020882100201027020018
:10F8F00038220020EDF50100142702005000A0007E
:10F9000091F50100882200209DF501008DF5010090
:10F910002DE9F84F254B93F800E0BEF1000F31D0F0
:10F92000DFF88CB0DFF88CA0DFF88C900024012782
:10F9300003E00134E4B2744524D226B2DBF800506F
:10F94000DAF8003015F8360007FA00F1194205EB35
:10F95000C608EED023EA0103CAF8003001F0C2F86D
:10F9600015F83660D9F8003007FA06F52B4000FA92
:10F9700006F18B4208D00D4B013493F800E0E4B25D
:10F980007445DAD3BDE8F88FD8F80430002BF2D0F4
:10F9900098F80110A1F10101B1FA81F14909091AA0
:10F9A000B1FA81F1490930469847E4E7A4220020E2
:10F9B000D4220020D0220020CC22002070B50646A0
:10F9C000114800F099FD40B9104D01242B68B44056
:10F9D0001C4203D023EA04042C6070BD304601F0C1
:10F9E00081F80B4E326860B122432B6809493260BE
:10F9F0001C432C60044809680022BDE8704000F0F8
:10FA000023BD22EA0402F0E7AC220020D02200202D
:10FA1000CC220020A8220020042A01D80720704709
:10FA20002DE9F04182B088460546174600F0FEFEFB
:10FA3000002836D01D4C1E481E491F4A1F4B25600A
:10FA4000002608F1FF3480F800800F6016601E6009
:10FA5000E4B2B8F1000F1ED0DFF86C80032701E09C
:10FA6000FF2C18D023B205EBC30215F833009378AE
:10FA70008DF80470424601A98DF806608DF8076084
:10FA80008DF8053000F0DCFE013CE4B20028E7D040
:10FA900002B0BDE8F0810A4A0A48002100F0C2FC29
:10FAA000F6E700F081FE0028C4D0F1E7D422002060
:10FAB000A4220020A8220020CC220020D022002056
:10FAC00011F9010024270200BDF9010070B5084DAD
:10FAD0002B785BB1074E00243368012113F8340002
:10FAE00000F06EFF2B780134A342F5D8002070BDE2
:10FAF000A4220020D422002070B5094D2B7853B1E8
:10FB0000084E0024336813F8340000F0BBFF2B7854
:10FB10000134A342F6D80448BDE8704000F0ECBCC4
:10FB2000A4220020D4220020AC22002000B585B001
:10FB300000230390194601AA44F20100ADF80430F5
:10FB4000029300F003F805B05DF804FBBFF34F8F9C
:10FB50000549064BCA6802F4E0621343CB60BFF369
:10FB60004F8F00BFFDE700BF00ED00E00400FA0585
:10FB70002DE9F843274A284B0025C2F84051C2F826
:10FB80004451C2F84851C2F84C51C2F80051C2F871
:10FB900004511B681BB32149D2F804450A68204F61
:10FBA000A41A1A6824F07F44A242A84609D8197CF6
:10FBB000DE69A41A1544A1B91EB133461A68A242DF
:10FBC000F5D91849184A0B7812789A421BD0174970
:10FBD000174A41F823504FF48013C2F80031BDE8B2
:10FBE000F883D3F8149083F810803A689B694846EC
:10FBF00019462AB190470028DED0FFF797FFDBE7D0
:10FC00001846C847D8E7531CDBB2022B08BF0023B5
:10FC10000B70DCE700100140F8220020F4220020E5
:10FC2000D8220020F1220020F0220020E82200202B
:10FC300000E100E02DE9F04FA34AA44913780978C8
:10FC4000A348994289B0D0F800B000F0E5800133B4
:10FC5000DBB2022B08BF002313709E4A52F82360C8
:10FC60009B4A0BEB060323F07F43136001230593AC
:10FC7000994B93F80090994BD3F800A0964B5C7881
:10FC80005B680393944B9B780293954B1B7804938A
:10FC90008F4B00271B680693CC465546D646B84680
:10FCA00001973B460097A44523D00CEB4C020398E8
:10FCB000029F10F832100CF1010C5FFA8CFCBC456D
:10FCC00008BF4FF0000C022900EBC2027BD00329D1
:10FCD000E9D1BEF1000FE6D0DEF81C208EF810301E
:10FCE0009646002AF8D11546A4454FF0010200922D
:10FCF000DBD1019B009F002B40F0A380B8F1000FE7
:10FD000002D0734B069A1A600FB1744B1D60059BAD
:10FD1000002B40F0C281BAEB0E0318BF01230593FC
:10FD200000250023019304931F466D4BDFF8B4B107
:10FD30001B780693664BD3F80080684B1B680093D2
:10FD400076464FF0010A35B36A68A9682B46ED691B
:10FD5000A2EB080020F07F40584577D80144196095
:10FD60005F609F6083F810A0DF61002E00F08E803E
:10FD70003068884280F08280344603E01068884210
:10FD80006DD21446E269091A002AF7D11960DA61C6
:10FD9000E361002DD8D1039909EB490309F1010270
:10FDA000CC4501EBC3045FFA82F900F09D8011F8A5
:10FDB0003300029B4B4508BF4FF0000901286AD071
:10FDC00001230493E8E75068BEF1000F3FF46BAFE6
:10FDD0007045714617D0009F02E0904205D0114651
:10FDE000CA69002AF9D100975DE7884200970BD0D5
:10FDF000C2690068CA61002A3FF455AF1168014426
:10FE00001160AE464FE77046DEF81C20964632B1D0
:10FE1000154601220092EBE70026059628E702F13D
:10FE2000804202F588324FF00108C2F8088075461A
:10FE3000CDF818E0CDF80080CDF80480CDF8108022
:10FE4000D6E7274B9DF810201A7057E7A8EB02025F
:10FE500022F07F428A4208D2891A196080E7401A4C
:10FE600010601960DA61E36193E71F605F609F6073
:10FE700083F810A0DF614EB130680021411A316073
:10FE80000093DE611E46012301935CE700931E464A
:10FE90000123019357E763681A7C0492002A7FF4D8
:10FEA0007BAFA2685A60E168996007902069D860CA
:10FEB00064699C61069C002C00F0EC80049A5A60F6
:10FEC0000494002244E700BFF0220020F122002029
:10FED000F4220020E8220020DC220020F82200206A
:10FEE000E4220020FEFF7F00049B002B40F0A6814F
:10FEF000019B13B1804B009A1A60764500F0C080D8
:10FF0000002E00F007817D4A7D49D2F804050C7867
:10FF10003668A0EB080323F07F430333002C50D155
:10FF2000784CDFF8E8E1784F4FF48035C2F844535D
:10FF3000C2F804534FF40035C4F880512560012401
:10FF40001460DEF800502F2200BF00BF00BF00BFCA
:10FF500000BF00BF00BF00BFBD422FD000BF00BF29
:10FF600000BF00BF00BF00BF00BF00BF00BF00BF99
:10FF700000BF00BF00BF00BF00BF00BF00BF00BF89
:10FF800000BF00BF00BF00BF00BF00BF00BF00BF79
:10FF900000BF00BF00BF00BF00BF00BF00BF00BF69
:10FFA00000BF00BF00BF00BF00BF00BF00BF00BF59
:10FFB00000BF00BF00BF00BF00BF00BF013AC3D1F8
:10FFC0000C709E422CBF08EB060343444B4923F0C0
:10FFD0007F43C1F84035D1F80425121A1B1A22F0CC
:10FFE0007F4223F07F4303329A424DD9D1F8043542
:10FFF000464AC1F84035126843492F2300BF00BF6D
:020000022000DC
:1000000000BF00BF00BF00BF00BF00BF8A422FD0AB
:1000100000BF00BF00BF00BF00BF00BF00BF00BFE8
:1000200000BF00BF00BF00BF00BF00BF00BF00BFD8
:1000300000BF00BF00BF00BF00BF00BF00BF00BFC8
:1000400000BF00BF00BF00BF00BF00BF00BF00BFB8
:1000500000BF00BF00BF00BF00BF00BF00BF00BFA8
:1000600000BF00BF00BF00BF00BF00BF00BF00BF98
:10007000013BC3D1234B4FF40032C3F8002103E00E
:10008000059B002B7FF43CAF214A0023137009B07D
:10009000BDE8F08F079804905AE6174B0024774686
:1000A0002546214620461B68DDF814E0A7B13A68D2
:1000B000B24218D8FC683860B61A1144FB693CB1EA
:1000C0000BEB010222F07F42FD61BC607A603D468D
:1000D0001F467446002FEAD1BE46002C3FF421AEE5
:1000E000054A13601DE6BE46002C40F0A480921B1A
:1000F000CEF8002015E600BFF822002000100140D5
:10010000E522002000E100E00024F400942100201A
:10011000E42200204B4A4C4B4C4D4D484FF480316B
:100120004FF400370124C3F88070C2F848132F231E
:10013000C2F80813546029681D4600BF00BF00BF05
:1001400000BF00BF00BF00BF00BF81422FD000BF73
:1001500000BF00BF00BF00BF00BF00BF00BF00BFA7
:1001600000BF00BF00BF00BF00BF00BF00BF00BF97
:1001700000BF00BF00BF00BF00BF00BF00BF00BF87
:1001800000BF00BF00BF00BF00BF00BF00BF00BF77
:1001900000BF00BF00BF00BF00BF00BF00BF00BF67
:1001A00000BF00BF00BF00BF00BF00BF00BF013DD8
:1001B000C3D19460274A166000BF00BF00BF00BFD4
:1001C00000BF00BF00BF00BF81422FD000BF00BFF3
:1001D00000BF00BF00BF00BF00BF00BF00BF00BF27
:1001E00000BF00BF00BF00BF00BF00BF00BF00BF17
:1001F00000BF00BF00BF00BF00BF00BF00BF00BF07
:1002000000BF00BF00BF00BF00BF00BF00BF00BFF6
:1002100000BF00BF00BF00BF00BF00BF00BF00BFE6
:1002200000BF00BF00BF00BF00BF00BF013BC3D184
:10023000094B1E7028E709490B6058E7084B83F803
:1002400000C055E60010014000E100E094210020CC
:100250000024F400F4220020E5220020F8220020EF
:10026000DC2200202DE9F04712F0030402D0072021
:10027000BDE8F087002AFAD05F4D604EDFF8889124
:10028000DFF888C14FF4803E4FF400374FF001088B
:10029000C6F88070C5F848E32F27C5F808E3C5F80D
:1002A0000480D9F800E0B94600BF00BF00BF00BF1E
:1002B00000BF00BF00BF00BFE6452FD000BF00BF9A
:1002C00000BF00BF00BF00BF00BF00BF00BF00BF36
:1002D00000BF00BF00BF00BF00BF00BF00BF00BF26
:1002E00000BF00BF00BF00BF00BF00BF00BF00BF16
:1002F00000BF00BF00BF00BF00BF00BF00BF00BF06
:1003000000BF00BF00BF00BF00BF00BF00BF00BFF5
:1003100000BF00BF00BF00BF00BF00BFB9F10109AF
:10032000C2D1C5F8088000BF00BF00BF00BF00BF3A
:1003300000BF00BF00BFE6452FD000BF00BF00BF19
:1003400000BF00BF00BF00BF00BF00BF00BF00BFB5
:1003500000BF00BF00BF00BF00BF00BF00BF00BFA5
:1003600000BF00BF00BF00BF00BF00BF00BF00BF95
:1003700000BF00BF00BF00BF00BF00BF00BF00BF85
:1003800000BF00BF00BF00BF00BF00BF00BF00BF75
:1003900000BF00BF00BF00BF00BF013FC3D1DFF8F7
:1003A00070E0DFF870A0164FDFF86C90DFF86C801B
:1003B000DFF86CC08EF80040CAF800304FF4801EA1
:1003C000E023B9703C707C70C9F8004088F80040A8
:1003D0008CF800400B49C6F880E186F81433C6F863
:1003E00000E0C5F8080586F81133D5F804350B6030
:1003F0007A602046BDE8F0870010014000E100E08F
:10040000DC220020F4220020942100200024F400AB
:10041000E5220020D8220020F8220020F02200202F
:10042000F1220020074B5B6823B12AB120B1036899
:10043000187C18B1082070470720704759745A611A
:10044000704700BFDC2200202DE9F043274C636891
:1004500083B033B128B1042907D8072003B0BDE821
:10046000F083082003B0BDE8F0834369002BF8D087
:10047000054602A86B7C0026012B00F8016D0CBF1D
:100480008946B14690460F4600F074F86378A0782C
:1004900021785A1CD2B2904208BF324691421FD0F6
:1004A00003EB43036068DB00C11819D04FF0010E65
:1004B00000F803E00E4B4D60D3F804358B609DF8D7
:1004C0000700CF60C1F81090C1F81480627000F08E
:1004D00077F8084B4FF480123046C3F80021C1E78B
:1004E0009DF8070000F06CF80420BBE7DC22002038
:1004F0000010014000E100E0F0B51C4E736883B0CD
:1005000053B348B343693BB3054602A8002400F83F
:10051000014D2C7400F02EF87378B07831785A1CA5
:10052000D2B2904208BF2246914218D003EB430357
:100530007168DB00CF1812D00220C8547D609DF88E
:100540000700727000F03CF8094B4FF4801220460F
:10055000C3F8002103B0F0BD082003B0F0BD9DF842
:10056000070000F02DF80420F7E700BFDC22002090
:1005700000E100E070B4EFF3108472B60D4B9A689E
:10058000AAB90D490D4E01259D60D1F88050354026
:100590001D60C1F88060D1F884505D604FF0FF337A
:1005A000C1F88430027004B962B670BC7047012390
:1005B0000370F8E7F023002000E100E0FC06FFBC38
:1005C000094B9A6872B168B910B4EFF3108272B631
:1005D00006491C680C605C684C60986002B962B6A1
:1005E0005DF8044B704700BFF023002000E100E0FD
:1005F000044B195C4FF0A04201238B40C2F80C352C
:10060000704700BF28270200044B195C4FF0A0423E
:1006100001238B40C2F80835704700BF282702002D
:1006200030B44FF0A04303224FF400354FF4802440
:100630004FF400204FF48011C3F84427C3F8482733
:10064000C3F84C27C3F85027C3F80855C3F808452A
:10065000C3F80805C3F8081530BC704710B51A4B2D
:100660001A6882B0A2B100221A601B6800934FF092
:1006700080430122154C0099C3F80823A3686270D7
:1006800033B10CCB0020A2609847A368002BF8D1AF
:100690000F4B1A68AAB100221A601B6801934FF031
:1006A00080430222094C0199C3F8082323690122DF
:1006B000A27033B10CCB0120226198472369002B33
:1006C000F8D102B010BD00BF00010040FC220020A4
:1006D0000401004058B910B5054CA36833B10CCBE8
:1006E0000020A2609847A368002BF8D110BD704786
:1006F000FC22002010B582B002A80023144C00F8A0
:10070000013DFFF737FF237853B1E3689DF80700F9
:1007100001330122E360A270FFF752FF02B010BD67
:100720000C4A6360E3601068A36010F0010023616D
:100730000AD001F031FF20B94FF080430122C3F805
:10074000182501232370E0E7072100F005F8F0E702
:10075000FC22002000E100E0002810B418DB00F1CA
:10076000604303F561434901C9B283F80013C3B282
:100770004009800000F1604000F5614003F01F0275
:1007800001239340C0F8803103605DF8044B70474B
:10079000C3B2044A03F00F0449012244C9B21176DE
:1007A000E6E700BFFCEC00E030B51D4C94F8545077
:1007B00083B015B1082003B030BD4FF0FF33FF22E6
:1007C0000721062023636363A363E36323646364F5
:1007D000A364E36423606360A360E36023616361F7
:1007E000A361E361236284F850306362A36284F8FA
:1007F0005230E36284F8533084F85120FFF7ACFFA5
:10080000084B094A1D601B68019301984FF0004393
:100810000121284684F85410C2F8043303B030BDD7
:10082000102300207C61004000600040034B93F8DF
:100830005400003018BF0120704700BF1023002073
:10084000F0B55E4C251895F93030002B01DB0820FF
:10085000F0BD91F803E0BEF1000F50D023680133E2
:1008600000F0A6800826012554F8253001334CD02D
:100870006B1C54F82370013748D0AB1CB3423CD2F8
:1008800054F82370013741D0EB1CB34235D254F8F1
:10089000237001373AD02B1DB3422ED254F8237067
:1008A000013733D06B1DB34227D254F82370013780
:1008B0002CD0AB1DB34220D254F82370013725D081
:1008C000EB1DB34219D254F8237001371ED005F145
:1008D0000803B34211D254F82370013716D005F142
:1008E0000903B34209D254F8237001370ED00A35F8
:1008F000B54202D2E36A013358D00420F0BD236A26
:1009000001332DD00C260925AEE72B4626185DB203
:1009100044F8232086F83050BEF1000F26D08B78A3
:10092000A3B94A784FF0A04600F5E073920046F86C
:100930002320CB78F3B9083D2C44097894F8502053
:1009400042EA811284F850201846F0BD830003F17A
:10095000A043D3F8002722F00202C3F80027E8E7FB
:10096000082685F83060334622623546234483F8F2
:100970004800D4E7AB0003F1804303F5C043097896
:10098000D3F8104524F4473424F44074C3F81045D8
:1009900002020904D3F8100501F4403102F4F852C0
:1009A0000A430243C3F810250020F0BD0B23ADE736
:1009B000002385F8303022601D46B0E71023002068
:1009C000F0B42E4D2E1882B096F93030072B1CDD76
:1009D0002B4493F848309B09032B41D0012B14BFC3
:1009E0004FF440314FF40031800000F1A040D0F8C6
:1009F000002722F44032C0F80027D0F800370B431C
:100A0000C0F8003702B0F0BC7047DAB2072AF9D854
:100A1000980000F1804000F5C04003F140029200D0
:100A2000D0F8104592B202F18042002744F0010450
:100A300002F5C042C0F810450197019817600029DF
:100A4000E0D096F9302055F82220002ADAD0012291
:100A50000B4902FA03F3C1F8043302B0F0BC70474B
:100A60004FF0A043D3F81035C34013F0010F0CBF73
:100A70004FF400314FF44031B6E700BF102300209F
:100A800000600040154B034493F93030072B17DC0E
:100A9000DAB2072A13D810B49A0002F1804202F5A4
:100AA000C0420F4CD2F81005012120F0010001FADC
:100AB00003F3C2F81005C4F808335DF8044B70471F
:100AC000800000F1A040D0F8003723F44033C0F894
:100AD0000037D0F80037C0F80037704710230020E7
:100AE000006000404FF0A043D3F8103523FA00F027
:100AF00000F00100704700BF2DE9F04F87B00023E0
:100B0000CC4A01931168012900F00A821E46CA4BA3
:100B10001A68012A00F0F681C84B1A68012A00F011
:100B2000E381C74B1A68012A00F0D081C54B1A68CF
:100B3000012A00F0BD81C44B1A68012A00F0AA8185
:100B4000C24B1A68012A00F09781C14B1A68012A2A
:100B500000F08481BF4B1A68012A00F05E8116F014
:100B6000FF0F1AD0BC4F01250024A30003F18043DE
:100B70002E4203F5C0434FEA45050BD0D3F81005CC
:100B800057F82420D3F81015C0F30420C1F3014115
:100B900002B190470134082CE7D1002E02DB07B0E8
:100BA000BDE8F08F00224FF0FF33AB4C029203936D
:100BB000012502AE94F950104F1C2DD0C9B221F07E
:100BC000C00006AB4FEAD00E03EB0E0701F007039F
:100BD00017F80C2C05FA03F31A421DD022188909C4
:100BE00092F9302054F82220002A00F0F0800329E6
:100BF00000F0F0804FEA800E0EF1A04E17F814CCF2
:100C0000DEF800771CEA0303C7F3014940F0B8801F
:100C1000B9F1030F00F0D7814FF0030A4FF002093A
:100C20004FF00108002794F95110481C2DD0C9B28B
:100C300021F0C00006AB4FEAD00C03EB0C0E01F024
:100C400007031EF80C2C05FA03F31A421DD02218D4
:100C5000890992F9302054F82220002A00F0CA8035
:100C6000032900F0CA804FEA800C0CF1A04C1EF85A
:100C700014BCDCF800E71BEA030FCEF3014E40F092
:100C80009080BEF1030F00F08A8194F952104A1C43
:100C90002CD0C9B221F0C00006AB4FEAD00C03EB58
:100CA0000C0E01F007031EF80C2C05FA03F31A4290
:100CB0001CD02218890992F9302054F82220002AE9
:100CC00000F08F80032900F08E804FEA800C0CF139
:100CD000A04C1EF814ACDCF800E71AEA030FCEF3C0
:100CE000014E6AD1BEF1030F00F0468194F9531012
:100CF0004B1C2CD0C9B221F0C00006AB4FEAD00E7D
:100D000003EB0E0201F0070312F80CCC05FA03F313
:100D10001CEA030F1BD004EB000C89099CF930C0BE
:100D200054F82C90B9F1000F6ED003296ED04FEA21
:100D3000800E0EF1A04E12F814CCDEF800271CEA4B
:100D4000030FC2F3014211D1032A00F0F580002FF6
:100D50003FF425AF4FF0A043019AD3F810359A42E3
:100D60003FF41DAF029A0193039223E7022AEED1CA
:100D7000032900F04681B9F1000FE8D0C847E6E743
:100D8000B9F1020F7FF448AF032900F043814FF01F
:100D9000030A4FF001080027002A3FF444AF9047B0
:100DA00041E7BEF1020F7FF470AF032900F02C8100
:100DB000002A3FF46AAF904767E7BEF1020F95D172
:100DC000032900F02481002A90D090478EE7032960
:100DD0007FF422AF16F80EC04CEA030C06F80EC0E2
:100DE00008E7032982D116F80CA04AEA030A06F89C
:100DF0000CA06AE703297FF448AF16F80CB04BEA61
:100E0000030B06F80CB02EE70329A0D116F80EC08C
:100E10004CEA030C06F80EC089E700221A601B6832
:100E200005934FF0A043059AD3F81035019346F08F
:100E3000004694E600610040046100400861004003
:100E40000C610040106100401461004018610040D6
:100E50001C6100407C610040102300206F4AD2F8E2
:100E6000042312067FF576AE00221A601B680493F5
:100E7000049B46F080066DE6684AD2F804235106CA
:100E80007FF563AE00221A601B680493049B46F052
:100E900040065AE6614AD2F8042390067FF550AE28
:100EA00000221A601B680493049B46F0200647E664
:100EB0005A4AD2F80423D4067FF53DAE00221A60C8
:100EC0001B680493049B46F0100634E6534AD2F89C
:100ED000042315077FF52AAE00221A601B680493CD
:100EE000049B46F0080621E64C4AD2F80423570733
:100EF0007FF517AE00221A601B680493049B46F02E
:100F000004060EE6454AD2F8042392077FF504AEA4
:100F100000221A601B680493049B46F00206FBE55E
:100F20003E49D1F8046316F001063FF4F0AD1360BA
:100F300013680493049BEAE503297FF41CAF4FF484
:100F40000032DEF8003723F44033CEF80037DEF805
:100F500000371343CEF80037B9F1000F01D04746F0
:100F60000CE74FF0A043019AD3F8103593427FF479
:100F7000F9AE07B0BDE8F08F03297FF424AF4FF43A
:100F80000037DCF8003723F44033CCF80037DCF8C6
:100F900000373B43CCF800374746C84613E70329E0
:100FA0007FF406AF4FF40037DCF8003723F440330A
:100FB000CCF80037DCF800373B43CCF80037474625
:100FC000C846D146F4E6032906D0CA461F464FF06C
:100FD00002094FF00108DFE64FF40037DEF8003772
:100FE00023F44033CEF80037DEF800373B43CEF829
:100FF00000374FF0040A4FF003094FF002080127B1
:10100000CAE64FF440329CE74FF44037CCE74FF448
:101010004037B6E74FF44037E0E700BF00600040DC
:1010200070B5A54C237F8EB0002B73D1A34AD2F8A4
:101030000413890546D4A14BD3F80423520704D5E1
:10104000D3F80821002A40F0C9809C4BD3F81C211A
:10105000BAB1A28AA17D92B28A424FF00002C3F8CF
:101060001C2180F0A880D3F81C210692069AA18A40
:10107000A28AA06889B20132415C92B2A282C3F80E
:101080001C158E4BD3F84421D2B10022C3F8442161
:10109000D3F84411A27E04910499002A40F088807C
:1010A000E37D6BB10023617EE268E37501238DF877
:1010B00030108DF828300B9294E80A000AA898475F
:1010C0000EB070BDD2F824110029B4D0C2F824317A
:1010D000D2F82411A37E07914FF401710798C2F84A
:1010E00008130BB901235360744A02238DF828308A
:1010F000D2F88034C2F88034E07DE2680D9300239A
:101100008DF83000E375237621680B9263680AA896
:1011100098479AE7694BD3F82421002A40F092803F
:10112000D3F8101161B1C3F81021D3F81011039155
:101130000399D3F83C15E07DC9B2884200F0A48041
:101140005E4BD3F84421B2B10022C3F84421D3F856
:101150004401E17D0190019869B1D3F83C35E16823
:101160008DF8303001230B918DF82830E27594E82A
:101170000A000AA89847514BD3F82021002A9FD093
:101180000022C3F82021D3F82001A17D009000980F
:10119000002995D0D3F84C15A3688DF830100B9327
:1011A0008DF82820A27594E80A000AA8984787E7D6
:1011B00001221A6074E7D3F81C310593059B0029BE
:1011C0003FF45FAFA3688DF830100B938DF82820A3
:1011D000A27594E80A000AA8984752E7E27D002A1F
:1011E0006ED00022C3F80821D3F808210892089A8B
:1011F000E168627ED3F818358B54637EE27D01335B
:10120000DBB26376637E93427FF41FAF237E002BB5
:101210006CD1A37E13B9294B01225A60274AE0689A
:1012200063684FF40171C2F80813627E8DF83020B4
:10123000002501220B902168E5758DF828200AA869
:10124000984702E70022C3F82421D3F82411029121
:1012500002218DF828100299D3F88014C3F8801465
:101260000D91D3F83C15E368E27522768DF83010C5
:101270000B93216863680AA89847104BD3F8442160
:10128000002A3FF478AF5FE7217E11B3D3F8006204
:10129000E568E17526F02006C3F8006226698DF83E
:1012A000300001238DF82830227621680B95E66006
:1012B00063680AA8984743E768230020002000409D
:1012C000C3F80821D3F8081109910999D3F8183502
:1012D00098E7E268E17501238DF830008DF8283039
:1012E0000B9294E80A000AA8984729E7607EE5680F
:1012F0002169E375012200238DF83000E160237637
:1013000063760B958DF8282094E80A000AA8984780
:101310009BE600BF6DDF704772DF704779DF704773
:101320007DDF704765DF70472DE9F04F85B0048899
:10133000DDF83880BDF83CA0B8F800500195002CCD
:1013400057D09946002317468B4605461C4603E0B6
:101350002A880134A24228DD6A6852F824000390EA
:1013600000220DF10B0103A8FFF7DCFF064630BB9E
:101370009DF80B20BA42EBD12BB3B8F80020D3195B
:1013800053451BDC4A440DF10B0103A80123FFF771
:10139000C9FF98BBB8F800109DF80B200A44A8F8C4
:1013A00000202A880134A242D6DC13B3B8F80030FA
:1013B000019A013B9B1A9BB2FF2B17D90C26304692
:1013C00005B0BDE8F08FB8F800305A1C3B4402333A
:1013D000534592B2F2DCA8F8002009F802B0B8F840
:1013E0000020013292B2A8F80020CBE709F80230C1
:1013F000E5E70026304605B0BDE8F08F06463046EA
:1014000005B0BDE8F08F00BF2DE9F0470023178835
:10141000138090F82D3084B0144605460E46002BFC
:1014200049D1AA78002A70D1EA78002A2ED16A68B8
:10143000A2B1D91CB94225D8022192F90020F15459
:10144000238801339BB20A212380F154238801337E
:101450009BB22380F2542388013323802B89002BF5
:1014600040F02A812B8A002B40F03F812B8B002BF0
:1014700040F054812A6A002A00F0A78021888B1D41
:10148000BB4262D90C2004B0BDE8F087D91CB94238
:10149000F8D80221F154238801339BB20121238023
:1014A000F15423880B449BB22380F25423880B44CD
:1014B0009BB22380BBE7082FE4D902A8FFF72AFFDD
:1014C0000028E0D113880822CA54238801339BB234
:1014D0001B222380CA542088013080B2208006223B
:1014E00008440DF1090101F0F1F823889DF8082066
:1014F00006339BB212F0FE0218BF01222380F25481
:10150000238801339BB223808BE70433BB42B9D8D5
:1015100002A8FFF703FF0028B5D12388BDF80820F3
:101520000321F154238801339BB219212380F15404
:10153000238801339BB2F1182380F254120A4A70B7
:10154000238802339BB223806EE71388052B40F279
:10155000AF806FF4486803EB080080B24FF27D3E25
:10156000704540F2A5805088052840F2A1806FF4B4
:10157000486C84441FFA8CFCF44540F299804FF685
:10158000FF7E734504D0704502D0834200F2908004
:1015900005237354238801339BB212212380F15415
:1015A000238801339BB223801188F1543344090A04
:1015B0005970238802339BB223805288F2543344FB
:1015C000120A5A70238802332380D5F82480B8F198
:1015D000000F30D0B8F8041020888A1C831C1344F4
:1015E000BB423FF64FAFFE2A3FF64CAF03313154BA
:1015F000238801339BB2FF222380F25423880133D6
:101600009BB22380B8F80020F2543344120A5A7077
:101610002088023080B22080B8F804205AB1D8F86F
:101620000810002944D0304401F050F8B8F80420E4
:1016300023881344238095F82C30002B40F08780BA
:10164000287800283FF41FAF2B88012B30D0238847
:101650009A1CBA423FF616AF012805D169780231CB
:1016600019448F42FFF40EAF023FFB1A04A99BB24C
:1016700021F8083DB018FFF753FE00287FF403AFB0
:101680002A78022A00F0AF80012A00F0B4800821F5
:10169000FE2B3FF6F7AE22885D1CB554228801323E
:1016A00092B22280B1542288013213442380EAE6A8
:1016B000072004B0BDE8F08705F1080802228DE894
:1016C0009000404611463346FFF72EFE00287FF477
:1016D000DAAE8DE890004046334610220621FFF72F
:1016E00023FE00283FF4BEAECDE605F110088DE8DC
:1016F00090004046334602220321FFF715FE0028E2
:101700007FF4C1AE8DE89000404633461022072199
:10171000FFF70AFE00283FF4A9AEB4E605F1180869
:101720008DE890004046334602221421FFF7FCFD6D
:1017300000287FF4A8AE8DE8900040463346102282
:101740001521FFF7F1FD00283FF494AE9BE6D5F894
:101750002880B8F1000FABD0B8F804200232FE2A7E
:101760003FF690AE23884FF000094FF0160A013281
:10177000F254238801339BB2238006F803A0238808
:1017800001339BB22380B8F80020F2543344120A8C
:101790005A70238802339BB22380B8F80410F018E3
:1017A0000A4661B1D8F808301946002B80D000F005
:1017B0008DFFB8F80420238813449BB2238009F1DD
:1017C000010995F82C205FFA89F94A4509EB490887
:1017D0007FF636AFAA6A02EB8808B8F80420023216
:1017E000FE2AC4D94EE6BDF808209342FFF44FAF5D
:1017F000134609214CE76A789342FFF448AF134639
:10180000082145E72DE9F04395B01F230D46ADF8BB
:101810000E300446002800F08480C27853077CD53F
:1018200090F82D300021ADF80C10002B40F0DB813A
:1018300083780CAF002B40F017821946032014AEBA
:1018400031445F1C023316FA87F74FF0020E16FA86
:1018500083F601F840EC83B2012107F8401CADF893
:101860000C3006F8402C6668002E00F08C80D81CE6
:101870001F2874D90C2015B0BDE8F083A76A002F8B
:101880004BD0BA880232FE2AF4D8BDF80C304FF0A3
:10189000000804AE4FF016091AE000F017FFBDF87B
:1018A0000C30BA8894F82C1013449BB2ADF80C306D
:1018B00008F101085FFA88F8884508EB480280F0D3
:1018C000F080A76A07EB8207BA880232FE2AD1D8D5
:1018D0000DF1500E9E44581C01320DF1500C0EF8C3
:1018E000402C1CFA80F09A1C92B200F8409CADF893
:1018F0000C203888B0543244000A50700433B7F8D2
:1019000004E09BB27246F018ADF80C30BEF1000F47
:10191000CED0BB681946002BBFD1072015B0BDE85B
:10192000F083ADF80C00ADB1EB78002BF5D1284673
:101930000CA90DF10E02FFF767FD0028EED19DF80E
:101940000E300CAA20469DF80C10FFF7E5FC15B0F0
:10195000BDE8F0832B46ADF80E502A46F2E714AFEF
:10196000591C9A1C17FA81F13B4417FA82F296F936
:101970000060ADF80C0002270A2003F8407C01F853
:10198000400C02F8406C2389002B40F08F80238AA2
:10199000002B40F0AB80238B002B40F0C780226AE5
:1019A000002A42D0BDF80C30991D1F293FF662AFC6
:1019B00010880528B1D96FF4486C00EB0C06B6B25C
:1019C0004FF27D37BE42A8D95688052EA5D96FF4AF
:1019D000486EB6441FFA8EFEBE459ED94FF6FF777D
:1019E000B84203D0BE4201D0B04296D814A8C7185E
:1019F0005E1C10FA86F64FF0050E981C07F840ECB6
:101A000080B2122706F8407CADF80C001788ADF8BC
:101A10000C1004AE3118375404333F0A4F709BB298
:101A20005288F2541E44120A7270676AA7B3B888CB
:101A3000BDF80C30811C9A1C56181F2E3FF61AAFA9
:101A4000FE293FF617AF14AE1E44591C0DF1500E7F
:101A50001EFA81F1033006F8400C92B2FF2001F823
:101A6000400CADF80C20398804AEB018B154090A06
:101A700041700433BA8898B2ADF80C0062B1B9680D
:101A800000293FF44AAF304400F020FEBDF80C308E
:101A9000BA881344ADF80C3094F82C1000297FF468
:101AA000EDAE2378002B61D104AC3CE703A904F12F
:101AB000080704AE4FF01F08022200913846334653
:101AC000CDF804801146FFF72FFC00287FF426AFE5
:101AD00003AB0093CDF8048033463846102206212C
:101AE000FFF722FC00283FF452AF17E703AA04F1E6
:101AF000100704AE4FF01F08009238463346CDF869
:101B0000048002220321FFF70FFC00287FF406AFB8
:101B100003AB0093CDF804803346384610220721EA
:101B2000FFF702FC00283FF436AFF7E603AA04F102
:101B3000180704AE4FF01F08009238463346CDF820
:101B4000048002221421FFF7EFFB00287FF4E6AEA9
:101B500003AB0093CDF8048033463846102215219C
:101B6000FFF7E2FB00283FF41AAFD7E62288012AEC
:101B70003FF4D3AEBDF80C20901C1F283FF67AAE80
:101B8000012B04D1637803441F2B3FF673AEC2F1DF
:101B90001D0314A99BB204AE21F8203D3044FFF789
:101BA000BFFB00287FF4BAAE2278022A00F08680BC
:101BB000012A00F08B80ADF830300820FE2B3FF674
:101BC00059AEBDF80C2014AC511CA71814FA81F1C1
:101BD00002321A44013307F8403C3446ADF80C2079
:101BE00001F8400C9FE60CAF3846FFF793FB002846
:101BF0007FF494AEBDF80C3014A903F1010E9A1CC9
:101C000011FA8EFE0B4492B204AEB01808211B26C6
:101C100003F8401CADF80C200DF1310106220EF83E
:101C2000406C00F053FDBDF80C209DF83010931D62
:101C300011F0FE019BB23BD114A8034403F8401CF1
:101C4000D31DA2789BB2ADF80C304AB9E278002AD5
:101C50003FF409AED81C1F2819463FF60BAEEEE53F
:101C600004331F2B3FF606AE3846FFF757FB00281C
:101C70007FF454AEBDF80C30BDF83010E278581C3B
:101C800014AE16FA80F01E449F1C4FF0030E06F8A7
:101C900040ECBFB204AE4FF0190E00F840EC043334
:101CA000F019F1559BB2090AADF80C304170CEE73E
:101CB00014A90B44012103F8401CC1E7BDF83020F2
:101CC0009342FFF478AF1346092077E76278934296
:101CD000FFF471AFADF83020134608206EE700BF67
:101CE00075DF704776DF70477ADF70477BDF7047BC
:101CF000184B18884FF6FF7398422AD010B5164A31
:101D0000164C1378217B0133DBB2994282B01370F9
:101D10000CD2237C002111708BB9636923B102A816
:101D2000002200F8042D984702B010BD0C49FFF7BF
:101D3000D7FF0028F8D0A369002BF4D1F4E73B21AA
:101D4000FFF7D0FF0028E8D0A369002BE5D0984723
:101D5000E3E770478A230020D82300208C2300204B
:101D6000D023002070B51E4B1E4A5B881188994213
:101D700082B00FD852889A420CD31B4B5B6923B1B7
:101D800002A8012200F8042D9847184C0023237064
:101D900002B070BD154C227862B1134B5B69002B09
:101DA000F4D002A8002200F8042D984700232370E5
:101DB00002B070BD0C4D0E4869680678AB680D48DE
:101DC000002E18BF1946FEF73FFB0028DED0AB6996
:101DD000002BDBD098470023237002B070BD00BFFA
:101DE000C8230020D02300208C230020882300203B
:101DF000D8230020A8230020F8B505460FCD144CA9
:101E0000144F0FC4064695E80700002384E8070036
:101E10003B70B6B13068104B716803C3A3F1080082
:101E2000FFF762FF90B90D4D0D4C0E4A0E4800238E
:101E30004FF6FF762E8023701946BDE8F840FEF776
:101E4000F1BA0548FFF752FF0028ECD0F8BD00BFFB
:101E50008C23002088230020D02300208A23002008
:101E6000D8230020F11C02002C27020070B5038843
:101E7000112B27D012D9122B07D0502B47D1244C2D
:101E8000C288E3899A4230D070BD083003C8214B24
:101E900083E80300BDE87040FFF764BF102B35D125
:101EA0001D491B4C1B4B1D4DE48900F1100280881D
:101EB000088092E80300002283E803002A70002CC7
:101EC000E8D070BD1449154B15484FF6FF74002239
:101ED0000C801A70FEF710FB0028D5D00C4B9B69C4
:101EE000002BD1D0BDE870401847038A022BCBD11C
:101EF000123000F017F80028CCD10948FEF7FCFAA0
:101F00000028C1D0A369002BECD1BDE770BD70BD26
:101F10008C230020C82300208A230020D8230020FF
:101F2000A8230020007800F0010070470649074A06
:101F3000074B9B1A03DD043BC858D050FBDC00F074
:101F400013F8FDF793FA00004C2702002821002027
:101F5000A4210020FEE7FEE7FEE7FEE7FEE7FEE73E
:101F6000FEE7FEE7FEE7FEE7F0B4A64B1B78062B84
:101F70001BD0A54AD2F8883043F47003C2F88830E9
:101F8000BFF34F8FBFF36F8F4FF01023D3F80022B2
:101F9000002AC0F20581D3F80432002BC0F2008180
:101FA0009A4B9B4A1A60F0BC70479A4B1B681E07FD
:101FB000DFD1994B1B6803F0F003302B02D1974B14
:101FC000974A1A60944B1B6803F0F002302A00F025
:101FD000D68003F0E003402B00F0D1808E4B1B68CD
:101FE00003F0F003302B00F0BB808B4B1B6803F039
:101FF000F002302A00F0A08003F0E003402B00F054
:102000009B80854B1B6803F0F003302B00F086802B
:10201000814B1B6803F0F003302B68D07E4B1B68AC
:1020200003F0F003502B10D07B4B1B6803F0F00241
:10203000302A03D003F0E003402B9AD1794B7A4A3F
:102040001B6803F04F03136093E74FF08052774B08
:10205000D2F80414C3F82015D2F80814C3F82415D4
:10206000D2F80C14C3F82815D2F81014C3F82C15A4
:10207000D2F81414C3F83015D2F81814C3F8341574
:10208000D2F81C14C3F84015D2F82014C3F8441534
:10209000D2F82414C3F84815D2F82814C3F84C1504
:1020A000D2F82C14C3F85015D2F83014C3F85415D4
:1020B000D2F83414C3F86015D2F83814C3F8641594
:1020C000D2F83C14C3F86815D2F84014C3F86C1564
:1020D000D2F844244B49C3F870250A78062A7FF4C5
:1020E00048AF4C4B1B681B077FF443AF9CE7454B45
:1020F0004F491B784F4D5048504A05270F60012625
:1021000000243F21062B2E60046011607FF431AF64
:10211000404B1B681A077FF42CAF7FE7394B484AC6
:102120001B780321062B11607FF423AF394B1B680A
:1021300019077FF41EAF6BE7324B1B784FF08042DC
:102140000021062BC2F80C11C2F81011C2F8381584
:102150007FF40FAF2F4B1B6818077FF40AAF50E7CF
:102160003849284ACB68127823F08073062ACB605E
:10217000B4D1284B1B681C077FF4FBAE35E7324A0D
:10218000204B12681B783149C2F34232062B0A6099
:102190007FF4EFAE1F4B1B681D077FF4EAAE1DE70F
:1021A0002B4B0122C3F80425D3F80024002AFBD0CE
:1021B0004FF0102315222649C3F80022D1F800342D
:1021C000002BFBD04FF010221521214BC2F8041236
:1021D000D3F80024002AFBD000221D49C3F80425AF
:1021E000D1F80034002BFBD0BFF34F8F0649194BB9
:1021F000CA6802F4E0621343CB60BFF34F8F00BFA5
:10220000FDE700BFE00F00F000ED00E094210020AA
:102210000090D003E40F00F0E80F00F074C0074016
:102220000DF0ADBA58020010E40E004000C00040AE
:102230001056004088560040185600401456004082
:10224000A0050040F0ED00E0440200103C05004015
:1022500000E001400400FA05A0DF7047A2DF7047EC
:10226000A6DF704763DF70470B88112B0FD0502B10
:1022700005D0102B00D070478B888382704710B434
:102280004388CC889C4206D05DF8044B70474FF6DB
:10229000FF73838270470B8A012BF5D18369002B72
:1022A000F2D0897C5DF8044B184700BFF0B5744B41
:1022B0004FF6FF72828205460C68186859689A6862
:1022C000DB68AC6195B004AC0FC405F1120104A841
:1022D000FFF7C8FF044610B1204615B0F0BD14A9A1
:1022E00041F2235321F8483D2A46AB7C8DF80A3051
:1022F0000120FFF7B1FF04460028EDD1214603225B
:102300006846FDF725F99DF800709DF801309DF8AD
:1023100002E0012666F3030766F3030366F307137F
:1023200066F3420E214666F307171C220DA88DF8AE
:1023300000708DF801308DF802E0FDF709F99DF885
:10234000343095F812E00E9443F01203214641F226
:102350002457032201A81094119413948DF834305B
:102360008DF80EE0ADF80C70CDF848D0FDF7F0F820
:102370009DF806309DF804E09DF8057066F3420371
:1023800064F3C30364F3041364F3030766F3030EF7
:1023900064F3000366F3071E64F307172146142253
:1023A00008A88DF806308DF804E08DF80570FDF76B
:1023B000CFF801AFADF82A400C9408AA03AC0DA9E0
:1023C00005F10A03288808940997ADF82860ADF84C
:1023D0002C60FFF743FF044600287FF47DAF0146E1
:1023E0001C220DA8FDF7B4F89DF83430A87C8DF8B8
:1023F0000E0043F00A03214641F22557032201A8AB
:102400000E9410941194129413948DF83430ADF806
:102410000C70FDF79DF89DF806309DF804009DF8BE
:10242000057066F3420364F3C30366F3030064F3C9
:10243000041366F3071066F3030764F300032146F1
:1024400014228DF8040066F3071708A88DF80630EB
:102450008DF80570FDF77CF8AB1C2888ADF82A4094
:1024600003AD089508AA0DA901AD0C940995ADF826
:102470002860ADF82C60FFF7F1FE04462CE700BFA2
:102480003027020070B588B005468DF8071001248A
:1024900004A810220021ADF80E40FDF759F86E890E
:1024A000A88A8DF812400DF107020DF10E0304A960
:1024B000ADF8106007920693FFF7D2FE08B070BD2A
:1024C00048DF704710DF704760DF704761DF70479B
:1024D000FDF73CBB2DE9F047DFF8B090294DD9F866
:1024E0000060DFF8AC80284FDFF8A8A0B6FA86F6C7
:1024F00082B076092B7803F0FF04002B36D101A8B7
:10250000FFF7DEFF052834D010B3FDF70FFB4EBBFD
:102510002B7803F0FF063BB128E0FDF707FB002C0A
:10252000E8D02B7801240BBB3B68B8F80020ADF84D
:102530000420184601A9FFF7C9FF052814D0002878
:10254000EBD11846D9F800309847002CE9D1D1E7F3
:102550000198FEF7BFF8DAF8003073B10198984798
:10256000002ED5D00126C5E7002CFBD002B0BDE877
:10257000F087002EFAD10124CAE7002EC8D0012628
:10258000B8E700BFE5230020EC230020DC23002077
:10259000DA230020E8230020014B1878704700BFA1
:1025A000E423002011B111F0030F01D00720704780
:1025B000F8B51A4F1A4E1B4D1B4C396032802B60F8
:1025C0002368DB0708D50123C4F880301749FFF7DB
:1025D00079FF30B12360F8BD1449FFF773FF00B1F4
:1025E000F8BD134B01221A70FEF784F80E4A92F8D8
:1025F0001633C3F34113012B0CD90E4B986818B94D
:102600004FF480031360F8BD1A6842F480021A6028
:102610000020F8BD42F20200F8BD00BFEC2300200C
:10262000DA230020E023002000E100E0D1240200B2
:10263000E4230020F0230020034618B1024A0020C2
:10264000136070470E207047DC23002008B5094B4B
:102650001B6833B1984700B908BDBDE80840FDF7D5
:1026600065BA054B1B78002BF6D0BDE80840FFF794
:1026700031BF00BFE0230020E423002070B51446E2
:1026800005460E46104600211C22FCF761FF227D04
:102690002672002363F30002012165722275A36193
:1026A000218005B1A172002070BD00BF00B583B0CC
:1026B000054B019302A9019B41F8083DFFF704FF78
:1026C000019B03B05DF804FB2821002010B5431ED8
:1026D0000A44914200D110BD11F8014B03F8014F9B
:1026E000F7E7034613F8012B002AFBD1181A01382B
:1026F00070470000F8B500BFF8BC08BC9E467047A4
:10270000F8B500BFF8BC08BC9E46704728210020E1
:10271000010000074E6F726469635F426C696E6B03
:1027200079000000AC22002011121314A82300200D
:1027300023D1BCEA5F782315DEEF121200000000FF
:042740000000000095
:0827440028CDFF7F0100000019
:10274C00000000000000000000000000000000007D
:10275C00000000000000000000000000000000006D
:10276C00000000000000000000000000000000005D
:10277C00000000000000000000000000000000004D
:10278C00000000000000000000000000000000003D
:10279C00000000000000000000000000000000002D
:1027AC000D000300C1F50100FFFF00000090D003F5
:0C27BC0025F4010001F401000000000001
:0400000320001F2D8D
:00000001FF
