:1000000000000120DD240000052500000725000078
:10001000092500000B2500000D2500000000000050
:100020000000000000000000000000000F2500009C
:100030001125000000000000132500001525000018
:10004000D1150000172500008521000017250000AC
:100050001725000017250000172500008517000050
:10006000711C00001725000017250000172500004F
:100070001725000017250000172500001725000090
:1000800017250000B90E00001725000017250000F5
:100090007D0F000017250000172500001725000020
:1000A0001725000017250000172500001725000060
:1000B00017250000172500000000000000000000C8
:1000C0001725000017250000172500001725000040
:1000D000172500001725000017250000000000006C
:1000E0000000000000000000000000000000000010
:1000F0000000000000000000000000000000000000
:1001000000000000000000000000000000000000EF
:1001100000000000000000000000000000000000DF
:1004000010B5054C237833B9044B13B10448AFF34E
:1004100000800123237010BDE801002000000000CF
:10042000A43300000C4B43B10C480D4910B5AFF399
:1004300000800C48036823B910BD0A48036833B92B
:100440007047094B002BF7D0BDE810401847064B0A
:10045000002BF5D0184700BF00000000A4330000B7
:10046000EC010020E401002000000000154B002BEF
:1004700008BF134B9D46A3F5803A00218B460F46DB
:100480001348144A121A00F063F80F4B002B00D0E7
:1004900098470E4B002B00D0984700200021040005
:1004A0000D000D48002802D00C48AFF3008000F08A
:1004B0002BF82000290000F00BF900F011F800BF24
:1004C0000000080000000120000000000000000003
:1004D000E8010020E8070020000000000000000004
:1004E00008B5074B044613B10021AFF30080054B5C
:1004F0001868836A03B19847204600F031F800BFBE
:1005000000000000A431000070B50D4E0D4CA41B7E
:10051000A4100025A54209D10B4E0C4C02F036FE6A
:10052000A41BA4100025A54205D170BD56F82530A6
:1005300098470135EEE756F8253098470135F2E740
:10054000DC010020DC010020DC010020E0010020B3
:1005500002440346934200D1704703F8011BF9E7B8
:10056000FEE700BF704700BFF8B5037803B1F8BDE0
:1005700005460521406801F085FAA0B90B4F0C49EA
:100580003A680C4E032000F06FFB00246B68314684
:100590001A5F0320023400F067FB0A2CF6D13B6897
:1005A00001333B60F8BD00F059FCE7E7040200208E
:1005B000E43100000432000010B584B001F06CF8A2
:1005C000002831D104A91A4B41F8083D194A1A48AC
:1005D0000023039301F0B8FA18BB184B184AD3F85C
:1005E000103515480021DBB2DA400091012301F0FB
:1005F0001BFB114801F00AFB01F034FA04461148D4
:1006000001F054F850B90F4B0F491878224601F009
:1006100081F808B100F022FC04B010BD00F01EFC0F
:10062000F1E700F01BFCD8E700F018FCCAE700BFB8
:100630000000030765050000B431000000800040A1
:1006400000A861001C0200204081004008B5054B55
:10065000187801F083F800B908BDBDE8084000F043
:10066000FDBB00BF1C02002000B5154B85B018680B
:1006700059681A7A01AB03C312491A70002001F0BD
:1006800077F9C8B901A9002001F0BEF988B90521A0
:100690000D4801F0F7F948B905210C4801F0F2F9CD
:1006A00008B100F0DBFB05B05DF804FB00F0D6FB01
:1006B000F2E700F0D3FBEAE700F0D0FBE2E700BF8F
:1006C000A831000069050000080200201202002085
:1006D00008B5002000F060FA08B100F0BFFB08493F
:1006E000032000F075FAFFF7BFFFFFF765FFFFF784
:1006F000ADFF20BF00F00CFB0028FBD1F9E700BFE5
:10070000BC3100000378012B04BF014A137070470D
:100710001F0200202DE9F04FC7B01C469148002968
:1007200014BF0A23002316460D46009301F01EFD58
:10073000002840F0E380002C00F0E48006AB834604
:100740000293519B539A9E18202501960099029A74
:100750000B465B4404933133D318039302EB0B072E
:1007600000295DD07B4203F003038B4228BF0B4678
:10077000062900F2EB800A463946012A01F8015B9E
:1007800000F0E280022A7D7007F1020100F0DC80B7
:10079000032ABD7007F1030100F0D680042AFD7022
:1007A00007F1040100F0D080062A3D7107F1050130
:1007B00040F0D2807D71B91D1346009890422DD033
:1007C000009EA6EB020CACF1040006F1FF3A800893
:1007D000AAEB020A0130BAF1020F4FEA800E13D9D8
:1007E0005A44029E4FF0203A012806EB020B46F8CD
:1007F00002A005D00228CBF804A001D0CBF808A0B5
:10080000E6457144734409D0009E0D705A1CB242F3
:1008100004D202339E424D7000D98D70009B1F445C
:10082000039B059707F1330907F1030A264603F1F5
:1008300001084C46019FDDF844910DE00AF8035C85
:100840000AF8025C0AF8015C0AF1030AA24508F8FA
:10085000015C08F101082FD0B742EFD9B1456DD93D
:10086000509B13F806B00AF8015C4FEA2B105FFAB0
:1008700080FE09280BF00F00D4BF0EF1300E0EF1F0
:10088000370E092894BF303037300AF803EC0AF8E5
:10089000020C01F0B9FF58440AF1030A407810F045
:1008A000970F08BF4FF02E0BA24508F801BC06F1C8
:1008B000010608F10108CFD1049B03980197059F19
:1008C000029903F1430A0D220A230274437452462B
:1008D000254887F8305001F0B7FF5FFA8AF22249C5
:1008E000204801F099FB3446834638B91D4801F091
:1008F0003DFC18B9019B9C42FFF428AF204647B04D
:10090000BDE8F08F55B306A902912B68174A084637
:100910000D464FF4807101F0A3FFB0F1000BEDDB49
:100920005D44304601F0D0FFC2280246314628BF60
:10093000C2222846934401F087FF02E7A6EB090094
:10094000529B13F800B08EE7134636E71A46394635
:10095000002B3FF435AF0FE705232EE706AD0295D8
:10096000A346DEE7640000202002002034320000AD
:10097000F0B56548C7B00C4616461D4601F0F6FBBB
:10098000A0B9B4B14FF480712368604A06A801F0A1
:1009900067FF011E0ADB4C9B0C46062B00F2B2805F
:1009A000DFE803F012626C2E783C4E00002047B066
:1009B000F0BD4C9B062B00F2A280DFE803F004940C
:1009C0008F8A807B85004C9C304601F07DFF0319A7
:1009D000FF2B054640F28C80002DE7DB6219B2F553
:1009E000807FE3D8D4B206A9494801F02DFF224602
:1009F0004749454801F010FBB0FA80F04009D6E7BE
:100A000006AB5818C1F58071AA682B686D6800950F
:100A10000192324601F024FF0546DDE706AB581887
:100A2000C1F580712F69EA682B680397AF686D681C
:100A300002928DE8A000324601F012FF0546CBE796
:100A400006AB5818C1F580716A692F692B6804924A
:100A5000EA680397AF686D6802928DE8A00032469D
:100A600001F0FEFE0546B7E706AB5818C1F58071E8
:100A70002B68324601F0F4FE0546ADE706AB581888
:100A8000C1F580716A682B680092324601F0E8FE79
:100A90000546A1E706AB5818C1F58071EA682B68D6
:100AA000AF686D6802928DE8A000324601F0D8FE72
:100AB000054691E74FF4807106A80024B2E74FF491
:100AC000807106A80024E9E74FF4807106A800248D
:100AD000BAE74FF4807106A8002495E74FF48071BF
:100AE00006A80024CEE74FF4807106A80024BFE7D3
:100AF00006AB314618192A4601F0A6FE6CE7002421
:100B0000224670E7002569E76400002034320000C7
:100B100020020020F0B5174F3B7889B01BB1164B6F
:100B20001B78834222D0154D06460FCD6C460FC46C
:100B300095E80F00062584E80F0008210522072309
:100B40000F48019103920095029301F0E1F9002E04
:100B50000C4A0B4818BF0022694601F0EDF818B99D
:100B6000054A012316703B7009B0F0BD002009B0A2
:100B7000F0BD00BF1E0200201D0200201432000044
:100B8000640000200507000000487047710900005C
:100B9000004870471507000038B50020FFF7BAFF7E
:100BA000044668B9FFF7F0FF0546FFF7F1FF054B74
:100BB000FF22C3F810541C605C60C3F814049A60F0
:100BC000204638BD200300200120FFF7A3BF00BF4F
:100BD0002DE9F041224C074600200E46A56800F0A2
:100BE000E5FCA2686368D4F8008013440133A3EBEA
:100BF0000803012B1BD8ABB10121002361F30103D2
:100C00006FF38203052161F3C50308EA0202154967
:100C100004EB82026FF3891308F1010561F39F234E
:100C20002560D3600020BDE8F04100F0C7BC08F1AA
:100C300001030020236000F0C1FC0122002362F3C5
:100C400001036FF3820305EA080567F3C50304EBAC
:100C500085046FF3891366F39F23E360BDE8F08199
:100C6000200300203C3200002DE9F843264C80464A
:100C7000002016460F46A56800F098FCA26863683D
:100C8000D4F8009013440133A3EB0903022B1BD8C3
:100C9000ABB10121002361F301036FF3820305214E
:100CA00061F3C50309EA0202184804EB82026FF3FC
:100CB000891309F1010160F39F232160D3600020B3
:100CC000BDE8F84300F07ABC09F10203002023607C
:100CD00000F074FC0121002361F3010309EB010220
:100CE0006FF3820305EA090968F3C503154004EBB5
:100CF000890961F3891304EB850467F39F23C9F81D
:100D00000C30E660BDE8F883200300203C32000090
:100D10002DE9F0434F4E716832688A428BB078D02B
:100D2000B76807EA0105023506EB85020131546810
:100D300014F003030ED1C4F3891303EB94530B4453
:100D400007EA0305023506EB8502591C546814F0C6
:100D50000303F0D0022B2CD0C4F38313C4F39522E9
:100D6000002B73D00DF1100C604601EB030E07EA67
:100D7000010506EB850501F10108F045E96840F839
:100D8000041B4146F3D10093C4F3C2006346D6F876
:100D900010440021A04748B1C6F804803068B0EB89
:100DA000080018BF01200BB0BDE8F083D6F804801E
:100DB000F4E701F1010827EA080001EA070301301E
:100DC00006EB830380004FEA94598145DA68C4F347
:100DD000891322D988B307EA0801C7B20331A9EB06
:100DE0000700DFF874E006EB8101C0B28DE88240B5
:100DF0000390D6F814740021C4F3C200B8474845E4
:100E000020D006EB850560F38F146C60D6F8048063
:100E1000C4E700200BB0BDE8F08307EA0800033008
:100E200006EB800000218DE8010203910291D6F8C3
:100E30001474C4F3C200B847E1E786465FFA89F745
:100E40000549D3E7033008EB9008A5E788460DF184
:100E5000100C98E7200300202C03002000B585B07B
:100E600000230390194601AA44F20100ADF80430B2
:100E7000029300F003F805B05DF804FB08B50B49D8
:100E80000120FFF7A5FEFFF79FFEFFF741FF0028B7
:100E9000FBD1BFF34F8F0649064BCA6802F4E062EC
:100EA0001343CB60BFF34F8F00BFFDE74832000014
:100EB00000ED00E00400FA052DE9F843274A284B2D
:100EC0000025C2F84051C2F84451C2F84851C2F856
:100ED0004C51C2F80051C2F804511B681BB32149A0
:100EE000D2F804450A68204FA41A1A6824F07F44F7
:100EF000A242A84609D8197CDE69A41A1544A1B9F2
:100F00001EB133461A68A242F5D91849184A0B781F
:100F100012789A421BD01749174A41F823504FF4D0
:100F20008013C2F80031BDE8F883D3F8149083F839
:100F300010803A689B69484619462AB190470028B4
:100F4000DED0FFF78BFFDBE71846C847D8E7531C16
:100F5000DBB2022B08BF00230B70DCE7001001405E
:100F600058070020540700203807002051070020B0
:100F7000500700204807002000E100E02DE9F04F75
:100F8000A34AA44913780978A348994289B0D0F8B4
:100F900000B000F0E5800133DBB2022B08BF002374
:100FA00013709E4A52F823609B4A0BEB060323F012
:100FB0007F43136001230593994B93F80090994B5D
:100FC000D3F800A0964B5C785B680393944B9B78B6
:100FD0000293954B1B7804938F4B00271B68069355
:100FE000CC465546D646B84601973B460097A445A1
:100FF00023D00CEB4C020398029F10F832100CF136
:10100000010C5FFA8CFCBC4508BF4FF0000C0229B4
:1010100000EBC2027BD00329E9D1BEF1000FE6D07C
:10102000DEF81C208EF810309646002AF8D11546BE
:10103000A4454FF001020092DBD1019B009F002BE1
:1010400040F0A380B8F1000F02D0734B069A1A60EB
:101050000FB1744B1D60059B002B40F0C281BAEBB1
:101060000E0318BF01230593002500230193049369
:101070001F466D4BDFF8B4B11B780693664BD3F86F
:101080000080684B1B68009376464FF0010A35B329
:101090006A68A9682B46ED69A2EB080020F07F4042
:1010A000584577D8014419605F609F6083F810A0AD
:1010B000DF61002E00F08E803068884280F08280F0
:1010C000344603E0106888426DD21446E269091A7A
:1010D000002AF7D11960DA61E361002DD8D10399B4
:1010E00009EB490309F10102CC4501EBC3045FFAA6
:1010F00082F900F09D8011F83300029B4B4508BF38
:101100004FF0000901286AD001230493E8E75068F2
:10111000BEF1000F3FF46BAF7045714617D0009FD2
:1011200002E0904205D01146CA69002AF9D1009721
:101130005DE7884200970BD0C2690068CA61002A47
:101140003FF455AF116801441160AE464FE7704659
:10115000DEF81C20964632B1154601220092EBE7DC
:101160000026059628E702F1804202F588324FF00A
:101170000108C2F808807546CDF818E0CDF8008067
:10118000CDF80480CDF81080D6E7274B9DF81020CD
:101190001A7057E7A8EB020222F07F428A4208D277
:1011A000891A196080E7401A10601960DA61E361FA
:1011B00093E71F605F609F6083F810A0DF614EB10E
:1011C00030680021411A31600093DE611E46012320
:1011D00001935CE700931E460123019357E7636880
:1011E0001A7C0492002A7FF47BAFA2685A60E168FF
:1011F000996007902069D86064699C61069C002C06
:1012000000F0EC80049A5A600494002244E700BF86
:1012100050070020510700205407002048070020F5
:101220003C0700205807002044070020FEFF7F00F5
:10123000049B002B40F0A681019B13B1804B009AC8
:101240001A60764500F0C080002E00F007817D4ACC
:101250007D49D2F804050C783668A0EB080323F02A
:101260007F430333002C50D1784CDFF8E8E1784F0E
:101270004FF48035C2F84453C2F804534FF400359C
:10128000C4F88051256001241460DEF800502F223C
:1012900000BF00BF00BF00BF00BF00BF00BF00BF56
:1012A000BD422FD000BF00BF00BF00BF00BF00BFC6
:1012B00000BF00BF00BF00BF00BF00BF00BF00BF36
:1012C00000BF00BF00BF00BF00BF00BF00BF00BF26
:1012D00000BF00BF00BF00BF00BF00BF00BF00BF16
:1012E00000BF00BF00BF00BF00BF00BF00BF00BF06
:1012F00000BF00BF00BF00BF00BF00BF00BF00BFF6
:1013000000BF00BF013AC3D10C709E422CBF08EB56
:10131000060343444B4923F07F43C1F84035D1F8DD
:101320000425121A1B1A22F07F4223F07F43033256
:101330009A424DD9D1F80435464AC1F84035126871
:1013400043492F2300BF00BF00BF00BF00BF00BF45
:1013500000BF00BF8A422FD000BF00BF00BF00BF48
:1013600000BF00BF00BF00BF00BF00BF00BF00BF85
:1013700000BF00BF00BF00BF00BF00BF00BF00BF75
:1013800000BF00BF00BF00BF00BF00BF00BF00BF65
:1013900000BF00BF00BF00BF00BF00BF00BF00BF55
:1013A00000BF00BF00BF00BF00BF00BF00BF00BF45
:1013B00000BF00BF00BF00BF013BC3D1234B4FF4B0
:1013C0000032C3F8002103E0059B002B7FF43CAF03
:1013D000214A0023137009B0BDE8F08F07980490EC
:1013E0005AE6174B002477462546214620461B68BF
:1013F000DDF814E0A7B13A68B24218D8FC6838604A
:10140000B61A1144FB693CB10BEB010222F07F429A
:10141000FD61BC607A603D461F467446002FEAD1EC
:10142000BE46002C3FF421AE054A13601DE6BE46C1
:10143000002C40F0A480921BCEF8002015E600BFDF
:1014400058070020001001404507002000E100E09F
:101450000024F4006C000020440700204B4A4C4B51
:101460004C4D4D484FF480314FF400370124C3F800
:101470008070C2F848132F23C2F8081354602968FB
:101480001D4600BF00BF00BF00BF00BF00BF00BFC0
:1014900000BF81422FD000BF00BF00BF00BF00BF10
:1014A00000BF00BF00BF00BF00BF00BF00BF00BF44
:1014B00000BF00BF00BF00BF00BF00BF00BF00BF34
:1014C00000BF00BF00BF00BF00BF00BF00BF00BF24
:1014D00000BF00BF00BF00BF00BF00BF00BF00BF14
:1014E00000BF00BF00BF00BF00BF00BF00BF00BF04
:1014F00000BF00BF00BF013DC3D19460274A166002
:1015000000BF00BF00BF00BF00BF00BF00BF00BFE3
:1015100081422FD000BF00BF00BF00BF00BF00BF8F
:1015200000BF00BF00BF00BF00BF00BF00BF00BFC3
:1015300000BF00BF00BF00BF00BF00BF00BF00BFB3
:1015400000BF00BF00BF00BF00BF00BF00BF00BFA3
:1015500000BF00BF00BF00BF00BF00BF00BF00BF93
:1015600000BF00BF00BF00BF00BF00BF00BF00BF83
:1015700000BF00BF013BC3D1094B1E7028E70949DA
:101580000B6058E7084B83F800C055E60010014097
:1015900000E100E06C0000200024F400540700206B
:1015A00045070020580700203C07002072B6024A79
:1015B00013680133136070475C070020034A136807
:1015C000013B136003B962B6704700BF5C0700209F
:1015D00010B51A4B1A6882B0A2B100221A601B68BB
:1015E00000934FF080430122154C0099C3F8082363
:1015F000A368627033B10CCB0020A2609847A36847
:10160000002BF8D10F4B1A68AAB100221A601B6890
:1016100001934FF080430222094C0199C3F808233B
:1016200023690122A27033B10CCB012022619847BB
:101630002369002BF8D102B010BD00BF00010040AB
:101640006007002004010040002810B418DB00F1FE
:10165000604303F561434901C9B283F80013C3B283
:101660004009800000F1604000F5614003F01F0276
:1016700001239340C0F8803103605DF8044B70474C
:10168000C3B2044A03F00F0449012244C9B21176DF
:10169000E6E700BFFCEC00E0034B187808B18520BA
:1016A000704701221A707047780700202DE9F84F23
:1016B000164DDFF85C90824600264FF0010803E0EB
:1016C000FFF77CFFA5431BD0F7B2002008FA07F410
:1016D000FFF76CFF2C424FF0000006F10106EFD03F
:1016E000D9F8003014EA030BEAD11C4358468AF8B3
:1016F0000070C9F80040FFF761FF5846BDE8F88F59
:101700004FF0040B5846BDE8F88F00BFFFFF0F00F5
:101710007407002051B14AB10123834010B4C3F3D0
:1017200013042CB907205DF8044B70470E20704756
:10173000094C2468234203D108205DF8044B70470C
:10174000C00000F1804303F5F8330020C3F8101502
:10175000C3F81425E7E700BF740700200123834086
:10176000C3F313022AB1054A1268134201D10820BB
:101770007047034A0020C2F8043570477407002000
:1017800000F001402DE9F041724B1A6888B0002A40
:101790003CD1714F97F82B30002B45D16F4B1A6815
:1017A000002A6DD16E4B1C68002C7AD13E699EB127
:1017B0004FF000480125B6FA86F2930003F58C73CA
:1017C00003F1804101F5E04128FA02F2086826EAB7
:1017D000020620B9002EEED108B0BDE8F081A3F5D5
:1017E0008C730C6083F0040209680491C2F38002D8
:1017F000DB088DF819208DF818308DF814503B68EF
:10180000049A05A89847002ED5D1E5E70022524F4B
:101810001A60196897F82B3000910099002B4AD074
:1018200097F82C30002B5ED14E4B1A68002AB5D0A9
:1018300000221A601968FB8A01910199002B60D07F
:1018400097F82A0084B2A34271D93A897968464D43
:101850001B1B9BB292B2D21A01EB4202FB82C5F86B
:101860002C26C5F830063B4B404A002119601B6806
:101870000293012302991360384B1A68002A91D011
:1018800000221A6008A81B680393022100F80C1DAF
:101890003B68039987F829209847314B1C68002C36
:1018A00084D000221A601B680593059B87F82920C5
:1018B00008B0BDE8F081FA68786839898DF814308D
:1018C0000690ADF81C10002A2DD02749B88A7A60FE
:1018D0000122FB6038810A603B6805A89847002315
:1018E00087F82C3056E7FB68786839898DF8142022
:1018F0000690ADF81C10B3B1B98A7B60FA603981EB
:10190000EAE73B8997F82A403A89796816481B1B11
:101910009BB292B2D21A01EB4202FB82C0F82C2693
:10192000C0F830469FE7002387F82930D4E79AD1E2
:10193000FB684BB10C49FA82012287F82C20C1F8D0
:101940002C36C1F830068EE70122FB8287F82C2066
:1019500089E700BF047100407C070020107100403F
:10196000147100400071004000700040047000409D
:1019700070B5214C94F8283082B013B1082002B021
:1019800070BD002933D0002833D003781B4D21606F
:10199000C5F8F03543781A4AC5F8F4356FF00041C0
:1019A0000023C678C5F80813136012680192817885
:1019B00084F82B6007200126019A84F8293084F8E6
:1019C0002A30236184F82C3084F82860FFF73CFE2D
:1019D00094F82B300222C5F804230BB1C5F8046338
:1019E000064B01220020C3F8002502B070BD07207D
:1019F000C5E704480123C9E77C07002000700040C8
:101A00000471004060320000154B93F829200AB1A0
:101A10001120704770B500F10C0213F8124024B980
:101A200093F82A40013483F82A400D4603EB420123
:101A30000446EE79287A03F8126048702946204659
:101A400000F01AFD200100F1804303F5E043EA793C
:101A5000297AC3F81415C3F81025002070BD00BF03
:101A60007C070020044B054A93F82B00044B002808
:101A70000CBF1046184670477C07002004700040D9
:101A800000700040F0B42D4B2D4A93F829401225E8
:101A9000022C82B0C2F808531CD0012C20D093F83D
:101AA0002B405860022701250026C2F8047383F8F2
:101AB00029501981DE60E4B9224BC2F82C06C2F825
:101AC00030161C601B680193019B1560204602B014
:101AD000F0BC70471120C2F8045302B0F0BC70474C
:101AE000DC688CB102231120C2F8043302B0F0BCD0
:101AF000704793F82A40C2F82C063046D982C2F8C3
:101B0000304602B0F0BC704793F82B20D860998221
:101B10006AB90C4A1368002BFCD0002313601268CA
:101B2000074B0092009AC3F82C06C3F83016044BFA
:101B30000222C3F804230020C9E700BF7C0700206D
:101B400000700040007100402DE9F04104792E4DF5
:101B500066003719BF0005EB070E82B09EF808300B
:101B60001BB1082002B0BDE8F081002A49D0EA513B
:101B70004A68CEF8042042799E466AB19A0002F57E
:101B8000A072076847F802E0BF5842790197013315
:101B9000DBB29A42019FF1D8804600680F4640F3BD
:101BA0000730C978FFF750FDD8F800107B78D1F8DE
:101BB000042503F0030322F003021343C1F80435A4
:101BC000D8F80010BB78D1F8082503F0030322F001
:101BD00003021343C1F80835D8F800103B78D1F858
:101BE0001025344405EB840522F00F02012003F098
:101BF0000F03134328720020C1F8103502B0BDE86E
:101C0000F0810720AEE700BFAC0700200368054A5B
:101C100001211960037903EB430302EB83030222E2
:101C20001A727047AC070020F0B407689DF8106086
:101C3000D7F8004240F201158D4024EA0504C7F8A8
:101C400000420568D5F800422343C5F800324FF43E
:101C500080348C40036846B9C3F80843036801F533
:101C6000A87143F82120F0BC7047C3F80443F5E79E
:101C700000B52B4B1A6883B022B12A4AD2F804234C
:101C8000D20328D4284B1A6822B1264AD2F804235A
:101C900090032CD4254B1A6822B1224AD2F804238F
:101CA000510330D4224B1A6822B11E4AD2F80423C1
:101CB000120302D403B05DF804FB00221A601D4A2F
:101CC0001B68019351681368019A4FF4A6709847F6
:101CD00003B05DF804FB00221A60164A1B680193EA
:101CE00051681368019A4FF4A0709847CAE7002220
:101CF0001A60104A1B68019351681368019A4FF4E7
:101D0000A2709847C6E700221A600A4A1B6801932E
:101D100051681368019A4FF4A4709847C2E700BF56
:101D200040810040008000404481004048810040E4
:101D30004C810040AC070020F0B50479714E64017D
:101D4000331987B0DD7E15B1082007B0F0BD4D7F97
:101D50001D770D686B1C0BD04FF0A0470123AB40E3
:101D6000C7F808350B6803F5E073032547F82350DF
:101D70004B685F1C06D003F5E0734FF0A0450027C9
:101D800045F82370037906EB43131B7F002B4CD0DF
:101D900003688D69C3F824550F7D4B7D05683B436F
:101DA000C5F86C3503680F684D68C3F80C75C3F847
:101DB00014550B7D012B00F09A80331905465A60AB
:101DC0000B693351EAB10379097F026806EB4313CB
:101DD0001B7F002B65D1C2F81C31D2F81C712A6818
:101DE0000097009FC2F84431D2F844212B6846483E
:101DF0000192019AC3F80403286840F30730FFF703
:101E000023FC2B792A6806EB43131B7F002B44D05D
:101E10000823C2F80035344400200123E376E0753E
:101E20002076A075A07607B0F0BD05688F69C5F86B
:101E3000247591F814E04D7D076845EA0E05C7F852
:101E40006C550568D1F800E04F68C5F81475C5F801
:101E50000CE50D7D012DB0D18D686F1C05D005F509
:101E6000E0754FF0A04747F82530CB685D1C0DD0DA
:101E700001254FF0A04705FA03F3C7F80835CB68F2
:101E800003F5E073032547F82350CB6805688F6896
:101E9000C5F80835C5F810758FE70423C2F800357A
:101EA000B9E70023C2F81031D2F810712A680297FE
:101EB000029FC2F82031D2F820712A680397039F4D
:101EC000C2F82431D2F824712A680497049FC2F81A
:101ED0004431D2F844212B6805920C48059AC3F886
:101EE0000403286840F30730FFF7AEFB89E78B68EF
:101EF0005D1CBAD003F5E0734FF0A045002745F80C
:101F00002370B2E7B807002080000200100302002F
:101F1000F0B502793C4B046852019918097F0029F9
:101F20006CD00021C4F8001599184968B1B1017945
:101F300003EB4111097F002963D10168334CC1F8DB
:101F400008430168324E090B4CB26409203401F099
:101F50001F01012505FA01F146F8241001790768EF
:101F600003EB4111D7F80C65097FD7F814554FF0F2
:101F7000FF3EA9B3D7F80815D7F81045C7F80CE508
:101F8000C7F814E50068C0F808E5C0F810E5771C4C
:101F900006D006F5E0764FF0A040022740F8267004
:101FA0006E1C06D005F5E0754FF0A040022640F803
:101FB0002560651C06D004F5E0744FF0A0400225B2
:101FC00040F82450481C06D001F5E0714FF0A040C5
:101FD000022440F8214013440022DA765A60F0BD12
:101FE000D7F80815D7F81045C7F814E5C7F80CE579
:101FF0000068C0F808E5C0F810E5C8E7C4F80015A7
:1020000092E70168034C9AE7B807002084020200B7
:1020100000E100E010030200F0B50379524C5B01CF
:10202000E51887B02D7F3DB101F06045B5F1005F47
:1020300002D0102007B0F0BD23449E7D16B11120C0
:1020400007B0F0BD9A7599609E8205796D0162199D
:10205000137F13BB0168C1F81C31D1F81C61016802
:1020600004960126049F8E600168D2F808E0C1F84A
:102070001C31D1F81C310593059B968A938A5768C9
:10208000B6B201331EF806609BB29382C1F81C659C
:10209000002F2FD0002007B0F0BD03689168C3F86F
:1020A0002061D3F8207103680197019FC3F858613C
:1020B000D3F8586103680296967D029FC3F84415D1
:1020C000C3F848650368012199605368002BE1D18A
:1020D000036801E0002945D1D3F82021D3F8581135
:1020E000002AF7D0002914BF0F2000202C44002321
:1020F000A3759FE7967D938A9BB29E4202F11401DD
:1021000022D9016804E0938A9BB2B3F5807F03D0A3
:10211000D1F81C31002BF6D0938A9BB2B3F5807FA7
:10212000E9D0C1F81C71D1F81C310393039BB2F8BC
:1021300014C0938A1FFA8CFC01331EF80CC09BB2AA
:102140009382C1F81CC5D6E70B889BB2B3F5807F9C
:1021500008D00268D2F81C31002BFBD00123D360D9
:102160000020C3E70F20C1E7B80700200279044B25
:1021700003EB4213987D003018BF0120704700BF69
:10218000B807002070B5A54C237F8EB0002B73D10B
:10219000A34AD2F80413890546D4A14BD3F80423EB
:1021A000520704D5D3F80821002A40F0C9809C4B7F
:1021B000D3F81C21BAB1A28AA17D92B28A424FF013
:1021C0000002C3F81C2180F0A880D3F81C210692DD
:1021D000069AA18AA28AA06889B20132415C92B2B1
:1021E000A282C3F81C158E4BD3F84421D2B1002231
:1021F000C3F84421D3F84411A27E04910499002A23
:1022000040F08880E37D6BB10023617EE268E37576
:1022100001238DF830108DF828300B9294E80A00D5
:102220000AA898470EB070BDD2F824110029B4D086
:10223000C2F82431D2F82411A37E07914FF4017122
:102240000798C2F808130BB901235360744A02239C
:102250008DF82830D2F88034C2F88034E07DE2680E
:102260000D9300238DF83000E375237621680B92DF
:1022700063680AA898479AE7694BD3F82421002A93
:1022800040F09280D3F8101161B1C3F81021D3F857
:10229000101103910399D3F83C15E07DC9B288422F
:1022A00000F0A4805E4BD3F84421B2B10022C3F801
:1022B0004421D3F84401E17D0190019869B1D3F83C
:1022C0003C35E1688DF8303001230B918DF82830D2
:1022D000E27594E80A000AA89847514BD3F82021E8
:1022E000002A9FD00022C3F82021D3F82001A17D2D
:1022F00000900098002995D0D3F84C15A3688DF86C
:1023000030100B938DF82820A27594E80A000AA8D3
:10231000984787E701221A6074E7D3F81C310593C8
:10232000059B00293FF45FAFA3688DF830100B9335
:102330008DF82820A27594E80A000AA8984752E769
:10234000E27D002A6ED00022C3F80821D3F80821CC
:102350000892089AE168627ED3F818358B54637E40
:10236000E27D0133DBB26376637E93427FF41FAF7D
:10237000237E002B6CD1A37E13B9294B01225A6016
:10238000274AE06863684FF40171C2F80813627E5F
:102390008DF83020002501220B902168E5758DF81D
:1023A00028200AA8984702E70022C3F82421D3F87E
:1023B0002411029102218DF828100299D3F880147B
:1023C000C3F880140D91D3F83C15E368E2752276CA
:1023D0008DF830100B93216863680AA89847104B5A
:1023E000D3F84421002A3FF478AF5FE7217E11B390
:1023F000D3F80062E568E17526F02006C3F80062B4
:1024000026698DF8300001238DF828302276216866
:102410000B95E66063680AA8984743E7B807002071
:1024200000200040C3F80821D3F808110991099948
:10243000D3F8183598E7E268E17501238DF830008C
:102440008DF828300B9294E80A000AA8984729E7EB
:10245000607EE5682169E375012200238DF8300074
:10246000E160237663760B958DF8282094E80A00C6
:102470000AA898479BE600BFF0B44B788C780F7899
:10248000CA780E794D791B01240204F4E06403F04C
:1024900030032343120307F00304234302F4805262
:1024A0008C793604134306F4E02602012D053343EC
:1024B00005F48015240602F1804202F5E0422B4328
:1024C00004F080742343C2F818351046CB790A7A99
:1024D000C0F81425C0F81035F0BC70470649074A0B
:1024E000074B9B1A03DD043BC858D050FBDC00F0BF
:1024F00013F8FDF7BBFF0000B03300000000002020
:10250000E8010020FEE7FEE7FEE7FEE7FEE7FEE764
:10251000FEE7FEE7FEE7FEE7F0B4A64B1B78062BCE
:102520001BD0A54AD2F8883043F47003C2F8883033
:10253000BFF34F8FBFF36F8F4FF01023D3F80022FC
:10254000002AC0F20581D3F80432002BC0F20081CA
:102550009A4B9B4A1A60F0BC70479A4B1B681E0747
:10256000DFD1994B1B6803F0F003302B02D1974B5E
:10257000974A1A60944B1B6803F0F002302A00F06F
:10258000D68003F0E003402B00F0D1808E4B1B6817
:1025900003F0F003302B00F0BB808B4B1B6803F083
:1025A000F002302A00F0A08003F0E003402B00F09E
:1025B0009B80854B1B6803F0F003302B00F0868076
:1025C000814B1B6803F0F003302B68D07E4B1B68F7
:1025D00003F0F003502B10D07B4B1B6803F0F0028C
:1025E000302A03D003F0E003402B9AD1794B7A4A8A
:1025F0001B6803F04F03136093E74FF08052774B53
:10260000D2F80414C3F82015D2F80814C3F824151E
:10261000D2F80C14C3F82815D2F81014C3F82C15EE
:10262000D2F81414C3F83015D2F81814C3F83415BE
:10263000D2F81C14C3F84015D2F82014C3F844157E
:10264000D2F82414C3F84815D2F82814C3F84C154E
:10265000D2F82C14C3F85015D2F83014C3F854151E
:10266000D2F83414C3F86015D2F83814C3F86415DE
:10267000D2F83C14C3F86815D2F84014C3F86C15AE
:10268000D2F844244B49C3F870250A78062A7FF40F
:1026900048AF4C4B1B681B077FF443AF9CE7454B8F
:1026A0004F491B784F4D5048504A05270F6001266F
:1026B00000243F21062B2E60046011607FF431AFAF
:1026C000404B1B681A077FF42CAF7FE7394B484A11
:1026D0001B780321062B11607FF423AF394B1B6855
:1026E00019077FF41EAF6BE7324B1B784FF0804227
:1026F0000021062BC2F80C11C2F81011C2F83815CF
:102700007FF40FAF2F4B1B6818077FF40AAF50E719
:102710003849284ACB68127823F08073062ACB60A8
:10272000B4D1284B1B681C077FF4FBAE35E7324A57
:10273000204B12681B783149C2F34232062B0A60E3
:102740007FF4EFAE1F4B1B681D077FF4EAAE1DE759
:102750002B4B0122C3F80425D3F80024002AFBD018
:102760004FF0102315222649C3F80022D1F8003477
:10277000002BFBD04FF010221521214BC2F8041280
:10278000D3F80024002AFBD000221D49C3F80425F9
:10279000D1F80034002BFBD0BFF34F8F0649194B03
:1027A000CA6802F4E0621343CB60BFF34F8F00BFEF
:1027B000FDE700BFE00F00F000ED00E06C0000203E
:1027C0000090D003E40F00F0E80F00F074C0074061
:1027D0000DF0ADBA58020010E40E004000C00040F9
:1027E00010560040885600401856004014560040CD
:1027F000A0050040F0ED00E0440200103C05004060
:1028000000E001400400FA05044B054A1B681B6AFE
:10281000002B08BF1346D3F8EC00704700000020DF
:102820007000002082B001B901A942B14BB1137808
:102830000B601278101C18BF012002B070471046C0
:10284000FBE76FF00100F8E710B5431E0A44914220
:1028500000D110BD11F8014B03F8014FF7E700005C
:102860000CB430B5174B0C1E9DB01D6808DA8B23D5
:102870002B604FF0FF301DB0BDE8304002B0704714
:102880004FF40273ADF8143014BF04F1FF33234644
:10289000049307934FF6FF7302900690ADF816303D
:1028A000209A21AB02A92846019300F07DF8431C31
:1028B000BCBF8B232B60002CDDD0029B00221A7042
:1028C000D9E700BF00000020034613F8012B002ABF
:1028D000FBD1181A0138704749B1FF2A85BF8A23F6
:1028E00003600A704FF0FF3098BF01207047084620
:1028F00070472DE9F0478E689E4282460C4691460D
:10290000984635D88A8912F4906F31D025680969C4
:102910006F1A6569022305EB450595FBF3F508F190
:1029200001033B449D4238BF1D46530531D529461E
:1029300000F07EFB064650B90C23CAF80030A3898C
:1029400043F04003A3814FF0FF30BDE8F0873A46E3
:102950002169FFF779FFA38923F4906343F0800393
:10296000A381266165613E44ED1B2660A560464655
:10297000464528BF464632464946206800F0F0FAF0
:10298000A3689B1BA36023681E4426600020BDE84B
:10299000F0872A4600F0AAFB06460028E1D121690B
:1029A000504600F0F7FAC7E72DE9F04F9DB080469A
:1029B00003938B891C060D4616460FD50B696BB920
:1029C000402100F035FB2860286128B90C23C8F8A5
:1029D00000304FF0FF30C5E040236B6100230993C6
:1029E00020238DF8293030238DF82A304FF0010B49
:1029F00037463C4614F8013B002B3CD1B7EB060AA6
:102A00000BD05346324629464046FFF772FF01304D
:102A100000F0A380099B534409933B78002B00F0FE
:102A20009C8000234FF0FF32049307930592069396
:102A30008DF853301A9305222178504800F040FA5F
:102A4000671C049BD8B9D90644BF20228DF85320B7
:102A50001A0744BF2B228DF8532022782A2A16D039
:102A6000079A00210A20274601343B78303B092B86
:102A700051D9C9B111E0252BC0D02746B9E73F4A4B
:102A8000801A0BFA00F0184304903C46D3E7039AEF
:102A9000111D12680391002A01DB079204E05242E3
:102AA00043F00203079204933B782E2B0ED17B78E0
:102AB0002A2B07F1010132D1039B1A1D1B680392D7
:102AC000002BB8BF4FF0FF33023705932C4C3978F9
:102AD0000322204600F0F4F938B14023001B03FA2A
:102AE00000F0049B034304930137397825488DF89F
:102AF000281006227E1C00F0E3F9002835D0224B76
:102B0000FBB9039B073323F0070308330393099BA7
:102B10004B4409936CE700FB02320121A3E7002339
:102B2000059318460A240F4601313A78303A092AAB
:102B300003D9002BCAD00590C8E704FB002001236D
:102B4000F1E703AB00932A46104B04A94046AFF3CC
:102B50000080B0F1FF3F8146D9D1AB895B063FF5DC
:102B600038AF09981DB0BDE8F08F03AB00932A463B
:102B7000064B04A9404600F081F8EAE76F330000F5
:102B8000753300007933000000000000F3280000D6
:102B90002DE9F04791461F468A680B69DDF82080D1
:102BA0009342B8BF1346C9F8003091F84320064657
:102BB0000C4612B10133C9F800302368990642BFB0
:102BC000D9F800300233C9F80030256815F0060541
:102BD00007D104F1190AE368D9F800209B1A9D4235
:102BE00029DB94F843302268003318BF0123920692
:102BF0002ED404F1430239463046C047013021D07B
:102C00002368E568D9F8002003F00603042B08BF09
:102C1000AD1AA36822690CBF25EAE5750025934229
:102C2000C4BF9B1AED184FF000091A344D451BD153
:102C30000020BDE8F0870123524639463046C047A0
:102C4000013003D14FF0FF30BDE8F0870135C2E716
:102C5000E1185A1C302081F84300224494F84510B2
:102C600082F843100233C4E7012322463946304636
:102C7000C0470130E6D009F10109D7E72DE9F0435B
:102C800017460A7E85B06E2A984606460C460C9B6F
:102C900001F1430E00F0BC801AD8632A2ED00AD866
:102CA000002A00F0C880582A00F08A8004F142050A
:102CB00084F842202AE0642A01D0692AF6D12168EA
:102CC0001A6811F0800F23D0111D1960136827E0D6
:102CD000732A00F0B48008D86F2A2AD0702AE5D170
:102CE0000A6842F020020A6003E0752A21D0782A9F
:102CF000DCD1782284F845206E4964E01A6801F13D
:102D00004205111D1960136884F842300123A3E0C5
:102D100011F0400F02F104011960D7D0B2F9003070
:102D2000002B03DA2D225B4284F8432062490A22F9
:102D300017E02068196810F0800F03D0081D186094
:102D40000B6806E010F0400F01F104001860F7D0A6
:102D50000B8859496F2A14BF0A220822002084F8E0
:102D600043006568A560002DC0F29C80206820F0BB
:102D700004002060002B3FD1002D40F09580754667
:102D8000082A0BD12368DA0708D5236962689A42BA
:102D9000DEBF302305F8013C05F1FF35AEEB05033E
:102DA0002361CDF800803B4603AA21463046FFF759
:102DB000EFFE013055D14FF0FF3005B0BDE8F08394
:102DC00081F845203C492268186812F0800F00F114
:102DD00004051D6001D0036802E05506FBD5038899
:102DE000D00744BF42F0200222601BB9226822F0C3
:102DF000200222601022B1E77546B3FBF2F002FB1D
:102E00001033CB5C05F8013D03460028F5D1B7E748
:102E100008681A68496910F0800F04D0101D186006
:102E20001368196007E010F0400F02F10400186009
:102E30001368F6D01980002323617546B1E71A683C
:102E4000111D1960156862680021284600F038F8E5
:102E500008B1401B606063682361002384F843303D
:102E60009FE723692A4639463046C0470130A2D041
:102E700023689B0707D5002504F11909E368039A25
:102E80009B1A9D4205DBE068039B9842B8BF184639
:102E900093E701234A4639463046C04701308AD07D
:102EA0000135EBE7002BA7D10B7884F8423004F111
:102EB000420565E791330000803300000000000008
:102EC00001F0FF01102A2BDB10F0070F08D010F8DB
:102ED000013B013A8B422DD010F0070F42B3F6D1DF
:102EE000F0B441EA012141EA014122F007047FF0F8
:102EF00000070023F0E80256083C85EA010586EA4F
:102F0000010685FA47F5A3FA87F586FA47F6A5FA8A
:102F100087F68EB9EED1F0BC01F0FF0102F0070296
:102F200032B110F8013B013A83EA010313B1F8D141
:102F30000020704701387047002D06BF3546033822
:102F4000073815F0010F07D1013015F4807F02BF5B
:102F5000013015F4C03F0130F0BC0138704700BFAC
:102F6000884210B501EB020303D8421E99420CD1EE
:102F700010BD9842F9D28118D21AD34200D110BDA7
:102F800013F8014D01F8014DF7E711F8014B02F874
:102F9000014FEBE738B50546002945D051F8043C10
:102FA0000C1F002BB8BFE41800F0D6F81F4A1368B6
:102FB000104633B9636014602846BDE8384000F01D
:102FC000CCB8A3420CD921686218934204BF1A6896
:102FD0005B68636004BF521822600460ECE713462C
:102FE0005A680AB1A242FAD919685818A0420BD1FE
:102FF00020680144581882421960DDD11068526877
:103000005A6001441960D7E702D90C232B60D3E73B
:10301000206821188A4204BF11685268626004BFA8
:10302000091821605C60C7E738BD00BFD8070020E1
:1030300070B5CD1C25F0030508350C2D38BF0C25C7
:10304000002D064601DBA94203D90C233360002082
:1030500070BD00F081F8234A1468214691B9224CD2
:1030600023681BB9304600F067F8206029463046D7
:1030700000F062F8431C26D10C233360304600F088
:103080006CF8E4E70B685B1B1AD40B2B0FD90B60B1
:10309000CD50CC18304600F060F804F10B00231D31
:1030A00020F00700C31A1BD05A42E25070BD8C4278
:1030B0000DBF63684B686360136018BF0C46E9E797
:1030C0000C464968CAE7C41C24F00304A04205D09A
:1030D000211A304600F030F80130CDD02560D9E714
:1030E00070BD00BFD8070020DC070020F8B50746F8
:1030F00014460E4621B91146BDE8F840FFF798BFC7
:1031000022B9FFF747FF25462846F8BD00F026F80C
:1031100084420FD921463846FFF78AFF054600282A
:10312000F2D031462246FFF78FFB31463846FFF793
:1031300031FFE9E73546E7E738B5064C0023054699
:103140000846236000F014F8431C02D1236803B141
:103150002B6038BDE40700207047704751F8040C1D
:103160000028A0F10400BCBF0B58C0187047000035
:10317000044A05491368002B08BF0B461844106029
:1031800018467047E0070020E8070020F8B500BFA8
:10319000F8BC08BC9E467047F8B500BFF8BC08BC38
:1031A0009E4670470400002000000000020000015D
:1031B0000000000000800040000400004150503A30
:1031C000494E464F3A53414144432048414C2073B5
:1031D000696D706C65206578616D706C652E0D0A87
:1031E000000000004150503A494E464F3A41444396
:1031F000206576656E74206E756D6265723A202565
:10320000640D0A004150503A494E464F3A25640D2C
:103210000A000000FFFFFFFFFFFFFFFFFFFFFFFFB0
:10322000FFFFFFFF00000000000000000000D601CB
:10323000070100005B253038645D00004F76657241
:10324000666C6F770D0A00004150505F4552524F37
:10325000523A4552524F523A466174616C0D0A001F
:10326000010007004300504F534958002E00002032
:103270002020202020202020282828282820202026
:1032800020202020202020202020202020202088D6
:10329000101010101010101010101010101010043A
:1032A000040404040404040404101010101010108A
:1032B000414141414141010101010101010101017E
:1032C0000101010101010101010110101010101094
:1032D000424242424242020202020202020202024E
:1032E000020202020202020202021010101020006A
:1032F00000000000000000000000000000000000CE
:1033000000000000000000000000000000000000BD
:1033100000000000000000000000000000000000AD
:10332000000000000000000000000000000000009D
:10333000000000000000000000000000000000008D
:10334000000000000000000000000000000000007D
:10335000000000000000000000000000000000006D
:10336000000000000000000000000000000000233A
:103370002D302B2000686C4C006566674546470081
:10338000303132333435363738394142434445469B
:103390000030313233343536373839616263646531
:0833A0006600000000000000BF
:0833A800C4D0FF7F010000000A
:1033B00004000020000000000000000000000000E9
:1033C00000000000000000000000000000000000FD
:1033D00000000000000000000000000000000000ED
:1033E00000000000000000000000000000000000DD
:1033F00000000000000000000000000000000000CD
:1034000000000000000000000000000000000000BC
:103410000000000000200040000000000090D003E9
:103420004300000000000000000000000000000059
:10343000000000000000000000000000000000008C
:103440004300000000000000000000000000000039
:10345000000000000000000000000000000000006C
:103460004300000000000000000000000000000019
:10347000000000000000000000000000000000004C
:1034800043000000000000000000000000000000F9
:10349000000000000000000000000000000000002C
:1034A00043000000000000000000000000000000D9
:1034B000000000000000000000000000000000000C
:1034C00043000000000000000000000000000000B9
:1034D00000000000000000000000000000000000EC
:1034E0004300000000000000000000000000000099
:1034F00000000000000000000000000000000000CC
:10350000D928000025280000000000006E320000CD
:103510006C32000074330000743300007433000018
:1035200074330000743300007433000074330000FF
:103530007433000074330000FFFFFFFFFFFFFFFF45
:10354000FFFFFFFFFFFF0000010041534349490017
:10355000000000000000000000000000000000006B
:1035600000000000000000000000415343494900F2
:10357000000000000000000000000000000000004B
:103580000000000000000000000000002504000012
:0835900001040000000000002E
:04000003000024DDF8
:00000001FF
