:020000021000EC
:10F00000000001204D3602007536020077360200FE
:10F01000793602007B3602007D36020000000000D7
:10F020000000000000000000000000007F36020029
:10F03000813602000000000083360200853602009F
:10F040005106020087360200791502008736020059
:10F0500087360200873602008D0A020087360200DA
:10F0600087360200873602008736020087360200A4
:10F070008736020087360200873602008736020094
:10F08000873602000DF8010087360200873602003D
:10F09000D1F8010087360200C53D02008736020024
:10F0A0008736020087360200873602008736020064
:10F0B00087360200873602000000000000000000D2
:10F0C0008736020087360200873602008736020044
:10F0D00087360200873602008736020000000000F3
:10F0E0000000000000000000000000000000000020
:10F0F0000000000000000000000000000000000010
:10F1000000000000000000000000000000000000FF
:10F1100000000000000000000000000000000000EF
:10F4000010B5054C237833B9044B13B10448AFF35E
:10F4100000800123237010BDAC21002000000000FB
:10F42000A84E02000C4B43B10C480D4910B5AFF388
:10F4300000800C48036823B910BD0A48036833B93B
:10F440007047094B002BF7D0BDE810401847064B1A
:10F45000002BF5D0184700BF00000000A84E0200A6
:10F46000B0210020A821002000000000154B002B37
:10F4700008BF134B9D46A3F5803A00218B460F46EB
:10F480001348144A121A00F063F80F4B002B00D0F7
:10F4900098470E4B002B00D0984700200021040015
:10F4A0000D000D48002802D00C48AFF3008000F09A
:10F4B0002BF82000290002F023FF00F011F800BF14
:10F4C0000000080000000120000000000000000013
:10F4D000AC210020302800200000000000000000C7
:10F4E00008B5074B044613B10021AFF30080054B6C
:10F4F0001868836A03B19847204600F031F800BFCE
:10F50000000000006C4D020070B50D4E0D4CA41BA8
:10F51000A4100025A54209D10B4E0C4C05F01AFC95
:10F52000A41BA4100025A54205D170BD56F82530B6
:10F5300098470135EEE756F8253098470135F2E750
:10F54000A0210020A0210020A0210020A421002033
:10F5500002440346934200D1704703F8011BF9E7C8
:10F56000FEE700BF2DE9F84F254B93F800E0BEF110
:10F57000000F31D0DFF88CB0DFF88CA0DFF88C9072
:10F580000024012703E00134E4B2744524D226B2FA
:10F59000DBF80050DAF8003015F8360007FA00F111
:10F5A000194205EBC608EED023EA0103CAF8003081
:10F5B00001F062FA15F83660D9F8003007FA06F55E
:10F5C0002B4000FA06F18B4208D00D4B013493F822
:10F5D00000E0E4B27445DAD3BDE8F88FD8F804301F
:10F5E000002BF2D098F80110A1F10101B1FA81F1DC
:10F5F0004909091AB1FA81F1490930469847E4E707
:10F60000C8210020F8210020F4210020F021002052
:10F6100070B50646114800F0BDFD40B9104D0124FB
:10F620002B68B4401C4203D023EA04042C6070BD54
:10F63000304601F021FA0B4E326860B122432B684C
:10F64000094932601C432C60044809680022BDE867
:10F65000704000F047BD22EA0402F0E7D02100200C
:10F66000F4210020F0210020CC210020042A01D820
:10F67000072070472DE9F04182B0884605461746BD
:10F6800001F0CEF8002836D01D4C1E481E491F4AF6
:10F690001F4B2560002608F1FF3480F800800F60C2
:10F6A00016601E60E4B2B8F1000F1ED0DFF86C8067
:10F6B000032701E0FF2C18D023B205EBC30215F895
:10F6C000330093788DF80470424601A98DF80660E6
:10F6D0008DF807608DF8053001F0ACF8013CE4B21C
:10F6E0000028E7D002B0BDE8F0810A4A0A480021AC
:10F6F00000F0E6FCF6E701F051F80028C4D0F1E78D
:10F70000F8210020C8210020CC210020F021002079
:10F71000F421002065F50100704D020011F6010092
:10F7200070B5084D2B785BB1074E0024336801217A
:10F7300013F8340001F03EF92B780134A342F5D8D8
:10F74000002070BDC8210020F821002000B585B040
:10F7500000230390194601AA44F20100ADF80430D9
:10F76000029300F003F805B05DF804FBBFF34F8F80
:10F770000549064BCA6802F4E0621343CB60BFF34D
:10F780004F8F00BFFDE700BF00ED00E00400FA0569
:10F7900059B10AB909207047531E1A40FAD1826044
:10F7A00001608380C260104670470E20704700BF22
:10F7B00010B48468C26803468088121B904203D24A
:10F7C00004205DF8044B7047DA681C680240002092
:10F7D000A154DA680132DA605DF8044B704700BF6B
:10F7E00003468068DA6890420DD010B498689A8811
:10F7F0001C6802400020A25C0A709A6801329A607C
:10F800005DF8044B70470520704700BF2DE9F843B1
:10F81000274A284B0025C2F84051C2F84451C2F88B
:10F820004851C2F84C51C2F80051C2F804511B684B
:10F830001BB32149D2F804450A68204FA41A1A685C
:10F8400024F07F44A242A84609D8197CDE69A41A94
:10F850001544A1B91EB133461A68A242F5D9184918
:10F86000184A0B7812789A421BD01749174A41F868
:10F8700023504FF48013C2F80031BDE8F883D3F869
:10F88000149083F810803A689B69484619462AB15B
:10F8900090470028DED0FFF759FFDBE71846C8473E
:10F8A000D8E7531CDBB2022B08BF00230B70DCE748
:10F8B000001001401C22002018220020FC21002002
:10F8C00015220020142200200C22002000E100E07C
:10F8D0002DE9F04FA34AA44913780978A348994227
:10F8E00089B0D0F800B000F0E5800133DBB2022B24
:10F8F00008BF002313709E4A52F823609B4A0BEB0B
:10F90000060323F07F43136001230593994B93F87B
:10F910000090994BD3F800A0964B5C785B680393FA
:10F92000944B9B780293954B1B7804938F4B002745
:10F930001B680693CC465546D646B84601973B46CB
:10F940000097A44523D00CEB4C020398029F10F8BB
:10F9500032100CF1010C5FFA8CFCBC4508BF4FF073
:10F96000000C022900EBC2027BD00329E9D1BEF1D1
:10F97000000FE6D0DEF81C208EF810309646002AE4
:10F98000F8D11546A4454FF001020092DBD1019B4E
:10F99000009F002B40F0A380B8F1000F02D0734B02
:10F9A000069A1A600FB1744B1D60059B002B40F046
:10F9B000C281BAEB0E0318BF012305930025002373
:10F9C000019304931F466D4BDFF8B4B11B78069387
:10F9D000664BD3F80080684B1B68009376464FF067
:10F9E000010A35B36A68A9682B46ED69A2EB0800E5
:10F9F00020F07F40584577D8014419605F609F60D0
:10FA000083F810A0DF61002E00F08E8030688842FD
:10FA100080F08280344603E0106888426DD214463C
:10FA2000E269091A002AF7D11960DA61E361002D51
:10FA3000D8D1039909EB490309F10102CC4501EB47
:10FA4000C3045FFA82F900F09D8011F83300029B35
:10FA50004B4508BF4FF0000901286AD001230493E9
:10FA6000E8E75068BEF1000F3FF46BAF7045714698
:10FA700017D0009F02E0904205D01146CA69002AC3
:10FA8000F9D100975DE7884200970BD0C269006802
:10FA9000CA61002A3FF455AF116801441160AE46B7
:10FAA0004FE77046DEF81C20964632B1154601221B
:10FAB0000092EBE70026059628E702F1804202F566
:10FAC00088324FF00108C2F808807546CDF818E07A
:10FAD000CDF80080CDF80480CDF81080D6E7274B14
:10FAE0009DF810201A7057E7A8EB020222F07F421F
:10FAF0008A4208D2891A196080E7401A106019609A
:10FB0000DA61E36193E71F605F609F6083F810A094
:10FB1000DF614EB130680021411A31600093DE612F
:10FB20001E46012301935CE700931E4601230193C7
:10FB300057E763681A7C0492002A7FF47BAFA268BF
:10FB40005A60E168996007902069D86064699C6197
:10FB5000069C002C00F0EC80049A5A600494002269
:10FB600044E700BF142200201522002018220020A4
:10FB70000C220020002200201C220020082200204D
:10FB8000FEFF7F00049B002B40F0A681019B13B178
:10FB9000804B009A1A60764500F0C080002E00F07D
:10FBA00007817D4A7D49D2F804050C783668A0EBC0
:10FBB000080323F07F430333002C50D1784CDFF847
:10FBC000E8E1784F4FF48035C2F84453C2F804534B
:10FBD0004FF40035C4F88051256001241460DEF82C
:10FBE00000502F2200BF00BF00BF00BF00BF00BFFA
:10FBF00000BF00BFBD422FD000BF00BF00BF00BF8D
:10FC000000BF00BF00BF00BF00BF00BF00BF00BFFC
:10FC100000BF00BF00BF00BF00BF00BF00BF00BFEC
:10FC200000BF00BF00BF00BF00BF00BF00BF00BFDC
:10FC300000BF00BF00BF00BF00BF00BF00BF00BFCC
:10FC400000BF00BF00BF00BF00BF00BF00BF00BFBC
:10FC500000BF00BF00BF00BF013AC3D10C709E427D
:10FC60002CBF08EB060343444B4923F07F43C1F804
:10FC70004035D1F80425121A1B1A22F07F4223F0D6
:10FC80007F4303329A424DD9D1F80435464AC1F830
:10FC90004035126843492F2300BF00BF00BF00BF9B
:10FCA00000BF00BF00BF00BF8A422FD000BF00BF0F
:10FCB00000BF00BF00BF00BF00BF00BF00BF00BF4C
:10FCC00000BF00BF00BF00BF00BF00BF00BF00BF3C
:10FCD00000BF00BF00BF00BF00BF00BF00BF00BF2C
:10FCE00000BF00BF00BF00BF00BF00BF00BF00BF1C
:10FCF00000BF00BF00BF00BF00BF00BF00BF00BF0C
:10FD000000BF00BF00BF00BF00BF00BF013BC3D1A9
:10FD1000234B4FF40032C3F8002103E0059B002B76
:10FD20007FF43CAF214A0023137009B0BDE8F08F87
:10FD3000079804905AE6174B00247746254621463B
:10FD400020461B68DDF814E0A7B13A68B24218D823
:10FD5000FC683860B61A1144FB693CB10BEB010238
:10FD600022F07F42FD61BC607A603D461F467446CA
:10FD7000002FEAD1BE46002C3FF421AE054A1360A5
:10FD80001DE6BE46002C40F0A480921BCEF8002059
:10FD900015E600BF1C2200200010014009220020AF
:10FDA00000E100E00024F4009C2100200822002053
:10FDB0004B4A4C4B4C4D4D484FF480314FF400377B
:10FDC0000124C3F88070C2F848132F23C2F8081327
:10FDD000546029681D4600BF00BF00BF00BF00BFC0
:10FDE00000BF00BF00BF81422FD000BF00BF00BFD7
:10FDF00000BF00BF00BF00BF00BF00BF00BF00BF0B
:10FE000000BF00BF00BF00BF00BF00BF00BF00BFFA
:10FE100000BF00BF00BF00BF00BF00BF00BF00BFEA
:10FE200000BF00BF00BF00BF00BF00BF00BF00BFDA
:10FE300000BF00BF00BF00BF00BF00BF00BF00BFCA
:10FE400000BF00BF00BF00BF00BF013DC3D1946031
:10FE5000274A166000BF00BF00BF00BF00BF00BF41
:10FE600000BF00BF81422FD000BF00BF00BF00BF56
:10FE700000BF00BF00BF00BF00BF00BF00BF00BF8A
:10FE800000BF00BF00BF00BF00BF00BF00BF00BF7A
:10FE900000BF00BF00BF00BF00BF00BF00BF00BF6A
:10FEA00000BF00BF00BF00BF00BF00BF00BF00BF5A
:10FEB00000BF00BF00BF00BF00BF00BF00BF00BF4A
:10FEC00000BF00BF00BF00BF013BC3D1094B1E7084
:10FED00028E709490B6058E7084B83F800C055E64E
:10FEE0000010014000E100E09C2100200024F4000B
:10FEF00018220020092200201C22002000220020BD
:10FF00002DE9F04712F0030402D00720BDE8F08786
:10FF1000002AFAD05F4D604EDFF88891DFF888C183
:10FF20004FF4803E4FF400374FF00108C6F8807060
:10FF3000C5F848E32F27C5F808E3C5F80480D9F8C9
:10FF400000E0B94600BF00BF00BF00BF00BF00BF58
:10FF500000BF00BFE6452FD000BF00BF00BF00BFFD
:10FF600000BF00BF00BF00BF00BF00BF00BF00BF99
:10FF700000BF00BF00BF00BF00BF00BF00BF00BF89
:10FF800000BF00BF00BF00BF00BF00BF00BF00BF79
:10FF900000BF00BF00BF00BF00BF00BF00BF00BF69
:10FFA00000BF00BF00BF00BF00BF00BF00BF00BF59
:10FFB00000BF00BF00BF00BFB9F10109C2D1C5F841
:10FFC000088000BF00BF00BF00BF00BF00BF00BF70
:10FFD00000BFE6452FD000BF00BF00BF00BF00BF7D
:10FFE00000BF00BF00BF00BF00BF00BF00BF00BF19
:10FFF00000BF00BF00BF00BF00BF00BF00BF00BF09
:020000022000DC
:1000000000BF00BF00BF00BF00BF00BF00BF00BFF8
:1000100000BF00BF00BF00BF00BF00BF00BF00BFE8
:1000200000BF00BF00BF00BF00BF00BF00BF00BFD8
:1000300000BF00BF00BF013FC3D1DFF870E0DFF8B1
:1000400070A0164FDFF86C90DFF86C80DFF86CC0A2
:100050008EF80040CAF800304FF4801EE023B970DB
:100060003C707C70C9F8004088F800408CF8004073
:100070000B49C6F880E186F81433C6F800E0C5F8ED
:10008000080586F81133D5F804350B607A602046F0
:10009000BDE8F0870010014000E100E000220020F0
:1000A000182200209C2100200024F40009220020B6
:1000B000FC2100201C2200201422002015220020F8
:1000C000074B5B6823B12AB120B10368187C18B1D3
:1000D000082070470720704759745A61704700BF65
:1000E000002200202DE9F043274C636883B033B130
:1000F00028B1042907D8072003B0BDE8F083082001
:1001000003B0BDE8F0834369002BF8D0054602A890
:100110006B7C0026012B00F8016D0CBF8946B146AF
:1001200090460F4600F08CF96378A07821785A1C2D
:10013000D2B2904208BF324691421FD003EB430334
:100140006068DB00C11819D04FF0010E00F803E021
:100150000E4B4D60D3F804358B609DF80700CF60DF
:10016000C1F81090C1F81480627000F08FF9084B4C
:100170004FF480123046C3F80021C1E79DF8070014
:1001800000F084F90420BBE70022002000100140A9
:1001900000E100E0F0B51C4E736883B053B348B380
:1001A00043693BB3054602A8002400F8014D2C74B6
:1001B00000F046F97378B07831785A1CD2B2904288
:1001C00008BF2246914218D003EB43037168DB005D
:1001D000CF1812D00220C8547D609DF807007270BD
:1001E00000F054F9094B4FF480122046C3F8002167
:1001F00003B0F0BD082003B0F0BD9DF8070000F08B
:1002000045F90420F7E700BF0022002000E100E0EC
:1002100030B50478012C83B01FD010D3022C0CD140
:10022000C36826492648019301228DF8004001F059
:1002300063F8244B68461B68984703B030BD2249D9
:100240002248FFF7CDFA28B302A8032300F8083D9F
:100250001C4B1B68984703B030BD43681C4D197890
:100260002846FFF7A5FAD8B9AA68EB689A4206D0E3
:1002700002AB144A03F8080D126818469047A968A3
:10028000EB68AA885B1A9A4212D2124B01221A70AA
:1002900003B030BD01220C49094800F077FFCCE7DC
:1002A000084B01908DF800401B6868469847E6E7C8
:1002B00001220249024801F01FF8BEE7482200204F
:1002C0008C210020202200204C22002038220020F7
:1002D00024220020342200202DE9F0432F4C89B045
:1002E0002260002952D00C4680468A882C48096832
:1002F0009946FFF74DFA10B109B0BDE8F083A28925
:10030000A1682848FFF744FA0028F5D1264D98F84F
:1003100010E0D8F80C70D8F808600FCD6C460FC408
:1003200095E80F0098F8115002971EF1000E18BFC3
:100330004FF0010E002D84E80F00D8F80050D8F8D7
:1003400004401A4A1A488DF81C9014BF0E2300234B
:100350008DF815306946D8F814308DF814E00693FE
:1003600003968DE8300000F025FE0028C4D1D8F8AF
:100370000030104A01331070BED09DF81D304BB1D3
:1003800001220D490A4800F0B7FFB5E7072009B080
:10039000BDE8F083064801F0C9F8F1E7202200200B
:1003A0002422002038220020744D02001102020095
:1003B0008C210020342200204822002070B50B4CF4
:1003C00001460B482678FFF70BFA05460EB928467A
:1003D00070BD0023012207490748237000F08CFFFD
:1003E0000028F4D0FFF7B2F9284670BD342200206F
:1003F00024220020482200208C21002010B5014634
:100400000C48FFF7D5F9044608B1204610BD0A484C
:1004100000F066FF0028F8D108490648FFF7E0F928
:100420000028F2D1012205490348BDE8104000F040
:10043000ADBE00BF382200208C2100204C220020BD
:1004400070B4EFF3108472B60D4B9A68AAB90D49D7
:100450000D4E01259D60D1F8805035401D60C1F8DA
:100460008060D1F884505D604FF0FF33C1F8843074
:10047000027004B962B670BC704701230370F8E7DC
:100480002028002000E100E0FC06FFBC094B9A6830
:1004900072B168B910B4EFF3108272B606491C68E5
:1004A0000C605C684C60986002B962B65DF8044B01
:1004B000704700BF2028002000E100E020B1034B7E
:1004C0005B6E0360002070470320704750220020BD
:1004D00070B5161E07DD0C468D1914F8010BFFF7D9
:1004E0008DFFA542F9D1304670BD00BF10B50C4656
:1004F0002046FFF763FF0528FAD0012010BD00BF9A
:10050000054A4FF0A043105CD3F8043523FA00F0FD
:10051000C04300F001007047984D0200044B195C85
:100520004FF0A04201238B40C2F80C35704700BF4A
:10053000984D0200044B195C4FF0A04201238B4000
:10054000C2F80835704700BF984D02004FF0A04335
:1005500010B44FF480204FF400344FF400214FF4D6
:100560008012C3F80845C3F80805C3F80815C3F896
:1005700008255DF8044B70474FF0A04310B44FF4CA
:1005800080204FF400344FF400214FF48012C3F860
:100590000C45C3F80C05C3F80C15C3F80C255DF821
:1005A000044B7047074B4FF0A041185CD1F804355D
:1005B0000122824022EA03001340C1F80805C1F875
:1005C0000C357047984D020030B44FF0A043032221
:1005D0004FF400354FF480244FF400204FF4801185
:1005E000C3F84427C3F84827C3F84C27C3F850275B
:1005F000C3F80855C3F80845C3F80805C3F808153B
:1006000030BC7047054A4FF0A043105CD3F810355A
:1006100023FA00F0C04300F001007047944D02003F
:100620000D2809D00E2809D00F2809D010280CBF9A
:1006300003204FF0FF3070470020704701207047C3
:1006400002207047014B185C704700BF944D0200B8
:1006500010B51A4B1A6882B0A2B100221A601B684A
:1006600000934FF080430122154C0099C3F80823F2
:10067000A368627033B10CCB0020A2609847A368D6
:10068000002BF8D10F4B1A68AAB100221A601B6820
:1006900001934FF080430222094C0199C3F80823CB
:1006A00023690122A27033B10CCB0120226198474B
:1006B0002369002BF8D102B010BD00BF000100403B
:1006C000B82200200401004058B910B5054CA368B9
:1006D00033B10CCB0020A2609847A368002BF8D15F
:1006E00010BD7047B822002010B582B002A80023C8
:1006F000144C00F8013DFFF7A3FE237853B1E368E3
:100700009DF8070001330122E360A270FFF7BEFEEF
:1007100002B010BD0C4A6360E3601068A36010F083
:10072000010023610AD003F0F3FA20B94FF08043AF
:100730000122C3F8182501232370E0E7072100F008
:1007400005F8F0E7B822002000E100E0002810B42E
:1007500018DB00F1604303F561434901C9B283F836
:100760000013C3B24009800000F1604000F5614011
:1007700003F01F0201239340C0F8803103605DF84D
:10078000044B7047C3B2044A03F00F0449012244EA
:10079000C9B21176E6E700BFFCEC00E030B51D4CB5
:1007A00094F8545083B015B1082003B030BD4FF019
:1007B000FF33FF220721062023636363A363E36300
:1007C00023646364A364E36423606360A360E36001
:1007D00023616361A361E361236284F85030636243
:1007E000A36284F85230E36284F8533084F85120D5
:1007F000FFF7ACFF084B094A1D601B680193019885
:100800004FF000430121284684F85410C2F8043305
:1008100003B030BDCC2200207C610040006000406D
:10082000034B93F85400003018BF0120704700BFFD
:10083000CC220020F0B55E4C251895F93030002B05
:1008400001DB0820F0BD91F803E0BEF1000F50D0AD
:100850002368013300F0A6800826012554F82530CE
:1008600001334CD06B1C54F82370013748D0AB1CBB
:10087000B3423CD254F82370013741D0EB1CB34251
:1008800035D254F8237001373AD02B1DB3422ED203
:1008900054F82370013733D06B1DB34227D254F87C
:1008A000237001372CD0AB1DB34220D254F82370F3
:1008B000013725D0EB1DB34219D254F8237001370C
:1008C0001ED005F10803B34211D254F8237001374A
:1008D00016D005F10903B34209D254F82370013749
:1008E0000ED00A35B54202D2E36A013358D0042053
:1008F000F0BD236A01332DD00C260925AEE72B4627
:1009000026185DB244F8232086F83050BEF1000F5F
:1009100026D08B78A3B94A784FF0A04600F5E07353
:10092000920046F82320CB78F3B9083D2C4409788F
:1009300094F8502042EA811284F850201846F0BD05
:10094000830003F1A043D3F8002722F00202C3F88A
:100950000027E8E7082685F83060334622623546EE
:10096000234483F84800D4E7AB0003F1804303F548
:10097000C0430978D3F8104524F4473424F4407474
:10098000C3F8104502020904D3F8100501F4403100
:1009900002F4F8520A430243C3F810250020F0BDC8
:1009A0000B23ADE7002385F8303022601D46B0E709
:1009B000CC220020F0B42E4D2E1882B096F93030A3
:1009C000072B1CDD2B4493F848309B09032B41D0A7
:1009D000012B14BF4FF440314FF40031800000F17F
:1009E000A040D0F8002722F44032C0F80027D0F809
:1009F00000370B43C0F8003702B0F0BC7047DAB2E2
:100A0000072AF9D8980000F1804000F5C04003F1B2
:100A100040029200D0F8104592B202F180420027C5
:100A200044F0010402F5C042C0F810450197019856
:100A300017600029E0D096F9302055F82220002ACE
:100A4000DAD001220B4902FA03F3C1F8043302B0F1
:100A5000F0BC70474FF0A043D3F81035C34013F0FB
:100A6000010F0CBF4FF400314FF44031B6E700BF27
:100A7000CC220020006000404FF0A043D3F8103596
:100A800023FA00F000F00100704700BF2DE9F04F9D
:100A900087B00023CC4A01931168012900F00A8233
:100AA0001E46CA4B1A68012A00F0F681C84B1A6824
:100AB000012A00F0E381C74B1A68012A00F0D081B7
:100AC000C54B1A68012A00F0BD81C44B1A68012A7F
:100AD00000F0AA81C24B1A68012A00F09781C14B2D
:100AE0001A68012A00F08481BF4B1A68012A00F0BD
:100AF0005E8116F0FF0F1AD0BC4F01250024A30021
:100B000003F180432E4203F5C0434FEA45050BD065
:100B1000D3F8100557F82420D3F81015C0F304209B
:100B2000C1F3014102B190470134082CE7D1002EF6
:100B300002DB07B0BDE8F08F00224FF0FF33AB4C73
:100B400002920393012502AE94F950104F1C2DD050
:100B5000C9B221F0C00006AB4FEAD00E03EB0E077E
:100B600001F0070317F80C2C05FA03F31A421DD005
:100B70002218890992F9302054F82220002A00F026
:100B8000F080032900F0F0804FEA800E0EF1A04EB5
:100B900017F814CCDEF800771CEA0303C7F3014909
:100BA00040F0B880B9F1030F00F0D7814FF0030A8D
:100BB0004FF002094FF00108002794F95110481C2A
:100BC0002DD0C9B221F0C00006AB4FEAD00C03EB28
:100BD0000C0E01F007031EF80C2C05FA03F31A4261
:100BE0001DD02218890992F9302054F82220002AB9
:100BF00000F0CA80032900F0CA804FEA800C0CF193
:100C0000A04C1EF814BCDCF800E71BEA030FCEF37F
:100C1000014E40F09080BEF1030F00F08A8194F9FC
:100C200052104A1C2CD0C9B221F0C00006AB4FEACA
:100C3000D00C03EB0C0E01F007031EF80C2C05FA88
:100C400003F31A421CD02218890992F9302054F873
:100C50002220002A00F08F80032900F08E804FEAC6
:100C6000800C0CF1A04C1EF814ACDCF800E71AEA7A
:100C7000030FCEF3014E6AD1BEF1030F00F046819F
:100C800094F953104B1C2CD0C9B221F0C00006AB14
:100C90004FEAD00E03EB0E0201F0070312F80CCC62
:100CA00005FA03F31CEA030F1BD004EB000C8909BF
:100CB0009CF930C054F82C90B9F1000F6ED0032984
:100CC0006ED04FEA800E0EF1A04E12F814CCDEF872
:100CD00000271CEA030FC2F3014211D1032A00F0DE
:100CE000F580002F3FF425AF4FF0A043019AD3F8D1
:100CF00010359A423FF41DAF029A0193039223E705
:100D0000022AEED1032900F04681B9F1000FE8D0A4
:100D1000C847E6E7B9F1020F7FF448AF032900F0B6
:100D200043814FF0030A4FF001080027002A3FF4E7
:100D300044AF904741E7BEF1020F7FF470AF032943
:100D400000F02C81002A3FF46AAF904767E7BEF1BC
:100D5000020F95D1032900F02481002A90D09047FA
:100D60008EE703297FF422AF16F80EC04CEA030C7D
:100D700006F80EC008E7032982D116F80CA04AEA4B
:100D8000030A06F80CA06AE703297FF448AF16F8B7
:100D90000CB04BEA030B06F80CB02EE70329A0D1E8
:100DA00016F80EC04CEA030C06F80EC089E70022C4
:100DB0001A601B6805934FF0A043059AD3F81035CD
:100DC000019346F0004694E6006100400461004053
:100DD000086100400C610040106100401461004057
:100DE000186100401C6100407C610040CC22002062
:100DF0006F4AD2F8042312067FF576AE00221A60FD
:100E00001B680493049B46F080066DE6684AD2F89E
:100E1000042351067FF563AE00221A601B68049319
:100E2000049B46F040065AE6614AD2F80423900635
:100E30007FF550AE00221A601B680493049B46F0B5
:100E4000200647E65A4AD2F80423D4067FF53DAE81
:100E500000221A601B680493049B46F0100634E6D7
:100E6000534AD2F8042315077FF52AAE00221A60F0
:100E70001B680493049B46F0080621E64C4AD2F80E
:100E8000042357077FF517AE00221A601B680493EE
:100E9000049B46F004060EE6454AD2F80423920766
:100EA0007FF504AE00221A601B680493049B46F091
:100EB0000206FBE53E49D1F8046316F001063FF453
:100EC000F0AD136013680493049BEAE503297FF4F3
:100ED0001CAF4FF40032DEF8003723F44033CEF875
:100EE0000037DEF800371343CEF80037B9F1000FB2
:100EF00001D047460CE74FF0A043019AD3F81035D4
:100F000093427FF4F9AE07B0BDE8F08F03297FF478
:100F100024AF4FF40037DCF8003723F44033CCF82B
:100F20000037DCF800373B43CCF800374746C8466B
:100F300013E703297FF406AF4FF40037DCF80037DE
:100F400023F44033CCF80037DCF800373B43CCF8CF
:100F500000374746C846D146F4E6032906D0CA46BC
:100F60001F464FF002094FF00108DFE64FF400374B
:100F7000DEF8003723F44033CEF80037DEF80037D0
:100F80003B43CEF800374FF0040A4FF003094FF00F
:100F900002080127CAE64FF440329CE74FF440377D
:100FA000CCE74FF44037B6E74FF44037E0E700BFF7
:100FB00000600040F0B50479714E6401331987B0C8
:100FC000DD7E15B1082007B0F0BD4D7F1D770D689F
:100FD0006B1C0BD04FF0A0470123AB40C7F808357E
:100FE0000B6803F5E073032547F823504B685F1C3B
:100FF00006D003F5E0734FF0A045002745F82370B5
:10100000037906EB43131B7F002B4CD003688D69DB
:10101000C3F824550F7D4B7D05683B43C5F86C35FF
:1010200003680F684D68C3F80C75C3F814550B7D41
:10103000012B00F09A80331905465A600B69335131
:10104000EAB10379097F026806EB43131B7F002B8B
:1010500065D1C2F81C31D2F81C712A680097009F34
:10106000C2F84431D2F844212B6846480192019AD3
:10107000C3F80403286840F30730FFF767FB2B79B8
:101080002A6806EB43131B7F002B44D00823C2F8C9
:101090000035344400200123E376E0752076A07506
:1010A000A07607B0F0BD05688F69C5F8247591F882
:1010B00014E04D7D076845EA0E05C7F86C550568D4
:1010C000D1F800E04F68C5F81475C5F80CE50D7D42
:1010D000012DB0D18D686F1C05D005F5E0754FF07E
:1010E000A04747F82530CB685D1C0DD001254FF097
:1010F000A04705FA03F3C7F80835CB6803F5E0739A
:10110000032547F82350CB6805688F68C5F8083574
:10111000C5F810758FE70423C2F80035B9E700233E
:10112000C2F81031D2F810712A680297029FC2F8F3
:101130002031D2F820712A680397039FC2F8243126
:10114000D2F824712A680497049FC2F84431D2F877
:1011500044212B6805920C48059AC3F804032868BB
:1011600040F30730FFF7F2FA89E78B685D1CBAD0CD
:1011700003F5E0734FF0A045002745F82370B2E770
:10118000242300208000020010030200F0B5037940
:10119000524C5B01E51887B02D7F3DB101F06045F1
:1011A000B5F1005F02D0102007B0F0BD23449E7D52
:1011B00016B1112007B0F0BD9A7599609E8205792D
:1011C0006D016219137F13BB0168C1F81C31D1F89E
:1011D0001C61016804960126049F8E600168D2F8A4
:1011E00008E0C1F81C31D1F81C310593059B968AA3
:1011F000938A5768B6B201331EF806609BB2938299
:10120000C1F81C65002F2FD0002007B0F0BD036887
:101210009168C3F82061D3F8207103680197019F9A
:10122000C3F85861D3F8586103680296967D029F0F
:10123000C3F84415C3F848650368012199605368F1
:10124000002BE1D1036801E0002945D1D3F820212A
:10125000D3F85811002AF7D0002914BF0F2000201E
:101260002C440023A3759FE7967D938A9BB29E42F0
:1012700002F1140122D9016804E0938A9BB2B3F50C
:10128000807F03D0D1F81C31002BF6D0938A9BB21B
:10129000B3F5807FE9D0C1F81C71D1F81C310393FC
:1012A000039BB2F814C0938A1FFA8CFC01331EF81A
:1012B0000CC09BB29382C1F81CC5D6E70B889BB2C9
:1012C000B3F5807F08D00268D2F81C31002BFBD028
:1012D0000123D3600020C3E70F20C1E724230020AF
:1012E0000279044B03EB4213987D003018BF0120B4
:1012F000704700BF24230020F0B403798A4E5B01BD
:10130000F41888B0257F45B101F06045B5F1005F64
:1013100054D0102008B0F0BC70476568002D3FD154
:101320003344DC7D54BBDA75D9605C761C76057974
:101330006D0173191F7F002F4DD19B7E8BB984B92E
:101340000368C3F82441D3F8242103680392039A65
:10135000C3F80841D3F808210368049201220499D4
:101360001A6072195368002B6BD003684FF4017236
:101370000020C3F8042308B0F0BC70471C7ECCB139
:10138000002D00F0AA80037906EB4316337F002B73
:1013900050D003684FF40472C3F804231120B9E756
:1013A00004684FF401773344C4F80873DC7D002CE3
:1013B000B9D0E3E719611A760124B8E76568002D12
:1013C000AED004684FF404773344C4F80873DC7D6E
:1013D000002CA8D0D2E703680025C3F81051D3F839
:1013E000107103680197019FC3F84451D3F8445129
:1013F00003680295029DC3F83415C3F838258CB9EB
:10140000036801221A6002795201B3185B68002B4D
:1014100065D003684FF404720020C3F8042308B0B9
:10142000F0BC70470268D2F8003243F02003C2F8E3
:101430000032E8E703684FF40172C3F80423112077
:1014400068E70168C1F84431D1F844310593059B40
:101450000368D3F82471D3F80841D3F8441144B990
:10146000002933D1002FF4D035440023EB7503203D
:1014700050E7002FF8D159BBD47DECB1C3F8081167
:10148000D3F8081106910699D468517ED3F818351F
:101490006354537ED17D0133DBB25376537E994240
:1014A000D6D835440022AB7EEA75002B37D00368CE
:1014B0000121104619602DE7C3F80841D3F808113F
:1014C00007910799D3F81835537EEAE7002FCBD15F
:1014D00035440023EB750F201CE711201AE7036841
:1014E00001E0A4B9B8B9D3F81011D3F84441D3F846
:1014F00024010029F5D000284FF00003324414BF26
:10150000032018469C42D37518BF0F2002E73244CF
:101510000F20D175FEE632440320D475FAE6026846
:10152000012118465160F5E624230020114A037971
:1015300002EB4313197FD9B99B7ECBB910B4016874
:1015400083B0C1F82431D1F8244101680094009C93
:10155000C1F80831D1F80831016801930123019CD9
:101560000B60017902EB4112937603B05DF8044BF6
:10157000704700BF2423002070B5A54C237F8EB098
:10158000002B73D1A34AD2F80413890546D4A14B8A
:10159000D3F80423520704D5D3F80821002A40F0D9
:1015A000C9809C4BD3F81C21BAB1A28AA17D92B20A
:1015B0008A424FF00002C3F81C2180F0A880D3F8C3
:1015C0001C210692069AA18AA28AA06889B20132D9
:1015D000415C92B2A282C3F81C158E4BD3F8442111
:1015E000D2B10022C3F84421D3F84411A27E049161
:1015F0000499002A40F08880E37D6BB10023617E6E
:10160000E268E37501238DF830108DF828300B92D5
:1016100094E80A000AA898470EB070BDD2F82411C9
:101620000029B4D0C2F82431D2F82411A37E079146
:101630004FF401710798C2F808130BB901235360E6
:10164000744A02238DF82830D2F88034C2F88034EE
:10165000E07DE2680D9300238DF83000E37523767A
:1016600021680B9263680AA898479AE7694BD3F8F8
:101670002421002A40F09280D3F8101161B1C3F800
:101680001021D3F8101103910399D3F83C15E07D94
:10169000C9B2884200F0A4805E4BD3F84421B2B1B5
:1016A0000022C3F84421D3F84401E17D0190019860
:1016B00069B1D3F83C35E1688DF8303001230B91E6
:1016C0008DF82830E27594E80A000AA89847514B33
:1016D000D3F82021002A9FD00022C3F82021D3F87C
:1016E0002001A17D00900098002995D0D3F84C15D9
:1016F000A3688DF830100B938DF82820A27594E81C
:101700000A000AA8984787E701221A6074E7D3F80D
:101710001C310593059B00293FF45FAFA3688DF84A
:1017200030100B938DF82820A27594E80A000AA8BF
:10173000984752E7E27D002A6ED00022C3F80821C4
:10174000D3F808210892089AE168627ED3F8183528
:101750008B54637EE27D0133DBB26376637E93421A
:101760007FF41FAF237E002B6CD1A37E13B9294BCE
:1017700001225A60274AE06863684FF40171C2F899
:101780000813627E8DF83020002501220B9021681D
:10179000E5758DF828200AA8984702E70022C3F8CB
:1017A0002421D3F82411029102218DF828100299E6
:1017B000D3F88014C3F880140D91D3F83C15E36876
:1017C000E27522768DF830100B93216863680AA8C1
:1017D0009847104BD3F84421002A3FF478AF5FE7D5
:1017E000217E11B3D3F80062E568E17526F020068A
:1017F000C3F8006226698DF8300001238DF8283087
:10180000227621680B95E66063680AA8984743E74B
:101810002423002000200040C3F80821D3F8081139
:1018200009910999D3F8183598E7E268E175012321
:101830008DF830008DF828300B9294E80A000AA841
:10184000984729E7607EE5682169E3750122002356
:101850008DF83000E160237663760B958DF82820B3
:1018600094E80A000AA898479BE600BF0220FEF70A
:1018700099BE00BF2DE9F0470D460646FEF7D0FEA3
:1018800003281ED8012D04461FD00ED3022D1AD1D5
:101890001D4B00EB40041C44657895B11B4B1B6845
:1018A0007BB12846BDE8F04718471948FEF772FC9F
:1018B000154B184A04EB44010B44125D9D78AA4273
:1018C000EBD0BDE8F087BDE8F0870F4F4FEA400846
:1018D00008EB0003FA18FD5C53782BB9A044474489
:1018E0000C4BBA781A55D8E70B4BDFF830901968D3
:1018F000074801EB810149004A46FEF7F3FB002847
:10190000ECD189F80060E9E78C230020C023002097
:101910006C230020C82300206823002044230020DB
:101920007F4B1B68DB0700D4704770B57D4E7E4D42
:1019300033782C789BB9172C10D8DFE804F0666B4D
:101940006B879CB0C2AA2415241582313131313104
:1019500051565ECF0C0CFEF70FFE2C7070BD0023AD
:101960003370FEF7F3FDE6E7012318463370FEF708
:1019700019FE6E4B6E481968002201EB8101BDE82B
:101980007040FEF7AFBB012318463370FEF70AFE26
:10199000664B674819680022BDE87040FEF7A2BB9D
:1019A0006448FEF7F7FBD4F11104024600F0A18071
:1019B000002840F09E80012C0DD0C8235E4D5B496D
:1019C0005C48096803FB04F3A5FB03435B0901FBC7
:1019D00003F1FEF787FB0220BDE87040FEF79EBDD5
:1019E000FEF7B4FD12232B7070BDFEF7AFFD002093
:1019F000FEF794FD13232B7070BDFEF7A7FD0120A9
:101A0000FEF78CFD14232B7070BDFEF79FFD0023A5
:101A10002B7070BD0020FEF773FD002879D00020E8
:101A2000FEF788FD022C14BF282312233F4A2C7096
:101A300011683F4801FB03F10022BDE87040FEF74A
:101A400051BBFEF799FD0C232B7070BD0020FEF7F3
:101A500057FD002856D00020FEF76CFD0822334BBE
:101A60003348196803232B7001FB02F1BDE8704075
:101A70000022FEF737BB0020FEF742FD00283DD0D4
:101A80000020FEF757FD2822284B29481968042317
:101A9000E9E70020FEF742FD07232B7070BD002010
:101AA000FEF72EFD90B30020FEF744FD1F4B2048AB
:101AB000196805232B7049000022BDE87040FEF72D
:101AC00011BB0020FEF76EFD184B1948196806235C
:101AD0002B700022BDE87040FEF704BBFEF736FD18
:101AE0000020FEF71BFD0120FEF718FD15232B70CB
:101AF00070BD0220BDE87040FEF71CBDFEF70EFD74
:101B00000422C1E7FEF70AFD0222A8E7FEF706FD60
:101B1000CCE7FEF703FD022C14BF0423022385E764
:101B2000982300209C230020C42300206823002049
:101B3000A0230020482300201F85EB5110B500781A
:101B4000FEF76EFD03280BD8064B00EB400018444F
:101B5000407828B1044B1B6813B1BDE8104018470A
:101B600010BD00BF8C230020C0230020FEF74ABD1B
:101B7000904B1A6812F0010201D11046704730B53F
:101B80008D4D2B7883B00446E3B9172C00F20F81FA
:101B9000DFE814F0DB00E100E100540068007C00A5
:101BA0008E003F002D001D002D001D009900A0009B
:101BB000A000A000A000A000C000C700D100470006
:101BC0003700370000232B70FEF7C0FCDDE7012350
:101BD00018462B70FEF7E6FC784B7948196800220E
:101BE00001EB810103B0BDE83040FEF77BBA012371
:101BF00018462B70FEF7D6FC704B7148196800220E
:101C0000F0E7FEF7B9FC6F4B00221C70104603B0E2
:101C100030BD0020FEF782FC6A4B07221A700022BA
:101C2000F4E7FEF793FC0020FEF778FC0120FEF7B6
:101C300075FC644B15221A700022E7E70020FEF7BE
:101C40005FFC002800F0AF800020FEF773FC082244
:101C50005A495C4B09685A48032401FB02F11C7085
:101C60000022BFE70020FEF74BFC002800F0948024
:101C70000020FEF75FFC28225049524B096850486B
:101C8000042401FB02F11C700022ABE70020FEF7E8
:101C900037FC002800F084800020FEF74BFC474A08
:101CA000484B116846480524490000221C7099E7FA
:101CB0000020FEF777FC414A424B11684048062459
:101CC00000221C708EE7FEF757FC3E4B0C221A7068
:101CD00000229BE73C48FEF75DFAD4F1110402466E
:101CE0004DD000284BD1012C0ED0C823374D33499D
:101CF0003548096803FB04F3A5FB03435B0901FBBB
:101D000003F1FEF7EFF9024602200192FEF706FC0E
:101D1000019A7BE7FEF71AFC2A4B12221A70002266
:101D200074E7FEF713FC0020FEF7F8FB254B1322A7
:101D30001A7000226AE7FEF709FC0120FEF7EEFBAD
:101D4000204B14221A70002260E7FEF7FFFB1D4BA8
:101D500000221A705AE70020FEF7D2FBA8B100203B
:101D6000FEF7E8FB022C14BF282312231349154A5F
:101D700009681470124801FB03F1002232E70220C7
:101D80000192FEF7D7FB019A40E7FEF7C7FB022C52
:101D900014BF04230223E9E7FEF7C0FB04226BE72C
:101DA000FEF7BCFB7BE7FEF7B9FB022250E70022FF
:101DB0002CE700BF982300209C23002068230020EC
:101DC000A0230020C4230020482300201F85EB51BE
:101DD000F0B5214D214E224B2860044610F0020040
:101DE00083B031601A6012D01E4B1F484A080F277B
:101DF0000E21102611251970DF7004219E715D726D
:101E0000FDF734FCA0B1E3071DD403B0F0BDE20739
:101E100019D4164A16480021FEF752F90028F4D1C9
:101E2000144A1548012103B0BDE8F040FEF748B957
:101E3000FDF776FC0028E6D10146104A1048FEF76F
:101E40003FF9E10703D50190FEF7BEFB019800289A
:101E5000DFD003B0F0BD00BF98230020682300202E
:101E6000C02300208C2300209C4D02002119020079
:101E7000C44D02006D180200BC4D02003D1B020063
:101E8000C04D0200032801D907207047012A12D053
:101E9000012917D008D30229F6D10D4B00EB4000E1
:101EA000034400205A707047094B00EB4000034484
:101EB00000209A707047012901D00022E8E700F164
:101EC0000E02D2B200EB400301490020CA54704711
:101ED0008C23002008B5FEF7B5FB800000F1A0437D
:101EE0000020D3F8002722F44032C3F80027D3F8AB
:101EF000002742F44032C3F8002708BD08B500208F
:101F0000FFF7E8FF10B1062800D008BD0120FFF759
:101F1000E1FF0028F9D0062808BF002008BD00BF57
:101F200010B50388102B08D0112B05D1264B18684B
:101F30000138186038B110BD10BD234C216881B143
:101F40000131216010BD01220221FFF79BFF48B340
:101F5000072827D01D4B1B68002BECD0BDE8104094
:101F6000184701220846FFF78DFF48B1072807D020
:101F7000164B1B6803B1984721680131216010BDE1
:101F8000072202210120FFF77DFF08B10728EFD1CA
:101F9000042202210020FFF775FF0028ECD007285B
:101FA000E6D1E9E7072202210120FFF76BFF08B124
:101FB0000728CFD1002108460A22FFF763FF002837
:101FC000B9D00728C6D110BDD0230020CC230020D3
:101FD000194B10B5186031B101200C46FFF7C6FD52
:101FE00030B102232370154B186848B1002010BD92
:101FF000FFF7BCFDE8B9114B207018680028F5D137
:1020000001220221FFF73EFF08B10728EFD1072286
:1020100002210120FFF736FF08B10728E7D1002190
:1020200008460A22FFF72EFF0028DFD00728DED15E
:10203000DCE70B232370D6E7CC230020D02300203D
:1020400076DF70477ADF70477CDF70477FDF70474D
:10205000A8DF7047A9DF7047ADDF704767DF7047C3
:1020600032DF70473EDF7047FDF770BB10B50446A6
:1020700084B001F08BFA2146484801F085FC2388A2
:10208000023B542B35D8DFE803F077343434343452
:1020900034343434343434342B7E344534343434AE
:1020A00034343434343434343434343434343434F0
:1020B00034343434343434343434343434343434E0
:1020C0003434343C343434343434343434343434C8
:1020D0003434343434343434344F663434703C0063
:1020E0000720FFF745FD08B1FDF730FB2C4BA28818
:1020F0001A80204601F0E4F82046FFF711FF04B0F3
:1021000010BD1321A088FFF79BFF0028F1D0FDF739
:102110001DFBEEE7224A0023108885211A46FFF7AF
:1021200095FF0028E5D0F2E7A379002BE1D0A27B50
:10213000043A022ADDD8022B18BF01234FF4C172E2
:102140006946A0888DF80030ADF80420FFF780FFC5
:102150000028CED0DBE7124A0023108819461A4621
:10216000FFF778FF0028C4D0D1E71721A088FFF738
:1021700073FF0028BDD0CAE70021A088FFF76EFFDB
:102180000028B6D0C3E70020FFF7F2FC08B1FDF746
:10219000DDFA034B4FF6FF721A80AAE7B424002041
:1021A0009821002038B54AB10C468D182078FEF7EA
:1021B00025F90028FAD10134AC42F7D10D20FEF701
:1021C0001DF90028FAD10A20FEF718F90028FAD1E3
:1021D00038BD00BF08B5037803B108BD054B3B21EE
:1021E0001888FFF72DFF0028F7D0BDE80840FDF75D
:1021F000ADBA00BF98210020072808B51CD00A28D6
:102200000ED0042800D008BD144B13211888FFF706
:1022100017FF30F00803F6D0BDE80840FDF796BA86
:102220000020FFF7A5FCB0B9FFF768FE80B9FFF703
:1022300017FF0028F0D108BD084B1A884FF6FF732E
:102240009A42E0D101F09CF830F00803DBD0E3E7DC
:10225000FDF77CFAEBE7FDF779FAE5E79821002036
:1022600038B50378012B02D007D3022B04D1406884
:10227000BDE83840FDF76ABA38BD0F4D0F4C2878DD
:102280002044FEF79BF82A780132D2B214442A7017
:1022900014F8013C0A2B01D0132A0BD9074908482E
:1022A00001F09AFC30F0080301D0FDF74FFA00234B
:1022B0002B7038BD38BD00BFB02400209C24002006
:1022C000B424002008B530B1032803D10220FFF761
:1022D0004FFC50B908BDFFF74BFC50B9FFF70EFE9D
:1022E00050B9FFF7BDFE0028F4D0BDE80840FDF767
:1022F0002DBAFDF72BFAF1E7FDF728FAF1E700BF59
:1023000070B50023A8B018466E4A0521FDF7F8FD08
:1023100008B1FDF71BFA6C4D6C4B0A930FCD19AC4D
:102320000FC495E803006A4A6A4D0C9584E80300DF
:1023300007234FF480740AA919A80B940D94FDF794
:10234000CBFF08B1FDF702FA634A40F6CD41032006
:10235000FFF73EFD08B1FDF7F9F919A90020FFF7D5
:1023600037FE08B1FDF7F2F95C4B5D4918680A9039
:10237000002350220AA801F0D1FC08B1FDF7E6F9CC
:1023800019AA0121002001F035FD08B1FDF7DEF9A1
:10239000172319A8ADF8743001F044FD08B1FDF71A
:1023A000D5F9504801F004FD08B1FDF7CFF99DF8CB
:1023B00028304D48012262F3030362F307138DF8BE
:1023C000283001F063FD484982B20AA8FFF73CFEBD
:1023D00008B1FDF7BBF90822002119A8FDF7B8F8EC
:1023E000424B199319A84FF0C8731A93FFF72AFEAE
:1023F00008B1FDF7ABF90021042219A8FDF7A8F8F0
:102400003B4B3C48199319A901F0ECFA08B1FDF7D0
:102410009DF900210C463C220AA8FDF799F80225F7
:10242000214605233C2219A88DF82A408DF8285012
:102430008DF82B300125FDF78BF821462E4B1E938E
:10244000202202A8ADF874504026FDF781F80094D0
:1024500002AAB4240AA8294B8DF80B5019A9069694
:10246000079400F051FE08B1FDF770F91C2200211D
:1024700019A8FDF76DF84FF4203600234FF47025AE
:1024800003241F491F4A199319A8ADF872308DF81B
:1024900074301A961B958DF870401E911F9201F0B2
:1024A0003BF808B1FDF752F9174801F0D7FC0320BB
:1024B00000F0E6FE18B9FFF7D5FD0028FBD0FDF7C8
:1024C00045F9F8E7D4230020C84D0200D0240020AD
:1024D00061220200D0250020F9210200E04D020017
:1024E0004C2400206D200200E44D020010003C004E
:1024F000A5210200B424002094210020C52202005E
:10250000D521020069200200F04D02006DDF704706
:1025100072DF704779DF70477DDF704765DF704796
:102520002DE9F04F85B00488DDF83880BDF83CA077
:10253000B8F800500195002C57D099460023174653
:102540008B4605461C4603E02A880134A24228DD5A
:102550006A6852F82400039000220DF10B0103A8D1
:10256000FFF7DCFF064630BB9DF80B20BA42EBD1EB
:102570002BB3B8F80020D31953451BDC4A440DF1A6
:102580000B0103A80123FFF7C9FF98BBB8F800109F
:102590009DF80B200A44A8F800202A880134A242A2
:1025A000D6DC13B3B8F80030019A013B9B1A9BB2FA
:1025B000FF2B17D90C26304605B0BDE8F08FB8F8D0
:1025C00000305A1C3B440233534592B2F2DCA8F867
:1025D000002009F802B0B8F80020013292B2A8F841
:1025E0000020CBE709F80230E5E70026304605B0C9
:1025F000BDE8F08F0646304605B0BDE8F08F00BF5D
:102600002DE9F04700231788138090F82D3084B00F
:10261000144605460E46002B49D1AA78002A70D1EF
:10262000EA78002A2ED16A68A2B1D91CB94225D80D
:10263000022192F90020F154238801339BB20A2130
:102640002380F154238801339BB22380F2542388E2
:10265000013323802B89002B40F02A812B8A002B09
:1026600040F03F812B8B002B40F054812A6A002AD6
:1026700000F0A78021888B1DBB4262D90C2004B0DA
:10268000BDE8F087D91CB942F8D80221F15423885B
:1026900001339BB201212380F15423880B449BB268
:1026A0002380F25423880B449BB22380BBE7082F7E
:1026B000E4D902A8FFF72AFF0028E0D113880822F6
:1026C000CA54238801339BB21B222380CA5420881A
:1026D000013080B22080062208440DF1090101F08A
:1026E000B1FB23889DF8082006339BB212F0FE024E
:1026F00018BF01222380F254238801339BB2238028
:102700008BE70433BB42B9D802A8FFF703FF0028C8
:10271000B5D12388BDF808200321F1542388013363
:102720009BB219212380F154238801339BB2F11805
:102730002380F254120A4A70238802339BB223800A
:102740006EE71388052B40F2AF806FF4486803EB07
:10275000080080B24FF27D3E704540F2A58050885F
:10276000052840F2A1806FF4486C84441FFA8CFC69
:10277000F44540F299804FF6FF7E734504D07045D2
:1027800002D0834200F290800523735423880133E2
:102790009BB212212380F154238801339BB2238002
:1027A0001188F1543344090A5970238802339BB2CB
:1027B00023805288F2543344120A5A702388023319
:1027C0002380D5F82480B8F1000F30D0B8F8041079
:1027D00020888A1C831C1344BB423FF64FAFFE2A5D
:1027E0003FF64CAF03313154238801339BB2FF22B3
:1027F0002380F254238801339BB22380B8F8002051
:10280000F2543344120A5A702088023080B2208079
:10281000B8F804205AB1D8F80810002944D0304440
:1028200001F010FBB8F8042023881344238095F8A6
:102830002C30002B40F08780287800283FF41FAF11
:102840002B88012B30D023889A1CBA423FF616AF52
:10285000012805D16978023119448F42FFF40EAF87
:10286000023FFB1A04A99BB221F8083DB018FFF7FC
:1028700053FE00287FF403AF2A78022A00F0AF80CD
:10288000012A00F0B4800821FE2B3FF6F7AE228823
:102890005D1CB5542288013292B22280B154228844
:1028A000013213442380EAE6072004B0BDE8F08734
:1028B00005F1080802228DE8900040461146334693
:1028C000FFF72EFE00287FF4DAAE8DE89000404638
:1028D000334610220621FFF723FE00283FF4BEAE48
:1028E000CDE605F110088DE89000404633460222FF
:1028F0000321FFF715FE00287FF4C1AE8DE890009C
:102900004046334610220721FFF70AFE00283FF415
:10291000A9AEB4E605F118088DE8900040463346AC
:1029200002221421FFF7FCFD00287FF4A8AE8DE8F9
:1029300090004046334610221521FFF7F1FD002894
:102940003FF494AE9BE6D5F82880B8F1000FABD0E9
:10295000B8F804200232FE2A3FF690AE23884FF0EA
:1029600000094FF0160A0132F254238801339BB25A
:10297000238006F803A0238801339BB22380B8F894
:102980000020F2543344120A5A70238802339BB257
:102990002380B8F80410F0180A4661B1D8F808305E
:1029A0001946002B80D001F04DFAB8F80420238896
:1029B00013449BB2238009F1010995F82C205FFA9A
:1029C00089F94A4509EB49087FF636AFAA6A02EB56
:1029D0008808B8F804200232FE2AC4D94EE6BDF8B1
:1029E00008209342FFF44FAF134609214CE76A7861
:1029F0009342FFF448AF1346082145E72DE9F04321
:102A000095B01F230D46ADF80E300446002800F0A7
:102A10008480C27853077CD590F82D300021ADF822
:102A20000C10002B40F0DB8183780CAF002B40F0C2
:102A300017821946032014AE31445F1C023316FA84
:102A400087F74FF0020E16FA83F601F840EC83B2D6
:102A5000012107F8401CADF80C3006F8402C6668E0
:102A6000002E00F08C80D81C1F2874D90C2015B0C3
:102A7000BDE8F083A76A002F4BD0BA880232FE2A45
:102A8000F4D8BDF80C304FF0000804AE4FF0160932
:102A90001AE001F0D7F9BDF80C30BA8894F82C1080
:102AA00013449BB2ADF80C3008F101085FFA88F8C6
:102AB000884508EB480280F0F080A76A07EB8207A0
:102AC000BA880232FE2AD1D80DF1500E9E44581C0D
:102AD00001320DF1500C0EF8402C1CFA80F09A1CBB
:102AE00092B200F8409CADF80C203888B0543244C3
:102AF000000A50700433B7F804E09BB27246F01835
:102B0000ADF80C30BEF1000FCED0BB681946002BDB
:102B1000BFD1072015B0BDE8F083ADF80C00ADB112
:102B2000EB78002BF5D128460CA90DF10E02FFF72A
:102B300067FD0028EED19DF80E300CAA20469DF8C6
:102B40000C10FFF7E5FC15B0BDE8F0832B46ADF89F
:102B50000E502A46F2E714AF591C9A1C17FA81F15D
:102B60003B4417FA82F296F90060ADF80C00022798
:102B70000A2003F8407C01F8400C02F8406C2389DD
:102B8000002B40F08F80238A002B40F0AB80238BFA
:102B9000002B40F0C780226A002A42D0BDF80C30DA
:102BA000991D1F293FF662AF10880528B1D96FF42F
:102BB000486C00EB0C06B6B24FF27D37BE42A8D986
:102BC0005688052EA5D96FF4486EB6441FFA8EFEBE
:102BD000BE459ED94FF6FF77B84203D0BE4201D022
:102BE000B04296D814A8C7185E1C10FA86F64FF0AB
:102BF000050E981C07F840EC80B2122706F8407CBE
:102C0000ADF80C001788ADF80C1004AE311837542D
:102C100004333F0A4F709BB25288F2541E44120A8A
:102C20007270676AA7B3B888BDF80C30811C9A1C13
:102C300056181F2E3FF61AAFFE293FF617AF14AEF7
:102C40001E44591C0DF1500E1EFA81F1033006F896
:102C5000400C92B2FF2001F8400CADF80C203988EE
:102C600004AEB018B154090A41700433BA8898B25E
:102C7000ADF80C0062B1B96800293FF44AAF3044A6
:102C800001F0E0F8BDF80C30BA881344ADF80C3010
:102C900094F82C1000297FF4EDAE2378002B61D13D
:102CA00004AC3CE703A904F1080704AE4FF01F0889
:102CB0000222009138463346CDF804801146FFF7D2
:102CC0002FFC00287FF426AF03AB0093CDF80480DF
:102CD0003346384610220621FFF722FC00283FF435
:102CE00052AF17E703AA04F1100704AE4FF01F0814
:102CF000009238463346CDF8048002220321FFF7C4
:102D00000FFC00287FF406AF03AB0093CDF80480DE
:102D10003346384610220721FFF702FC00283FF413
:102D200036AFF7E603AA04F1180704AE4FF01F0808
:102D3000009238463346CDF8048002221421FFF772
:102D4000EFFB00287FF4E6AE03AB0093CDF80480E0
:102D50003346384610221521FFF7E2FB00283FF4E6
:102D60001AAFD7E62288012A3FF4D3AEBDF80C2073
:102D7000901C1F283FF67AAE012B04D163780344E0
:102D80001F2B3FF673AEC2F11D0314A99BB204AE14
:102D900021F8203D3044FFF7BFFB00287FF4BAAE96
:102DA0002278022A00F08680012A00F08B80ADF89C
:102DB00030300820FE2B3FF659AEBDF80C2014AC85
:102DC000511CA71814FA81F102321A44013307F892
:102DD000403C3446ADF80C2001F8400C9FE60CAFA7
:102DE0003846FFF793FB00287FF494AEBDF80C3013
:102DF00014A903F1010E9A1C11FA8EFE0B4492B233
:102E000004AEB01808211B2603F8401CADF80C20B6
:102E10000DF1310106220EF8406C01F013F8BDF8F7
:102E20000C209DF83010931D11F0FE019BB23BD198
:102E300014A8034403F8401CD31DA2789BB2ADF83C
:102E40000C304AB9E278002A3FF409AED81C1F289A
:102E500019463FF60BAEEEE504331F2B3FF606AEE8
:102E60003846FFF757FB00287FF454AEBDF80C300E
:102E7000BDF83010E278581C14AE16FA80F01E44EB
:102E80009F1C4FF0030E06F840ECBFB204AE4FF0AB
:102E9000190E00F840EC0433F019F1559BB2090A01
:102EA000ADF80C304170CEE714A90B44012103F8B2
:102EB000401CC1E7BDF830209342FFF478AF1346C1
:102EC000092077E762789342FFF471AFADF83020C4
:102ED000134608206EE700BF73DF704774DF70474A
:102EE000F0B57F4D7F4E85B00746072200217E4812
:102EF000FCF72EFB2B6823F07F4323F0FF0313B175
:102F00003378012B20D0AB78DBB9774C6378002B7A
:102F100065D1A378002B62D1E378002B5FD12379B0
:102F2000002B5CD16379002B59D1A3791A1C18BFEF
:102F300001227B1E032B00F2CF80DFE803F0104854
:102F400015313378022BE0D1684B694A1B68002B9E
:102F500000F0B4800121082011709847D5E76B7804
:102F6000002B34D0002A38D1EB78CBB15F4B1B68F3
:102F700003223270E3B95F4B00221A7010226846B8
:102F80000021FCF7E5FA337800228DF800208DF857
:102F90000820042B45D8DFE803F08D83694724001F
:102FA0002F79D7B1514B1B6804223270002BE2D02D
:102FB0002A78002ADFD0504A1278002ADBD14F4805
:102FC0004C490270012207200A709847D6E7AB7877
:102FD000002BC9D0002AC7D002273770CBE70122C7
:102FE000A7E72B78A969EA69ADF80A10ADF80C20BB
:102FF000002B65D0404B1978002961D13F4B1B78DD
:10300000002B5DD03E4B042402221846DC708DF864
:103010000820FFF7F3FC00285AD13A4A33780621FA
:103020001170002B33D02EE02B7829696A69ADF836
:103030000A10ADF80C20002B46D02F4B1978002930
:1030400042D12E4B1B78002B3ED02D4B0424022264
:103050001846DC708DF80820FFF7D0FC002837D127
:10306000284A3378052111708BB10CE02548EA68B5
:10307000AB6801940121022404708DF80010ADF8B2
:103080000C20ADF80A306846FFF726FF30B9174B21
:103090001B6813B11B4A10789847002005B0F0BD9B
:1030A00018490194012300220B708DF80030CDF8EF
:1030B0000A20E8E7134B00221A70E8E7137024E7B0
:1030C000104B04221A70DEE70E4B03221A70DAE767
:1030D0003378002BDBD0D6E7002737704BE700BFF3
:1030E000D4260020D1260020702700203827002079
:1030F0006C270020A9270020AA270020A82700204D
:10310000F4260020D02600202DE9F84FDDF828E035
:10311000002800F09880002A00F0958014460546AB
:103120009C460E460FCC494FDFF84491DFF844A18E
:10313000DFF84481DFF844B1C8F800C00FC794E855
:103140000F00002487E80F00414F424B4248CBF864
:1031500000E0012289F80020214607224FF6FF797E
:10316000A3F800908AF80040FCF7F2F921463C22CF
:103170003846FCF7EDF905F1100393E80300AA784F
:10318000EB7895F800E0BA70FB7007F1100395F842
:1031900001C087F800E083E8030005F1080393E825
:1031A000030007F1080E05F118038EE8030093E809
:1031B00003006A6A87F801C007F1180383E8030077
:1031C000B2B1264B7B62686A254A9A60B0F804E087
:1031D00001881980A3F804E0BEF1000F08D0013A7D
:1031E00023468168C95C02F8011F01337345F8D199
:1031F000AB6AB3B11B4BBB62A86A1B4A9A60848856
:103200009C800188198044B1013A00238168C95C1F
:1032100002F8011F0133A342F8D195F82C3087F84A
:103220002C302B6A33B1114B3B622A6A518859808A
:1032300012881A806B6803B17B6031460448BDE890
:10324000F84FFFF7DBBB0E20BDE8F88FD426002037
:10325000F42600203227002070270020602700205D
:10326000402700207827002084270020A427002062
:103270003C270020D12600203827002034270020BA
:103280000C4B1B780BB90820704710B50A4B82B065
:10329000044601A81C70FDF711F9019B2BB1074BE7
:1032A00001221A70002002B010BD2046FFF718FE60
:1032B000F9E700BF3C270020D1260020302700205E
:1032C00010B50388112B82B019D01B2B0AD0102BFC
:1032D00001D002B010BDC37B012BFAD1214B8288F3
:1032E0001A80F6E7037A002BF3D11F4B1B78F3B952
:1032F00008201E4B1B68002BEBD09847E9E7194AC2
:10330000838812881A4900209A420870E1D1164B2E
:103310001B78002BECD0174B012401A81C70FDF783
:10332000CDF8019BBBB1144B01221A70D1E71149B2
:10333000124A0B78013382FB0302DC17C4EB6204F0
:1033400004EB84041B1BDCB201A80C70FDF7B6F87B
:10335000019B002BE7D12046FFF7C2FD0028B8D023
:10336000C7E700BF322700203C2700203427002079
:10337000AA270020D1260020302700206766666635
:10338000F0B583B0FFF7AAFD164A174C174E00237D
:1033900006271046012519462370D7703570FFF7B0
:1033A0002DFB044610B1204603B0F0BD104B1B7836
:1033B00043B908200F4B1B68002BF4D098472046D8
:1033C00003B0F0BD0C4B01A81E78FDF777F8019B08
:1033D00013B10A4B1D70E6E73046FFF781FD002868
:1033E000E1D0E7E7F4260020A8270020AA27002044
:1033F0003C27002034270020D12600203027002041
:1034000075DF704776DF70477ADF70477BDF704784
:10341000184B18884FF6FF7398422AD010B5164AF9
:10342000164C1378217B0133DBB2994282B01370C2
:103430000CD2237C002111708BB9636923B102A8DF
:10344000002200F8042D984702B010BD0C49FFF788
:10345000D7FF0028F8D0A369002BF4D1F4E73B2173
:10346000FFF7D0FF0028E8D0A369002BE5D09847EC
:10347000E3E77047AC270020FC270020B02700209E
:10348000F427002070B51E4B1E4A5B8811889942B4
:1034900082B00FD852889A420CD31B4B5B6923B180
:1034A00002A8012200F8042D9847184C002323702D
:1034B00002B070BD154C227862B1134B5B69002BD2
:1034C000F4D002A8002200F8042D984700232370AE
:1034D00002B070BD0C4D0E4869680678AB680D48A7
:1034E000002E18BF1946FCF7FDFD0028DED0AB69A1
:1034F000002BDBD098470023237002B070BD00BFC3
:10350000EC270020F4270020B0270020AB27002064
:10351000FC270020CC270020F8B505460FCD144C21
:10352000144F0FC4064695E80700002384E80700FF
:103530003B70B6B13068104B716803C3A3F108004B
:10354000FFF762FF90B90D4D0D4C0E4A0E48002357
:103550004FF6FF762E8023701946BDE8F840FCF741
:10356000AFBD0548FFF752FF0028ECD0F8BD00BF03
:10357000B0270020AB270020F4270020AC27002034
:10358000FC27002011340200004E020070B50388B1
:10359000112B27D012D9122B07D0502B47D1244CF6
:1035A000C288E3899A4230D070BD083003C8214BED
:1035B00083E80300BDE87040FFF764BF102B35D1EE
:1035C0001D491B4C1B4B1D4DE48900F110028088E6
:1035D000088092E80300002283E803002A70002C90
:1035E000E8D070BD1449154B15484FF6FF74002202
:1035F0000C801A70FCF7CEFD0028D5D00C4B9B69CF
:10360000002BD1D0BDE870401847038A022BCBD1E4
:10361000123000F017F80028CCD10948FCF7BAFDA9
:103620000028C1D0A369002BECD1BDE770BD70BDEF
:10363000B0270020EC270020AC270020FC2700202A
:10364000CC270020007800F0010070470649074AA7
:10365000074B9B1A03DD043BC858D050FBDC00F03D
:1036600013F8FBF703FF0000B44E020028210020EE
:10367000AC210020FEE7FEE7FEE7FEE7FEE7FEE7FF
:10368000FEE7FEE7FEE7FEE7F0B4A64B1B78062B4D
:103690001BD0A54AD2F8883043F47003C2F88830B2
:1036A000BFF34F8FBFF36F8F4FF01023D3F800227B
:1036B000002AC0F20581D3F80432002BC0F2008149
:1036C0009A4B9B4A1A60F0BC70479A4B1B681E07C6
:1036D000DFD1994B1B6803F0F003302B02D1974BDD
:1036E000974A1A60944B1B6803F0F002302A00F0EE
:1036F000D68003F0E003402B00F0D1808E4B1B6896
:1037000003F0F003302B00F0BB808B4B1B6803F001
:10371000F002302A00F0A08003F0E003402B00F01C
:103720009B80854B1B6803F0F003302B00F08680F4
:10373000814B1B6803F0F003302B68D07E4B1B6875
:1037400003F0F003502B10D07B4B1B6803F0F0020A
:10375000302A03D003F0E003402B9AD1794B7A4A08
:103760001B6803F04F03136093E74FF08052774BD1
:10377000D2F80414C3F82015D2F80814C3F824159D
:10378000D2F80C14C3F82815D2F81014C3F82C156D
:10379000D2F81414C3F83015D2F81814C3F834153D
:1037A000D2F81C14C3F84015D2F82014C3F84415FD
:1037B000D2F82414C3F84815D2F82814C3F84C15CD
:1037C000D2F82C14C3F85015D2F83014C3F854159D
:1037D000D2F83414C3F86015D2F83814C3F864155D
:1037E000D2F83C14C3F86815D2F84014C3F86C152D
:1037F000D2F844244B49C3F870250A78062A7FF48E
:1038000048AF4C4B1B681B077FF443AF9CE7454B0D
:103810004F491B784F4D5048504A05270F600126ED
:1038200000243F21062B2E60046011607FF431AF2D
:10383000404B1B681A077FF42CAF7FE7394B484A8F
:103840001B780321062B11607FF423AF394B1B68D3
:1038500019077FF41EAF6BE7324B1B784FF08042A5
:103860000021062BC2F80C11C2F81011C2F838154D
:103870007FF40FAF2F4B1B6818077FF40AAF50E798
:103880003849284ACB68127823F08073062ACB6027
:10389000B4D1284B1B681C077FF4FBAE35E7324AD6
:1038A000204B12681B783149C2F34232062B0A6062
:1038B0007FF4EFAE1F4B1B681D077FF4EAAE1DE7D8
:1038C0002B4B0122C3F80425D3F80024002AFBD097
:1038D0004FF0102315222649C3F80022D1F80034F6
:1038E000002BFBD04FF010221521214BC2F80412FF
:1038F000D3F80024002AFBD000221D49C3F8042578
:10390000D1F80034002BFBD0BFF34F8F0649194B81
:10391000CA6802F4E0621343CB60BFF34F8F00BF6D
:10392000FDE700BFE00F00F000ED00E09C2100206B
:103930000090D003E40F00F0E80F00F074C00740DF
:103940000DF0ADBA58020010E40E004000C0004077
:10395000105600408856004018560040145600404B
:10396000A0050040F0ED00E0440200103C050040DE
:1039700000E001400400FA05A0DF7047A2DF7047B5
:10398000A6DF704763DF704738B131B10B88112B68
:1039900014D0502B02D0102B0DD07047CB88028A48
:1039A0009A420FD082889A42F7D18369002BF4D0D3
:1039B0000A8A123118478B88838270474FF6FF734B
:1039C000838270470A8A022AECD110B5044601F1BD
:1039D0001200FFF737FE10B10123A37510BDA075CB
:1039E00010BD00BF2DE9F0477A4B94B09A680646A7
:1039F0000D4618685968DB6804AC0FC4002E00F04F
:103A0000E480002D00F0E1804FF6FF73B3822B6855
:103A1000B361002304A8B3753146FFF7B3FF044632
:103A2000002840F0D380324614A9012512F8023B49
:103A300021F8485D28468DF80A30FFF79DFF0446BF
:103A4000002840F0C380214603226846FBF780FD32
:103A50009DF800709DF801309DF802E065F30307C2
:103A600065F3030365F3071365F3420E214665F31F
:103A700007171C220DA88DF800708DF801308DF805
:103A800002E0B046FBF764FD9DF8343018F80CEB0B
:103A90000E944FF0030A43F010032146524601A84A
:103AA0001094119413948DF834308DF80EE0CDF805
:103AB00048D0ADF80CA0FBF74BFD9DF806209DF813
:103AC00004E09DF8053065F3420264F3C30264F339
:103AD0000412D2B242EA050165F3030E65F3030353
:103AE00065F3071E65F3071314228DF8061008A866
:103AF00021468DF804E08DF805304FF01409FBF7EE
:103B000027FD01AFADF82A40434603AC08AA0DA932
:103B1000708808940997ADF82850ADF82C90FFF7FD
:103B20002DFF0446002851D10146B0461C220DA8A5
:103B3000FBF70EFD9DF8343018F8040B8DF80E00DD
:103B400043F00C0321465246022701A80E9410941C
:103B50001194129413948DF83430ADF80C70FBF777
:103B6000F7FC9DF806209DF804009DF8057065F3AC
:103B7000420264F3C30264F3041265F30300D2B299
:103B800065F3071065F3030742EA050321464A4639
:103B90008DF8040065F3071708A88DF806308DF836
:103BA0000570FBF7D5FC7088ADF82A4003AE089687
:103BB000434608AA0DA901AE0996ADF82850ADF804
:103BC0002C90FFF7DBFE044600E00E24204614B0E4
:103BD000BDE8F087044E020070B586B0ADF806204F
:103BE00048B1828A4FF6FF739A4201D0837D2BB988
:103BF000082006B070BD0E2006B070BDBDF80630BE
:103C0000142B02D9072006B070BD04460D4602A849
:103C100010220021FBF79CFCA689A08A05950DF1D6
:103C20000602012302A9ADF8086004928DF80A305B
:103C3000FFF7A6FEDDE700BF48DF704710DF7047E3
:103C400060DF704761DF7047FBF790BD2DE9F047FB
:103C5000DFF8B090294DD9F80060DFF8AC80284F2C
:103C6000DFF8A8A0B6FA86F682B076092B7803F0C2
:103C7000FF04002B36D101A8FFF7DEFF052834D062
:103C800010B3FBF763FD4EBB2B7803F0FF063BB18F
:103C900028E0FBF75BFD002CE8D02B7801240BBB60
:103CA0003B68B8F80020ADF80420184601A9FFF7DA
:103CB000C9FF052814D00028EBD11846D9F80030E8
:103CC0009847002CE9D1D1E70198FCF7FDFCDAF820
:103CD000003073B101989847002ED5D00126C5E772
:103CE000002CFBD002B0BDE8F087002EFAD10124F1
:103CF000CAE7002EC8D00126B8E700BF0928002077
:103D00001028002000280020FE2700200C2800207A
:103D1000014B1878704700BF0828002011B111F03E
:103D2000030F01D007207047F8B51A4F1A4E1B4DEC
:103D30001B4C396032802B602368DB0708D50123D8
:103D4000C4F880301749FFF779FF30B12360F8BD20
:103D50001449FFF773FF00B1F8BD134B01221A702D
:103D6000FCF7C2FC0E4A92F81633C3F34113012B41
:103D70000CD90E4B986818B94FF480031360F8BD46
:103D80001A6842F480021A600020F8BD42F2020074
:103D9000F8BD00BF10280020FE27002004280020C6
:103DA00000E100E0493C0200082800202028002013
:103DB000034618B1024A0020136070470E20704776
:103DC0000028002008B5094B1B6833B1984700B99B
:103DD00008BDBDE80840FBF7B9BC054B1B78002BBC
:103DE000F6D0BDE80840FFF731BF00BF042800202F
:103DF0000828002070B5144605460E4610460021DE
:103E00001C22FBF7A5FB227D2672002363F3000230
:103E1000012165722275A361218005B1A172002084
:103E200070BD00BF00B583B0054B019302A9019B93
:103E300041F8083DFFF704FF019B03B05DF804FB68
:103E40002821002010B5431E0A44914200D110BD24
:103E500011F8014B03F8014FF7E700000FB40A4BCC
:103E600013B51C6824B1A36913B9204600F056F8B5
:103E700005AB049AA1680193204600F061F902B0F5
:103E8000BDE8104004B0704728210020034613F815
:103E9000012B002AFBD1181A01387047014900F0A4
:103EA000A9B800BF154A0200002310B504460360FC
:103EB0004360836081814366C281036143618361A2
:103EC000194608225C30FBF743FB054B6362054B48
:103ED000A362054BE362054B2462236310BD00BF60
:103EE000B9460200DB4602001347020037470200D2
:103EF00070B54A1E682555430E4605F1740100F061
:103F000097F8044640B1002180E842000C30A060E0
:103F100005F16802FBF71CFB204670BD836910B5F4
:103F2000044633BB8364C3640365124B124A1B68A7
:103F30008262984204BF0123836100F01FF8606031
:103F4000204600F01BF8A060204600F017F8002281
:103F5000E06004216068FFF7A7FF01220921A06843
:103F6000FFF7A2FF02221221E068FFF79DFF012365
:103F7000A36110BD6C4D02009D3E0200F8B51C4BC4
:103F80001E68B369074613B93046FFF7C7FF4836C6
:103F9000B4687368013B03D5336833B13668F7E71B
:103FA000B4F90C506DB16834F4E704213846FFF7DA
:103FB0009FFF30600028F1D10C233B60044620466F
:103FC000F8BD4FF6FF73E3810123A3816566256089
:103FD000A560656025616561A5610822294604F137
:103FE0005C00FBF7B5FA6563A563A564E564E6E7E5
:103FF0006C4D02002DE9F8438046894600F14804E3
:10400000002614B93046BDE8F883A5686768013F0B
:1040100001D52468F5E7AB89012B07D9B5F90E3036
:10402000013303D029464046C84706436835EEE7CA
:1040300070B5CD1C25F0030508350C2D38BF0C25B7
:10404000002D064601DBA94203D90C233360002072
:1040500070BD00F0CDFD234A1468214691B9224C71
:1040600023681BB9304600F017FB20602946304614
:1040700000F012FB431C26D10C233360304600F0C5
:10408000B8FDE4E70B685B1B1AD40B2B0FD90B6050
:10409000CD50CC18304600F0ACFD04F10B00231DD0
:1040A00020F00700C31A1BD05A42E25070BD8C4268
:1040B0000DBF63684B686360136018BF0C46E9E787
:1040C0000C464968CAE7C41C24F00304A04205D08A
:1040D000211A304600F0E0FA0130CDD02560D9E752
:1040E00070BD00BF14280020182800209368013BF1
:1040F000002B10B4936009DA9469A34202DBCBB2BF
:104100000A2B03D15DF8044B00F01ABB1368581C4E
:1041100010601970C8B25DF8044B7047F8B50646D8
:104120000F461446D518AC4201D1002007E03A46AC
:1041300014F8011B3046FFF7D9FF431CF3D1F8BD3B
:104140002DE9F04F9DB00C4617460393064618B173
:1041500083690BB9FFF7E2FE7C4B9C4257D1746830
:10416000A38918075DD52369002B5AD00023099332
:1041700020238DF8293030238DF82A304FF0010BA1
:10418000B846454615F8013B002B55D1B8EB070A58
:104190000BD053463A4621463046FFF7BFFF013069
:1041A00000F0C480099B5344099398F80030002B19
:1041B00000F0BC8000234FF0FF3204930793059278
:1041C00006938DF853301A9305222978604800F041
:1041D000BFFC05F10108049B002831D1D90644BF7A
:1041E00020228DF853201A0744BF2B228DF853202C
:1041F0002A782A2A2CD0079A00210A20A8460135BD
:1042000098F80030303B092B6DD971B326E0514B43
:104210009C4201D1B468A3E74F4B9C4208BFF468AD
:104220009EE72146304600F0EFFA00289ED04FF07E
:10423000FF301DB0BDE8F08F252BA7D0A846A0E722
:10424000434A801A0BFA00F0184304904546BBE736
:10425000039A111D12680391002A01DB079204E002
:10426000524243F002030792049398F800302E2B39
:1042700010D198F801302A2B08F1010137D1039BA6
:104280001A1D1B680392002BB8BF4FF0FF3308F1D3
:1042900002080593314D98F800100322284600F0DB
:1042A00057FC40B14023401B03FA00F0049B03433A
:1042B000049308F1010898F8001029488DF8281097
:1042C000062208F1010700F043FC002834D0254BFA
:1042D00003BB039B073323F0070308330393099BB6
:1042E0004B4409934CE700FB0232012186E700238F
:1042F000059318460A258846013198F80020303A7F
:10430000092A03D9002BC5D00590C3E705FB00207F
:104310000123F0E703AB00932246134B04A9304678
:10432000AFF30080B0F1FF3F8146D8D1A3895B068F
:104330003FF57DAF09987CE703AB009322460A4B1B
:1043400004A9304600F088F8ECE700BF344E0200C4
:10435000744E0200544E0200144E02007A4E0200C7
:104360007E4E0200000000001D4102002DE9F047D2
:1043700091461F468A680B69DDF820809342B8BFDA
:104380001346C9F8003091F8432006460C4612B196
:104390000133C9F800302368990642BFD9F80030CC
:1043A0000233C9F80030256815F0060507D104F17D
:1043B000190AE368D9F800209B1A9D4229DB94F87A
:1043C00043302268003318BF012392062ED404F133
:1043D000430239463046C047013021D02368E568A2
:1043E000D9F8002003F00603042B08BFAD1AA36818
:1043F00022690CBF25EAE57500259342C4BF9B1ACC
:10440000ED184FF000091A344D451BD10020BDE8CE
:10441000F0870123524639463046C047013003D168
:104420004FF0FF30BDE8F0870135C2E7E1185A1CB4
:10443000302081F84300224494F8451082F843105C
:104440000233C4E70123224639463046C0470130D3
:10445000E6D009F10109D7E72DE9F04317460A7EB6
:1044600085B06E2A984606460C460C9B01F1430E19
:1044700000F0BC801AD8632A2ED00AD8002A00F097
:10448000C880582A00F08A8004F1420584F842204E
:104490002AE0642A01D0692AF6D121681A6811F04D
:1044A000800F23D0111D1960136827E0732A00F0D4
:1044B000B48008D86F2A2AD0702AE5D10A6842F061
:1044C00020020A6003E0752A21D0782ADCD1782204
:1044D00084F845206E4964E01A6801F14205111D17
:1044E0001960136884F842300123A3E011F0400FF3
:1044F00002F104011960D7D0B2F90030002B03DAC1
:104500002D225B4284F8432062490A2217E020688A
:10451000196810F0800F03D0081D18600B6806E0C2
:1045200010F0400F01F104001860F7D00B885949D2
:104530006F2A14BF0A220822002084F8430065680D
:10454000A560002DC0F29C80206820F0040020604F
:10455000002B3FD1002D40F095807546082A0BD1E5
:104560002368DA0708D5236962689A42DEBF3023E0
:1045700005F8013C05F1FF35AEEB05032361CDF8ED
:1045800000803B4603AA21463046FFF7EFFE01308C
:1045900055D14FF0FF3005B0BDE8F08381F84520DC
:1045A0003C492268186812F0800F00F104051D6074
:1045B00001D0036802E05506FBD50388D00744BF4D
:1045C00042F0200222601BB9226822F02002226001
:1045D0001022B1E77546B3FBF2F002FB1033CB5C5F
:1045E00005F8013D03460028F5D1B7E708681A68C9
:1045F000496910F0800F04D0101D1860136819600D
:1046000007E010F0400F02F1040018601368F6D0C4
:104610001980002323617546B1E71A68111D1960DE
:10462000156862680021284600F092FA08B1401B24
:10463000606063682361002384F843309FE7236947
:104640002A4639463046C0470130A2D023689B072E
:1046500007D5002504F11909E368039A9B1A9D42C6
:1046600005DBE068039B9842B8BF184693E7012337
:104670004A4639463046C04701308AD00135EBE71B
:10468000002BA7D10B7884F8423004F1420565E78E
:10469000964E0200854E020038B5064C00230546B2
:1046A0000846236000F048FB431C02D1236803B195
:1046B0002B6038BD2C28002010B50C46B1F90E1027
:1046C00000F0E6FA0028ABBF636DA3891B1823F442
:1046D0008053ACBF6365A38110BD2DE9F0411F4637
:1046E0008B89DB0505460C46164605D502230022BC
:1046F000B1F90E1000F0B8F9A389B4F90E1023F443
:104700008053A38132463B462846BDE8F04100F085
:1047100069B810B50C46B1F90E1000F0A5F9431CAC
:10472000A38915BF606523F4805343F48053A381AC
:1047300018BFA38110BDB1F90E1000F0D3B800006E
:10474000F8B50E461446054618B183690BB9FFF754
:10475000E5FB214B9C422AD16C68A369A360A38925
:104760001A072ED5236963B323692068C01A6369C9
:10477000F6B29842374604DB2146284600F04AF953
:1047800028BBA368013BA36023685A1C22601E70EB
:1047900063690130984204D0A389DB0719D50A2E3A
:1047A00017D12146284600F035F990B10FE00B4BA8
:1047B0009C4201D1AC68D0E7094B9C4208BFEC6831
:1047C000CBE72146284600F01FF80028CCD04FF058
:1047D000FF373846F8BD00BF344E0200544E020089
:1047E000144E020038B5074C054608461146002213
:1047F00022601A46FBF76CFE431C02D1236803B10A
:104800002B6038BD2C280020324B70B51D68064641
:104810000C4625B1AB6913B92846FFF77FFB2E4B39
:104820009C420FD16C68B4F90C309AB215072CD4A5
:10483000D00611D40922326043F04003A3814FF027
:10484000FF3070BD254B9C4201D1AC68EBE7244B97
:104850009C4208BFEC68E6E7510712D5616B41B195
:1048600004F14403994202D0304600F0C3F900231A
:104870006363A38923F02403A38100236360236976
:104880002360A38943F00803A38123694BB9A3895B
:1048900003F42073B3F5007F03D02146304600F0C7
:1048A00019F9A28912F001030CD00023A3606369F7
:1048B0005B42A361236953B9B4F90C3013F0800053
:1048C000BAD170BD920758BF6369A360F2E70020B8
:1048D000F7E700BF28210020344E0200544E0200AA
:1048E000144E020038B5064C0023054608462360E6
:1048F00000F002FA431C02D1236803B12B6038BDDB
:104900002C2800208A892DE9F041054610070C4625
:104910005AD44B68002B05DC0B6C002B02DC00200A
:10492000BDE8F081E66A002EF9D0002312F480522F
:104930002F682B6033D0606DA3895A0705D5636853
:10494000C01A636B0BB1236CC01A00230246E66ADF
:10495000216A2846B047431CA38906D129681D292E
:104960004BD82B4ACA40D60747D500226260D904EB
:104970002269226004D5421C01D12B6803B960650D
:10498000616B2F600029CAD004F14403994202D020
:10499000284600F02FF900206063BDE8F081216A0D
:1049A00001232846B047411CC6D12B68002BC3D039
:1049B0001D2B01D0162B01D12F60B0E7A38943F046
:1049C0004003A381BDE8F0810F69002FA7D09307B2
:1049D0000E6808BF4B690F6018BF0023A6EB0708DD
:1049E0008B60B8F1000F9ADD43463A46216AA66A09
:1049F0002846B047002807DCA38943F04003A38181
:104A00004FF0FF30BDE8F0810744A8EB0008E8E76D
:104A10000100402038B50B6905460C46DBB118B1E2
:104A200083690BB9FFF77AFA0C4B9C4209D16C6889
:104A3000B4F90C307BB121462846BDE83840FFF779
:104A400061BF074B9C4201D1AC68F1E7054B9C422A
:104A500008BFEC68ECE7002038BD00BF344E020010
:104A6000544E0200144E020038B5074C0546084665
:104A70001146002222601A4600F056F9431C02D16A
:104A8000236803B12B6038BD2C28002070B50E467A
:104A9000B1F90E10002990B014461D4607DA002324
:104AA0002B60B3891A0610D44FF480630EE001AA7C
:104AB00000F000F90028F2DB029A02F47042A2F53D
:104AC00000535A425A412A60EEE7402300202360F7
:104AD00010B070BD8B8973B59D0706460C4607D58F
:104AE00004F14703236023610123636102B070BDB9
:104AF00001AB6A46FFF7CAFF009905463046FFF74B
:104B000097FA38B9B4F90C309A05EFD443F00203A0
:104B1000A381E5E70C4BB362A389206043F08003D7
:104B2000A381009B6361019B20614BB1B4F90E101E
:104B3000304600F0D1F818B1A38943F00103A381F6
:104B4000A3891D43A581D1E79D3E0200000000001E
:104B500001F0FF01102A2BDB10F0070F08D010F82E
:104B6000013B013A8B422DD010F0070F42B3F6D132
:104B7000F0B441EA012141EA014122F007047FF04B
:104B800000070023F0E80256083C85EA010586EAA2
:104B9000010685FA47F5A3FA87F586FA47F6A5FADE
:104BA00087F68EB9EED1F0BC01F0FF0102F00702EA
:104BB00032B110F8013B013A83EA010313B1F8D195
:104BC0000020704701387047002D06BF3546033876
:104BD000073815F0010F07D1013015F4807F02BFAF
:104BE000013015F4C03F0130F0BC0138704700BF00
:104BF0007047704738B50546002945D051F8043C48
:104C00000C1F002BB8BFE418FFF7F2FF1F4A136810
:104C1000104633B9636014602846BDE83840FFF79A
:104C2000E8BFA3420CD921686218934204BF1A68F6
:104C30005B68636004BF521822600460ECE71346AF
:104C40005A680AB1A242FAD919685818A0420BD181
:104C500020680144581882421960DDD110685268FA
:104C60005A6001441960D7E702D90C232B60D3E7BF
:104C7000206821188A4204BF11685268626004BF2C
:104C8000091821605C60C7E738BD00BF1428002008
:104C900038B5074C054608461146002222601A46E0
:104CA000FBF724FC431C02D1236803B12B6038BD01
:104CB0002C28002038B5074C00230546084611462D
:104CC000236000F021F8431C02D1236803B12B605C
:104CD00038BD00BF2C28002038B5064C00230546FF
:104CE0000846236000F018F8431C02D1236803B182
:104CF0002B6038BD2C280020024B58221A604FF040
:104D0000FF3070472C280020024B58221A604FF0C9
:104D1000FF3070472C280020024B58221A600020D8
:104D2000704700BF2C280020024B58221A604FF019
:104D3000FF3070472C280020044A05491368002BD7
:104D400008BF0B4618441060184670471C28002006
:104D500030280020F8B500BFF8BC08BC9E4670475C
:104D6000F8B500BFF8BC08BC9E4670472C21002057
:104D7000D0210020FFFFFFFFFFFFFFFFFFFFFFFF2E
:104D8000FFFFFFFF00000000000000000000D60150
:104D9000070100000D0E0F10111213140D00030077
:104DA000751802000E000300751802000F000300C2
