:1000000000000120D11A0000F91A0000FB1A0000BC
:10001000FD1A0000FF1A0000011B00000000000094
:10002000000000000000000000000000031B0000B2
:10003000051B000000000000071B0000091B00005A
:100040000B1B00000B1B0000DD1700008D170000CC
:100050000B1B00000B1B0000491000000B1B0000D5
:100060000B1B00000B1B00000B1B00000B1B0000F8
:100070000B1B00000B1B00000B1B00000B1B0000E8
:100080000B1B0000FD0600000B1B00000B1B0000FB
:10009000C10700000B1B00000B1B00000B1B000026
:1000A0000B1B00000B1B00000B1B00000B1B0000B8
:1000B0000B1B00000B1B00000000000000000000F4
:1000C0000B1B00000B1B00000B1B00000B1B000098
:1000D0000B1B00000B1B00000B1B000000000000AE
:1000E0000000000000000000000000000000000010
:1000F0000000000000000000000000000000000000
:1001000000000000000000000000000000000000EF
:1001100000000000000000000000000000000000DF
:1004000010B5054C237833B9044B13B10448AFF34E
:1004100000800123237010BD740000200000000044
:10042000341E00000C4B43B10C480D4910B5AFF31E
:1004300000800C48036823B910BD0A48036833B92B
:100440007047094B002BF7D0BDE810401847064B0A
:10045000002BF5D0184700BF00000000341E00003C
:10046000780000207000002000000000154B002BD9
:1004700008BF134B9D46A3F5803A00218B460F46DB
:100480001348144A121A00F063F80F4B002B00D0E7
:1004900098470E4B002B00D0984700200021040005
:1004A0000D000D48002802D00C48AFF3008000F08A
:1004B0002BF82000290000F05BF800F011F800BFD5
:1004C0000000080000000120000000000000000003
:1004D000740000205801002000000000000000000F
:1004E00008B5074B044613B10021AFF30080054B5C
:1004F0001868836A03B19847204600F031F800BFBE
:1005000000000000141E000070B50D4E0D4CA41B21
:10051000A4100025A54209D10B4E0C4C01F06EFC35
:10052000A41BA4100025A54205D170BD56F82530A6
:1005300098470135EEE756F8253098470135F2E740
:100540006800002068000020680000206C00002087
:1005500002440346934200D1704703F8011BF9E7B8
:10056000FEE700BF014B01221A707047980000207F
:100570002DE9F04186B002AC00F04CFC0023A370E2
:10058000ADF8083000F0CEFC08B900F089FC214637
:10059000002000F0D1FC08B100F08EF83D4B0FCBED
:1005A0001D2684E80F001C252146032304243A4A13
:1005B0003A488DF80B608DF80A508DF809408DF897
:1005C000083000F0D5FF08B100F076F8344CDFF8C1
:1005D000E480344D02270026022200212846FFF73E
:1005E000B7FF00972B4602222F492C48267001F0B6
:1005F00051F808B14AE020BF2378002BFBD000203F
:1006000000F0F6FB002000F00FFD284BD8F800208A
:10061000274900BF00BF00BF00BF00BF00BF00BF31
:1006200000BF8A422FD000BF00BF00BF00BF00BF85
:1006300000BF00BF00BF00BF00BF00BF00BF00BFC2
:1006400000BF00BF00BF00BF00BF00BF00BF00BFB2
:1006500000BF00BF00BF00BF00BF00BF00BF00BFA2
:1006600000BF00BF00BF00BF00BF00BF00BF00BF92
:1006700000BF00BF00BF00BF00BF00BF00BF00BF82
:1006800000BF00BF00BF013BC3D1A5E700F014F8D5
:10069000B2E700BF181E000065050000281E00001C
:1006A000980000209000002060000020400D030012
:1006B0000024F4006400002000B585B000230390FE
:1006C000194601AA44F20100ADF80430029300F08B
:1006D00003F805B05DF804FBBFF34F8F0549064BE7
:1006E000CA6802F4E0621343CB60BFF34F8F00BFD0
:1006F000FDE700BF00ED00E00400FA052DE9F84336
:10070000274A284B0025C2F84051C2F84451C2F88C
:100710004851C2F84C51C2F80051C2F804511B684C
:100720001BB32149D2F804450A68204FA41A1A685D
:1007300024F07F44A242A84609D8197CDE69A41A95
:100740001544A1B91EB133461A68A242F5D9184919
:10075000184A0B7812789A421BD01749174A41F869
:1007600023504FF48013C2F80031BDE8F883D3F86A
:10077000149083F810803A689B69484619462AB15C
:1007800090470028DED0FFF797FFDBE71846C84701
:10079000D8E7531CDBB2022B08BF00230B70DCE749
:1007A00000100140BC000020B80000209C00002088
:1007B000B5000020B4000020AC00002000E100E003
:1007C0002DE9F04FA34AA44913780978A348994228
:1007D00089B0D0F800B000F0E5800133DBB2022B25
:1007E00008BF002313709E4A52F823609B4A0BEB0C
:1007F000060323F07F43136001230593994B93F87D
:100800000090994BD3F800A0964B5C785B680393FB
:10081000944B9B780293954B1B7804938F4B002746
:100820001B680693CC465546D646B84601973B46CC
:100830000097A44523D00CEB4C020398029F10F8BC
:1008400032100CF1010C5FFA8CFCBC4508BF4FF074
:10085000000C022900EBC2027BD00329E9D1BEF1D2
:10086000000FE6D0DEF81C208EF810309646002AE5
:10087000F8D11546A4454FF001020092DBD1019B4F
:10088000009F002B40F0A380B8F1000F02D0734B03
:10089000069A1A600FB1744B1D60059B002B40F047
:1008A000C281BAEB0E0318BF012305930025002374
:1008B000019304931F466D4BDFF8B4B11B78069388
:1008C000664BD3F80080684B1B68009376464FF068
:1008D000010A35B36A68A9682B46ED69A2EB0800E6
:1008E00020F07F40584577D8014419605F609F60D1
:1008F00083F810A0DF61002E00F08E8030688842FF
:1009000080F08280344603E0106888426DD214463D
:10091000E269091A002AF7D11960DA61E361002D52
:10092000D8D1039909EB490309F10102CC4501EB48
:10093000C3045FFA82F900F09D8011F83300029B36
:100940004B4508BF4FF0000901286AD001230493EA
:10095000E8E75068BEF1000F3FF46BAF7045714699
:1009600017D0009F02E0904205D01146CA69002AC4
:10097000F9D100975DE7884200970BD0C269006803
:10098000CA61002A3FF455AF116801441160AE46B8
:100990004FE77046DEF81C20964632B1154601221C
:1009A0000092EBE70026059628E702F1804202F567
:1009B00088324FF00108C2F808807546CDF818E07B
:1009C000CDF80080CDF80480CDF81080D6E7274B15
:1009D0009DF810201A7057E7A8EB020222F07F4220
:1009E0008A4208D2891A196080E7401A106019609B
:1009F000DA61E36193E71F605F609F6083F810A096
:100A0000DF614EB130680021411A31600093DE6130
:100A10001E46012301935CE700931E4601230193C8
:100A200057E763681A7C0492002A7FF47BAFA268C0
:100A30005A60E168996007902069D86064699C6198
:100A4000069C002C00F0EC80049A5A60049400226A
:100A500044E700BFB4000020B5000020B80000202B
:100A6000AC000020A0000020BC000020A800002056
:100A7000FEFF7F00049B002B40F0A681019B13B179
:100A8000804B009A1A60764500F0C080002E00F07E
:100A900007817D4A7D49D2F804050C783668A0EBC1
:100AA000080323F07F430333002C50D1784CDFF848
:100AB000E8E1784F4FF48035C2F84453C2F804534C
:100AC0004FF40035C4F88051256001241460DEF82D
:100AD00000502F2200BF00BF00BF00BF00BF00BFFB
:100AE00000BF00BFBD422FD000BF00BF00BF00BF8E
:100AF00000BF00BF00BF00BF00BF00BF00BF00BFFE
:100B000000BF00BF00BF00BF00BF00BF00BF00BFED
:100B100000BF00BF00BF00BF00BF00BF00BF00BFDD
:100B200000BF00BF00BF00BF00BF00BF00BF00BFCD
:100B300000BF00BF00BF00BF00BF00BF00BF00BFBD
:100B400000BF00BF00BF00BF013AC3D10C709E427E
:100B50002CBF08EB060343444B4923F07F43C1F805
:100B60004035D1F80425121A1B1A22F07F4223F0D7
:100B70007F4303329A424DD9D1F80435464AC1F831
:100B80004035126843492F2300BF00BF00BF00BF9C
:100B900000BF00BF00BF00BF8A422FD000BF00BF10
:100BA00000BF00BF00BF00BF00BF00BF00BF00BF4D
:100BB00000BF00BF00BF00BF00BF00BF00BF00BF3D
:100BC00000BF00BF00BF00BF00BF00BF00BF00BF2D
:100BD00000BF00BF00BF00BF00BF00BF00BF00BF1D
:100BE00000BF00BF00BF00BF00BF00BF00BF00BF0D
:100BF00000BF00BF00BF00BF00BF00BF013BC3D1AB
:100C0000234B4FF40032C3F8002103E0059B002B77
:100C10007FF43CAF214A0023137009B0BDE8F08F88
:100C2000079804905AE6174B00247746254621463C
:100C300020461B68DDF814E0A7B13A68B24218D824
:100C4000FC683860B61A1144FB693CB10BEB010239
:100C500022F07F42FD61BC607A603D461F467446CB
:100C6000002FEAD1BE46002C3FF421AE054A1360A6
:100C70001DE6BE46002C40F0A480921BCEF800205A
:100C800015E600BFBC00002000100140A9000020B4
:100C900000E100E00024F40064000020A80000202F
:100CA0004B4A4C4B4C4D4D484FF480314FF400377C
:100CB0000124C3F88070C2F848132F23C2F8081328
:100CC000546029681D4600BF00BF00BF00BF00BFC1
:100CD00000BF00BF00BF81422FD000BF00BF00BFD8
:100CE00000BF00BF00BF00BF00BF00BF00BF00BF0C
:100CF00000BF00BF00BF00BF00BF00BF00BF00BFFC
:100D000000BF00BF00BF00BF00BF00BF00BF00BFEB
:100D100000BF00BF00BF00BF00BF00BF00BF00BFDB
:100D200000BF00BF00BF00BF00BF00BF00BF00BFCB
:100D300000BF00BF00BF00BF00BF013DC3D1946032
:100D4000274A166000BF00BF00BF00BF00BF00BF42
:100D500000BF00BF81422FD000BF00BF00BF00BF57
:100D600000BF00BF00BF00BF00BF00BF00BF00BF8B
:100D700000BF00BF00BF00BF00BF00BF00BF00BF7B
:100D800000BF00BF00BF00BF00BF00BF00BF00BF6B
:100D900000BF00BF00BF00BF00BF00BF00BF00BF5B
:100DA00000BF00BF00BF00BF00BF00BF00BF00BF4B
:100DB00000BF00BF00BF00BF013BC3D1094B1E7085
:100DC00028E709490B6058E7084B83F800C055E64F
:100DD0000010014000E100E0640000200024F40065
:100DE000B8000020A9000020BC000020A0000020C6
:100DF000074B4FF0A041185CD1F804350122824026
:100E000022EA03001340C1F80805C1F80C35704709
:100E1000301E000030B44FF0A04303224FF40035E1
:100E20004FF480244FF400204FF48011C3F844277E
:100E3000C3F84827C3F84C27C3F85027C3F8085510
:100E4000C3F80845C3F80805C3F8081530BC704757
:100E5000002810B418DB00F1604303F56143490139
:100E6000C9B283F80013C3B24009800000F16040AA
:100E700000F5614003F01F0201239340C0F8803168
:100E800003605DF8044B7047C3B2044A03F00F04DB
:100E900049012244C9B21176E6E700BFFCEC00E04C
:100EA00030B51D4C94F8545083B015B1082003B0F0
:100EB00030BD4FF0FF33FF22072106202363636319
:100EC000A363E36323646364A364E36423606360F4
:100ED000A360E36023616361A361E361236284F83B
:100EE00050306362A36284F85230E36284F8533076
:100EF00084F85120FFF7ACFF084B094A1D601B68BE
:100F0000019301984FF000430121284684F85410C2
:100F1000C2F8043303B030BDC00000207C61004043
:100F200000600040034B93F85400003018BF0120CC
:100F3000704700BFC000002070B43A4B1A1892F9F5
:100F40003040013402D0082070BC70478C78DCB18E
:100F50001A6801325AD05A68013259D09A6801325F
:100F600058D0DA68013257D01A69013256D05A691E
:100F7000013255D09A6901321BD0DA69013208BFBB
:100F8000072517D00420DFE7FE2382F830304B78A6
:100F9000012B35D001234FF0A0428340C2F80C351D
:100FA00000F5E0704FF0A043032243F8202000201A
:100FB000CAE70625AA0002F1804202F5C0421E18C7
:100FC000002443F8254086F83050D2F810450B78BD
:100FD0004D7824F4981424F4F8541B042D05C2F819
:100FE000104505F4801503F4403304022B4304F448
:100FF000F854D2F8105523432B43C2F81035C6E7F6
:101000004FF0A0428340C2F80835C9E70025D1E778
:101010000125CFE70225CDE70325CBE70425C9E766
:101020000525C7E7C00000204FF0A0410122D1F8FC
:10103000043502FA00F020EA03020340C1F8082553
:10104000C1F80C35704700BF2DE9F04F87B0002381
:10105000CC4A01931168012900F00A821E46CA4B4E
:101060001A68012A00F0F681C84B1A68012A00F0BC
:10107000E381C74B1A68012A00F0D081C54B1A687A
:10108000012A00F0BD81C44B1A68012A00F0AA8130
:10109000C24B1A68012A00F09781C14B1A68012AD5
:1010A00000F08481BF4B1A68012A00F05E8116F0BF
:1010B000FF0F1AD0BC4F01250024A30003F1804389
:1010C0002E4203F5C0434FEA45050BD0D3F8100577
:1010D00057F82420D3F81015C0F30420C1F30141C0
:1010E00002B190470134082CE7D1002E02DB07B093
:1010F000BDE8F08F00224FF0FF33AB4C0292039318
:10110000012502AE94F950104F1C2DD0C9B221F028
:10111000C00006AB4FEAD00E03EB0E0701F0070349
:1011200017F80C2C05FA03F31A421DD0221889096E
:1011300092F9302054F82220002A00F0F080032990
:1011400000F0F0804FEA800E0EF1A04E17F814CC9C
:10115000DEF800771CEA0303C7F3014940F0B880CA
:10116000B9F1030F00F0D7814FF0030A4FF00209E5
:101170004FF00108002794F95110481C2DD0C9B236
:1011800021F0C00006AB4FEAD00C03EB0C0E01F0CF
:1011900007031EF80C2C05FA03F31A421DD022187F
:1011A000890992F9302054F82220002A00F0CA80E0
:1011B000032900F0CA804FEA800C0CF1A04C1EF805
:1011C00014BCDCF800E71BEA030FCEF3014E40F03D
:1011D0009080BEF1030F00F08A8194F952104A1CEE
:1011E0002CD0C9B221F0C00006AB4FEAD00C03EB03
:1011F0000C0E01F007031EF80C2C05FA03F31A423B
:101200001CD02218890992F9302054F82220002A93
:1012100000F08F80032900F08E804FEA800C0CF1E3
:10122000A04C1EF814ACDCF800E71AEA030FCEF36A
:10123000014E6AD1BEF1030F00F0468194F95310BC
:101240004B1C2CD0C9B221F0C00006AB4FEAD00E27
:1012500003EB0E0201F0070312F80CCC05FA03F3BE
:101260001CEA030F1BD004EB000C89099CF930C069
:1012700054F82C90B9F1000F6ED003296ED04FEACC
:10128000800E0EF1A04E12F814CCDEF800271CEAF6
:10129000030FC2F3014211D1032A00F0F580002FA1
:1012A0003FF425AF4FF0A043019AD3F810359A428E
:1012B0003FF41DAF029A0193039223E7022AEED175
:1012C000032900F04681B9F1000FE8D0C847E6E7EE
:1012D000B9F1020F7FF448AF032900F043814FF0CA
:1012E000030A4FF001080027002A3FF444AF90475B
:1012F00041E7BEF1020F7FF470AF032900F02C81AB
:10130000002A3FF46AAF904767E7BEF1020F95D11C
:10131000032900F02481002A90D090478EE703290A
:101320007FF422AF16F80EC04CEA030C06F80EC08C
:1013300008E7032982D116F80CA04AEA030A06F846
:101340000CA06AE703297FF448AF16F80CB04BEA0B
:10135000030B06F80CB02EE70329A0D116F80EC037
:101360004CEA030C06F80EC089E700221A601B68DD
:1013700005934FF0A043059AD3F81035019346F03A
:10138000004694E6006100400461004008610040AE
:101390000C61004010610040146100401861004081
:1013A0001C6100407C610040C00000206F4AD2F800
:1013B000042312067FF576AE00221A601B680493A0
:1013C000049B46F080066DE6684AD2F80423510675
:1013D0007FF563AE00221A601B680493049B46F0FD
:1013E00040065AE6614AD2F8042390067FF550AED3
:1013F00000221A601B680493049B46F0200647E60F
:101400005A4AD2F80423D4067FF53DAE00221A6072
:101410001B680493049B46F0100634E6534AD2F846
:10142000042315077FF52AAE00221A601B68049377
:10143000049B46F0080621E64C4AD2F804235707DD
:101440007FF517AE00221A601B680493049B46F0D8
:1014500004060EE6454AD2F8042392077FF504AE4F
:1014600000221A601B680493049B46F00206FBE509
:101470003E49D1F8046316F001063FF4F0AD136065
:1014800013680493049BEAE503297FF41CAF4FF42F
:101490000032DEF8003723F44033CEF80037DEF8B0
:1014A00000371343CEF80037B9F1000F01D047469B
:1014B0000CE74FF0A043019AD3F8103593427FF424
:1014C000F9AE07B0BDE8F08F03297FF424AF4FF4E5
:1014D0000037DCF8003723F44033CCF80037DCF871
:1014E00000373B43CCF800374746C84613E703298B
:1014F0007FF406AF4FF40037DCF8003723F44033B5
:10150000CCF80037DCF800373B43CCF800374746CF
:10151000C846D146F4E6032906D0CA461F464FF016
:1015200002094FF00108DFE64FF40037DEF800371C
:1015300023F44033CEF80037DEF800373B43CEF8D3
:1015400000374FF0040A4FF003094FF0020801275B
:10155000CAE64FF440329CE74FF44037CCE74FF4F3
:101560004037B6E74FF44037E0E700BF0060004087
:10157000F8B54479464D64012B191B7E0BB1082048
:10158000F8BD2A510B7B0F78012B4FF0A0464FF08E
:10159000010303FA07F394BFC6F80C35C6F8083503
:1015A0000E784FF0A04706F5E076012347F8263085
:1015B0004E78FF2E62D006F5E07EB3404FF0030C6C
:1015C000C7F80C3547F82EC08F78FF2F53D007F59A
:1015D000E07E4FF0A0434FF0000C43F82EC0CB78D4
:1015E000FF2B0FD04FF0010E4FF0A04C0EFA03F37B
:1015F000CCF80835CB7803F5E0734FF0030E4CF8C8
:1016000023E0CB7890F805E005EB4E1E8EF81A30FB
:10161000036891F800E0C3F808E5C3F80C65C3F867
:1016200010758E68C3F824654E7B0F7B003618BF9B
:101630000126022F25D0032F1AD0012F01D146F009
:101640000206C3F854654E79C3F8C065E2B140267E
:101650000722C3F80463C3F80025097990F9040050
:10166000FFF7F6FB2C440123002023766076F8BDBB
:1016700046F00606E5E74FF0FF37B0E74FF0FF36DC
:10168000A2E746F00406DCE70722C3F80025E9E7F5
:10169000180100202DE9F04346793B4C750167198C
:1016A00083B097F819E09DF828C0BEF1000F03D071
:1016B000112003B0BDE8F083914662591AB14FF092
:1016C000010E87F819E0082707EB461604EB060E13
:1016D000A15167198EF80490CEF808308EF80CC02E
:1016E0007E7F07F11808BF7E06F0FE066FF3410605
:1016F000FF2F88F8056005D001264FF0A04EBE40B0
:10170000CEF80C6559B101F06046B6F1005F06D025
:101710002C4400231020637603B0BDE8F08323B18E
:1017200003F06046B6F1005FF2D106680020C6F80B
:101730004415C6F84895C6F83435C6F838C5C6F815
:101740001801D6F8183101930123019AC6F8500503
:10175000C6F84005336163591BB14023C6F8043312
:10176000A7E7D6F81831002BFBD02C44A37EFF2B23
:1017700008D001224FF0A04102FA03F3C1F8083566
:10178000002096E7002094E718010020104BD3F8C2
:101790001821DAB100B500210E4AC3F8181183B040
:1017A000917ED3F818310193FF29019B05D00123C5
:1017B0004FF0A0408B40C0F80835002353761371DA
:1017C00005481368984703B05DF804FB704700BFF5
:1017D00000300040180100201C01002070B5A54C0D
:1017E000237F8EB0002B73D1A34AD2F8041389054E
:1017F00046D4A14BD3F80423520704D5D3F80821CB
:10180000002A40F0C9809C4BD3F81C21BAB1A28AAF
:10181000A17D92B28A424FF00002C3F81C2180F0F1
:10182000A880D3F81C210692069AA18AA28AA068F1
:1018300089B20132415C92B2A282C3F81C158E4B70
:10184000D3F84421D2B10022C3F84421D3F8441183
:10185000A27E04910499002A40F08880E37D6BB158
:101860000023617EE268E37501238DF830108DF866
:1018700028300B9294E80A000AA898470EB070BD71
:10188000D2F824110029B4D0C2F82431D2F824119E
:10189000A37E07914FF401710798C2F808130BB9A2
:1018A00001235360744A02238DF82830D2F8803423
:1018B000C2F88034E07DE2680D9300238DF830009B
:1018C000E375237621680B9263680AA898479AE724
:1018D000694BD3F82421002A40F09280D3F81011EC
:1018E00061B1C3F81021D3F8101103910399D3F813
:1018F0003C15E07DC9B2884200F0A4805E4BD3F86D
:101900004421B2B10022C3F84421D3F84401E17D5F
:101910000190019869B1D3F83C35E1688DF8303019
:1019200001230B918DF82830E27594E80A000AA88B
:101930009847514BD3F82021002A9FD00022C3F8AA
:101940002021D3F82001A17D00900098002995D096
:10195000D3F84C15A3688DF830100B938DF8282020
:10196000A27594E80A000AA8984787E701221A603E
:1019700074E7D3F81C310593059B00293FF45FAF52
:10198000A3688DF830100B938DF82820A27594E889
:101990000A000AA8984752E7E27D002A6ED000228A
:1019A000C3F80821D3F808210892089AE168627EFA
:1019B000D3F818358B54637EE27D0133DBB2637656
:1019C000637E93427FF41FAF237E002B6CD1A37EF6
:1019D00013B9294B01225A60274AE06863684FF423
:1019E0000171C2F80813627E8DF8302000250122B3
:1019F0000B902168E5758DF828200AA8984702E722
:101A00000022C3F82421D3F82411029102218DF879
:101A100028100299D3F88014C3F880140D91D3F8DC
:101A20003C15E368E27522768DF830100B9321683F
:101A300063680AA89847104BD3F84421002A3FF462
:101A400078AF5FE7217E11B3D3F80062E568E175F6
:101A500026F02006C3F8006226698DF830000123C5
:101A60008DF82830227621680B95E66063680AA815
:101A7000984743E73801002000200040C3F80821C0
:101A8000D3F8081109910999D3F8183598E7E26855
:101A9000E17501238DF830008DF828300B9294E821
:101AA0000A000AA8984729E7607EE5682169E3757E
:101AB000012200238DF83000E160237663760B95D8
:101AC0008DF8282094E80A000AA898479BE600BFF2
:101AD0000649074A074B9B1A03DD043BC858D05000
:101AE000FBDC00F013F8FEF7C1FC0000401E000014
:101AF0000000002074000020FEE7FEE7FEE7FEE79E
:101B0000FEE7FEE7FEE7FEE7FEE7FEE7F0B4A64BE2
:101B10001B78062B1BD0A54AD2F8883043F47003FB
:101B2000C2F88830BFF34F8FBFF36F8F4FF0102391
:101B3000D3F80022002AC0F20581D3F80432002B2A
:101B4000C0F200819A4B9B4A1A60F0BC70479A4BD6
:101B50001B681E07DFD1994B1B6803F0F003302B85
:101B600002D1974B974A1A60944B1B6803F0F0021E
:101B7000302A00F0D68003F0E003402B00F0D18043
:101B80008E4B1B6803F0F003302B00F0BB808B4BB7
:101B90001B6803F0F002302A00F0A08003F0E0039D
:101BA000402B00F09B80854B1B6803F0F003302B2B
:101BB00000F08680814B1B6803F0F003302B68D067
:101BC0007E4B1B6803F0F003502B10D07B4B1B683F
:101BD00003F0F002302A03D003F0E003402B9AD147
:101BE000794B7A4A1B6803F04F03136093E74FF079
:101BF0008052774BD2F80414C3F82015D2F8081499
:101C0000C3F82415D2F80C14C3F82815D2F8101410
:101C1000C3F82C15D2F81414C3F83015D2F81814E0
:101C2000C3F83415D2F81C14C3F84015D2F82014A8
:101C3000C3F84415D2F82414C3F84815D2F8281470
:101C4000C3F84C15D2F82C14C3F85015D2F8301440
:101C5000C3F85415D2F83414C3F86015D2F8381408
:101C6000C3F86415D2F83C14C3F86815D2F84014D0
:101C7000C3F86C15D2F844244B49C3F870250A7890
:101C8000062A7FF448AF4C4B1B681B077FF443AF19
:101C90009CE7454B4F491B784F4D5048504A05270C
:101CA0000F60012600243F21062B2E600460116086
:101CB0007FF431AF404B1B681A077FF42CAF7FE7EE
:101CC000394B484A1B780321062B11607FF423AF60
:101CD000394B1B6819077FF41EAF6BE7324B1B783B
:101CE0004FF080420021062BC2F80C11C2F81011EF
:101CF000C2F838157FF40FAF2F4B1B6818077FF41D
:101D00000AAF50E73849284ACB68127823F080732D
:101D1000062ACB60B4D1284B1B681C077FF4FBAEAE
:101D200035E7324A204B12681B783149C2F3423200
:101D3000062B0A607FF4EFAE1F4B1B681D077FF474
:101D4000EAAE1DE72B4B0122C3F80425D3F800248B
:101D5000002AFBD04FF0102315222649C3F8002299
:101D6000D1F80034002BFBD04FF010221521214B6D
:101D7000C2F80412D3F80024002AFBD000221D4927
:101D8000C3F80425D1F80034002BFBD0BFF34F8FEC
:101D90000649194BCA6802F4E0621343CB60BFF3F3
:101DA0004F8F00BFFDE700BFE00F00F000ED00E047
:101DB000640000200090D003E40F00F0E80F00F072
:101DC00074C007400DF0ADBA58020010E40E004098
:101DD00000C0004010560040885600401856004091
:101DE00014560040A0050040F0ED00E04402001051
:101DF0003C05004000E001400400FA05F8B500BFD2
:101E0000F8BC08BC9E467047F8B500BFF8BC08BCDB
:101E10009E46704700000020FFFFFFFF07FF000005
:101E200000000040000000000030004003000100FE
:081E3000111213140000000060
:081E380034E6FF7F0100000009
:101E40000000000000000000000000000000000092
:101E50000000000000000000000000000000000082
:101E60000000000000000000000000000000000072
:101E70000000000000000000000000000000000062
:101E80000000000000000000000000000000000052
:101E90000000000000000000000000000000000042
:101EA000110000000090D003250400000104000090
:041EB000000000002E
:0400000300001AD10E
:00000001FF
